:100000000C9493000C94B2000C94B2000C94B200C7
:100010000C94B2000C94B2000C94B2000C94B20098
:100020000C94B2000C94B2000C94B2000C94B20088
:100030000C94B2000C94B2000C94B2000C94B20078
:100040000C94B2000C94B2000C94B2000C94B20068
:100050000C94B2000C94B2000C94B2000C94B20058
:100060000C94B2000C94B2000C94B2000C94B20048
:100070000C94B2000C94B2000C94B2000C94B20038
:100080000C94B2000C94B2000C94B2000C94B20028
:100090000C94E1000C94B2000C943B010C94B2005F
:1000A0000C94B2000C94B2000C94B2000C94B20008
:1000B0000C94B2000C94B2000C94B2000C94B200F8
:1000C0000C94B2000C94B2000C94B2000C94B200E8
:1000D0000C94B2000C94B2000C94B2000C94B200D8
:1000E0000C94B2000C94B2000C94B2000C94B200C8
:1000F0000C94B2000C94B2000C94B2000C94B200B8
:100100000C94B2000C94C5020C9401030C940B03E4
:100110000C9497010C94B2000C94B2000C94B200B1
:1001200000020E060C0411241FBECFEFD1E4DEBF87
:10013000CDBF12E0A0E0B2E0EEE3F0E100E00BBFE3
:1001400002C007900D92A231B107D9F712E0A2E1E7
:10015000B2E001C01D92A839B107E1F70E949406F0
:100160000C941E080C9400008FB7F89499270895FA
:100170008FBF0895282F9FB7F894E82FFF27E95ED7
:10018000FD4F80818F3F81F4E0919702E21771F477
:100190000BC02093920204C0FF27E95EFD4F20832D
:1001A0002093970220E007C025E005C080919202CD
:1001B0008F3F91F7EECF892F99278FBF822F9927F5
:1001C00008951F920F920FB60F9211242F933F9311
:1001D0004F935F936F937F938F939F93AF93BF934F
:1001E000EF93FF938091C80087FF34C04091CE0009
:1001F00040931202E0919502F0919602309701F13E
:10020000209170023091710280918A0290918B024C
:1002100028173907D0F4E20FF31F40838091700252
:1002200090917102019690937102809370022091D7
:100230008A0230918B028217930739F483E003C05E
:100240004093730284E00E94BA008091C8008F77C7
:100250008093C800FF91EF91BF91AF919F918F91D3
:100260007F916F915F914F913F912F910F900FBEB2
:100270000F901F9018951F920F920FB60F92112496
:100280002F933F934F935F936F937F938F939F939E
:10029000AF93BF93EF93FF93E0911302F091140299
:1002A000309779F1209190023091910280911F0254
:1002B000909120022817390780F48091C80085FFAB
:1002C000FCCFE20FF31F80818093CE002F5F3F4F62
:1002D000309391022093900214C02817390789F4B3
:1002E0001092200210921F0210929102109290021E
:1002F000109214021092130210926F0282E00E9478
:10030000BA008091C8008F7B8093C800FF91EF9165
:10031000BF91AF919F918F917F916F915F914F911D
:100320003F912F910F900FBE0F901F9018951F9225
:100330000F920FB60F9211248F93809175028F5FE9
:10034000809375028F910F900FBE0F901F9018959C
:10035000EF92FF920F931F937FB7F894609175020D
:100360002091E100822F2091E200922F2091E30062
:10037000A22F2091E400B22F9C01AD018091E000FA
:1003800083FF0FC06F5F8091E100E82E8091E20053
:10039000F82E8091E300082F8091E400182FA80127
:1003A0009701872F99278FBF772788279927FAE109
:1003B000660F771F881F991FFA95D1F7E6E05695CB
:1003C000479537952795EA95D1F7622B732B842BA8
:1003D000952B1F910F91FF90EF9008956F927F9250
:1003E0008F929F92AF92BF92CF92DF92EF92FF9245
:1003F0000F931F930E94A8017B018C0120916B0237
:1004000030916C0240916D0250916E0280916302B6
:1004100090916402A0916502B0916602820F931FD1
:10042000A41FB51FE216F3060407150730F0821764
:100430009307A407B50758F005C082179307A407D0
:10044000B507E0F5E816F9060A071B07B8F59C01A1
:10045000AD012E193F09400B510B213060E03607EA
:1004600060E0460762E0560768F180E090E0A0E0B7
:10047000B2E0E80EF91E0A1F1B1FE0926B02F09219
:100480006C0200936D0210936E0280E090E0A0E099
:10049000BEEFE80EF91E0A1F1B1F205030404040DF
:1004A000524020936302309364024093650250935C
:1004B000660220E030E040E052E014C020E030E08E
:1004C00040E050E080936B0290936C02A0936D0229
:1004D000B0936E0210926302109264021092650251
:1004E0001092660239014A01B6E0660C771C881C3E
:1004F000991CBA95D1F7A6E0EE0CFF1C001F111F46
:10050000AA95D1F78091E100A82E8091E200B82E43
:100510008091E300C82E8091E400D82EA6019501B9
:100520002E5F3F4F4F4F5F4FDA01C9018E199F0970
:10053000A00BB10B86159705A805B90530F4A801E5
:100540009701260D371D481D591D5093F800409303
:10055000F7003093F6002093F50081E08093E000EF
:100560008091DF0081608093DF008FEF8093000235
:100570001F910F91FF90EF90DF90CF90BF90AF90C1
:100580009F908F907F906F9008951F920F920FB65B
:100590000F9211242F933F934F935F936F937F9309
:1005A0008F939F93AF93BF93EF93FF938091DF005F
:1005B0008E7F8093DF008FEF809300028091630233
:1005C00090916402A0916502B09166020097A10526
:1005D000B10521F486E00E94BA0002C00E94EE013B
:1005E000FF91EF91BF91AF919F918F917F916F910B
:1005F0005F914F913F912F910F900FBE0F901F90E1
:1006000018951F920F920FB60F9211240F900FBEE4
:100610000F901F9018951F920F920FB60F921124F2
:100620000F900FBE0F901F9018950F931F930FB749
:10063000F894112760936B0270936C0280936D02A3
:1006400090936E022093630230936402409365029C
:10065000509366020E94EE010FBF1F910F91089503
:10066000982F81568A3110F4975505C0892F8154EF
:100670008A3120F49753892F99270895892F805321
:100680008A3018F080E090E0089599270895982F17
:100690008FB7F894282F332780916F02882321F099
:1006A0002FBF85E090E0089581E080936F022FBF17
:1006B0008091C8008F7B8093C8008091C9008F7B98
:1006C0008093C9009093CE008091C800806480938D
:1006D000C8008091C80086FFFCCF8091C8008F7B46
:1006E0008093C8008091C80080648093C800809186
:1006F000C90080648093C9008FB7F894992710923D
:100700006F028FBF80E090E00895AF92BF92CF92CA
:10071000DF92EF92FF920F931F935B016C01609148
:100720007F0261FF1EC020917702309178024091D4
:10073000790250917A02E0907B02F0907C02009165
:100740007D0210917E02D601C501821B930BA40B82
:10075000B50B8E159F05A007B10718F0E7E7F2E08B
:100760001FC0E0E8F2E06091880261FF27C020919D
:100770008002309181024091820250918302E09088
:100780008402F09085020091860210918702A21ADD
:10079000B30AC40AD50AAE14BF04C006D10670F06D
:1007A00060FF04C080858D7F808708C02E0D3F1DAF
:1007B000401F511F208331834283538387E00E946F
:1007C000BA001F910F91FF90EF90DF90CF90BF90F4
:1007D000AF9008958F929F92AF92BF92CF92DF9287
:1007E000EF92FF920F931F93CF93DF93CDB7DEB7B6
:1007F000C058D0400FB6F894DEBF0FBECDBF8530D5
:1008000009F46EC0863030F4833059F0843009F03A
:100810005AC21AC0863009F4A7C1873009F053C202
:10082000D6C1109296021092950210928B021092ED
:100830008A0210927102109270028FB7F894992771
:10084000109215028FBF3FC200917302802F0E9449
:1008500047030B35A1F4109222022FB7F8943327E7
:1008600080912202E82FFF27ED5DFD4F00838F5F0F
:10087000809322022FBF81E08093740224C2809172
:1008800074020D35D9F4882309F41DC28FB7F8948A
:100890009927A0912202EA2FFF27ED5DFD4F0083EB
:1008A000AF5FA0932202BB27AD5DBD4F1C928FBFEF
:1008B0001092740285E00E94BA0005C2882309F4F0
:1008C00002C22FB7F894332780912202E82FFF2726
:1008D000ED5DFD4F00838F5F809322022FBFF3C138
:1008E0000FB7F894112740912202552763E272E076
:1008F000CE0101960E940F080FBF89818B3509F048
:10090000E2C18B818A3309F0DEC18A810E94300303
:10091000982F823039F0833041F0813049F080E007
:1009200090E010C0E0E2F0E005C0EDE0F0E002C0D1
:10093000EFE0F0E0EC0FFD1F80818D3509F0C3C1C1
:10094000892F9927482F882309F4BDC18FB7F894C0
:1009500099272EB138E023272EB98FBF413009F0F7
:10096000B2C19980EBE5EE2E9E1409F0ACC18A81EC
:100970000E943003813009F0A6C1AB807AE3F72EE4
:10098000AF1409F0A0C18F840DE5801609F09BC15A
:10099000BC8011E0B122DD80D122EE80E1228F8186
:1009A0000E943003F82EFF0CFF0CFF0CFF0C2FE110
:1009B000F22288850E943003F82A3FE1F3228985DC
:1009C0000E943003C82ECC0CCC0CCC0CCC0C8A85ED
:1009D0000E943003C82A8B850E943003082F1127FC
:1009E000102F00271295107F8C850E9430039927C5
:1009F000982F8827082B192B8E850E943003992762
:100A0000082B192B8D850E943003992744E0880F0D
:100A1000991F4A95E1F7802B912B90936A0280935E
:100A20006902C0926802FF0CFF0CFF0CEE0CEE0C8A
:100A3000DD0CEF28DE28BD28B092670280916702A6
:100A400090916802A0916902B0916A028D01E92E2D
:100A5000F82EF694F694F694682F66956695617074
:100A6000282F269521708170AE014F5B5F4FFA01F0
:100A70009082909102029183A282E82FFF27EF5F7C
:100A8000FD4F8081FA01838333272F5F3D4FF901AA
:100A90008081FA01848377276F5F7D4FFB0180811E
:100AA000FA018583AF2DBB27FD0134E0F695E7956C
:100AB0003A95E1F7EF5FFD4F8081FA018683AF70D1
:100AC000B070AF5FBD4F8C918783EE2DE295EF70D4
:100AD000FF27EF5FFD4F8081FA018087EE2DFF2712
:100AE000EF70F070EF5FFD4F8081FA018187F801B0
:100AF000EF2FFF27E295EF70EF5FFD4F8081FA0146
:100B00008287E12FFF27EF70F070EF5FFD4F80814C
:100B1000FA018387F80184E0F695E7958A95E1F775
:100B2000EF70F070EF5FFD4F8081FA0184870F70E6
:100B300010700F5F1D4FF8018081FA01858786864E
:100B40001786FF24E0E0F0E08E010F5B1F4FE00FFF
:100B5000F11F80810E944703F394EF2DFF27E017D8
:100B6000F10708F0B0C0F0CF80912102882361F531
:100B700020918C0230918D0240918E0250918F0213
:100B8000EFB7F894FF2760916B0270916C0280912F
:100B90006D0290916E02E0906302F0906402009109
:100BA0006502109166026E0D7F1D801F911FEFBFC1
:100BB00020938C0230938D0240938E0250938F02CB
:100BC000109221020E9415030E94A8016AC00E948F
:100BD000A8014B015C018091DF008E7F8093DF00D4
:100BE0008FEF8093000280917F0281FF24C080916B
:100BF000770290917802A0917902B0917A028501F2
:100C00007401E81AF90A0A0B1B0B20917B02309140
:100C10007C0240917D0250917E022E193F09400BCB
:100C2000510B2F3F0FEF30070FEF40070FE7500733
:100C300011F061E005C02FEF3FEF4FEF5FE760E09D
:100C40008091880281FF24C080918002909181026E
:100C5000A0918202B091830285017401E81AF90A19
:100C60000A0B1B0BD801C701C0908402D0908502EB
:100C7000E0908602F0908702C81AD90AEA0AFB0AB5
:100C8000C216D306E406F5061CF4A701960102C0BD
:100C90006623C9F012161306140615062CF0C501BA
:100CA000B4010E9485030FC020938C0230938D0203
:100CB00040938E0250938F0281E080932102C50100
:100CC000B4010E941503C058DF4F0FB6F894DEBF81
:100CD0000FBECDBFDF91CF911F910F91FF90EF908D
:100CE000DF90CF90BF90AF909F908F9008958091AC
:100CF00092028F3FB1F0282F3327F901E95EFD4FB3
:100D00008081809392028F3F11F4809397028FEF3E
:100D100080832F3F31F0822F0E94EA0381E090E030
:100D2000089580E090E008951F931FB7F89414BED3
:100D300088E10FB6F89480936000109260000FBEB7
:100D400048E050E06FEF70E087E192E00E94080811
:100D50008FEF809392028093970285B7806885BF5A
:100D600085B7806885BF80E8809361008FE08093BD
:100D7000610091E09093810080E28093B6009093AF
:100D8000B100AEEFE0E0F0E06FEF7FEFB0E0809118
:100D9000B2008823E1F74091840050918500809152
:100DA000B2008034E1F72091840030918500241B4B
:100DB000350B6217730708F4B9012E173F0708F4C3
:100DC000F901CF01861B970B029730F0B0E06FEF6F
:100DD0007FEFE0E0F0E003C0BF5FB23310F4A1505A
:100DE000B1F630939402209393021092B100809157
:100DF000B10080938100809181008093B600809142
:100E0000B600992783709070892BC9F78091DF0015
:100E10008E7F8093DF008091DC008E7F8093DC00EA
:100E200080E28093B6008091DC008F7C80638093A9
:100E3000DC008FEF809300028091DF008860809358
:100E4000DF0084E4809376028091C8008F778093DE
:100E5000C8008091C8008F7B8093C8008091C80033
:100E600082608093C8008091C9008F7D8093C90003
:100E70008091C9008B7F8093C9008091C9008068F0
:100E80008093C9008091C90080648093C9008091DB
:100E9000C90080618093C9008091C90088608093F7
:100EA000C9008091CA008F778093CA008091CA00E0
:100EB0008F7B8093CA008091CA008F7D8093CA0087
:100EC0008091CA008F7E8093CA008091CA008E7F75
:100ED0008093CA008091CA0084608093CA00809188
:100EE000CA0082608093CA001092CD0082E2809393
:100EF000CC001092150210926F021092960210927E
:100F00009502109214021092130210927102109224
:100F10007002109291021092900210928B02109225
:100F20008A021092200210921F026A9A6B9A6C9A9F
:100F3000729A739A749A81E085BF809139018260B8
:100F4000809339010E9477068823E1F70E94770693
:100F50008823E1F7812F99278FBF789481E08093D0
:100F60008902109274020E94A80160937702709324
:100F700078028093790290937A0288EE93E0A0E061
:100F8000B0E080937B0290937C02A0937D02B093AB
:100F90007E0280917F028E7F826080937F0287E055
:100FA0000E94BA008FB7F894482F55277FEFE0E2F0
:100FB000F1E0649115C08091000287FF08C0809124
:100FC000DC001092000283B7807F862B83BF83B73B
:100FD000816083BF78948895F89483B78E7F83BFB0
:100FE000809192028F3F39F3282F3327F901E95E70
:100FF000FD4F9081909392029F3F11F4909397023E
:1010000070832F3FC1F24FBF822F0E94EA03CACFE5
:10101000DC0101C06D9341505040E0F70895FB01A1
:10102000DC014150504048F001900D920020C9F77A
:0E10300001C01D9241505040E0F70895FFCFDF
:10103E00FF303132333435363738396162636465A7
:02104E0066003A
:00000001FF
