:100000000C9493000C94B2000C94B2000C94B200C7
:100010000C94B2000C94B2000C94B2000C94B20098
:100020000C94B2000C94B2000C94B2000C94B20088
:100030000C94B2000C94B2000C94B2000C94B20078
:100040000C94B2000C94B2000C94B2000C94B20068
:100050000C94B2000C94B2000C94B2000C94B20058
:100060000C94B2000C94B2000C94B2000C94B20048
:100070000C94B2000C94B2000C94B2000C94B20038
:100080000C94B2000C94B2000C94B2000C94B20028
:100090000C942B030C94B2000C944F030C94B200FC
:1000A0000C94B2000C94B2000C94B2000C94B20008
:1000B0000C94B2000C94B2000C94B2000C94B200F8
:1000C0000C94B2000C94B2000C94B2000C94B200E8
:1000D0000C94B2000C94B2000C94B2000C94B200D8
:1000E0000C94B2000C94B2000C94B2000C94B200C8
:1000F0000C94B2000C94B2000C94B2000C94B200B8
:100100000C94B2000C94DB020C9417030C942103A2
:100110000C94CA020C94B2000C94B2000C94B2007D
:1001200000020E060C0411241FBECFEFD1E4DEBF87
:10013000CDBF13E0A0E0B2E0E4E7FCE000E00BBFDD
:1001400002C007900D92A239B107D9F713E0A2E9D6
:10015000B3E001C01D92A03DB107E1F70E94E104A8
:100160000C9439060C9400008FB7F89499270895E1
:100170008FBF0895EF92FF920F931F937FB7F8946C
:100180006091A6032091E100822F2091E200922F3E
:100190002091E300A22F2091E400B22F9C01AD0139
:1001A0008091E00083FF0FC06F5F8091E100E82E37
:1001B0008091E200F82E8091E300082F8091E40006
:1001C000182FA8019701872F99278FBF7727882796
:1001D0009927FAE1660F771F881F991FFA95D1F7C3
:1001E000E6E05695479537952795EA95D1F7622B26
:1001F000732B842B952B1F910F91FF90EF900895F7
:10020000982F8FB7F894282F33278091A303882342
:1002100021F02FBF81E090E0089581E08093A30357
:100220002FBF8091C8008F7B8093C8008091C90048
:100230008F7B8093C9009093CE008091C80080642A
:100240008093C8008091C80086FFFCCF8091C800D1
:100250008F7B8093C8008091C80080648093C80021
:100260008091C90080648093C9008FB7F894992762
:100270001092A3038FBF80E090E00895282F9FB7CE
:10028000F894E82FFF27EB56FC4F80818F3F81F4D5
:10029000E091CF03E21771F40BC02093C80304C0B0
:1002A000FF27EB56FC4F20832093CF0320E007C0AD
:1002B00025E005C08091C8038F3F91F7EECF892FCD
:1002C00099278FBF822F99270895EF92FF920F935E
:1002D0001F93CF93DF93AC017B018FB7F894282F46
:1002E00033278091A303882369F02FBF08C08FB7FD
:1002F000F89499271092A3038FBF2093CD0381E038
:1003000090E02AC081E08093A3032FBF5093CC03D9
:100310004093CB037093C3036093C20300E010E0EB
:10032000EA0109C088810E940001282F8130F9F27A
:100330000F5F1F4F21960E151F05A1F78FB7F89479
:1003400099271092A3038FBF81E08093CD0383E0B0
:100350000E943E0180E090E0DF91CF911F910F91CC
:10036000FF90EF9008956F927F928F929F92AF923D
:10037000BF92CF92DF92EF92FF920F931F930E9452
:10038000BA007B018C0120919F033091A003409122
:10039000A1035091A20380919B0390919C03A09193
:1003A0009D03B0919E03820F931FA41FB51FE216F9
:1003B000F3060407150730F082179307A407B50763
:1003C00058F005C082179307A407B507E0F5E816B3
:1003D000F9060A071B07B8F59C01AD012E193F0964
:1003E000400B510B213060E0360760E0460762E0C9
:1003F000560768F180E090E0A0E0B2E0E80EF91E58
:100400000A1F1B1FE0929F03F092A0030093A10319
:100410001093A20380E090E0A0E0BEEFE80EF91E8A
:100420000A1F1B1F205030404040524020939B0326
:1004300030939C0340939D0350939E0320E030E053
:1004400040E052E014C020E030E040E050E0809313
:100450009F039093A003A093A103B093A2031092D3
:100460009B0310929C0310929D0310929E033901EE
:100470004A01B6E0660C771C881C991CBA95D1F726
:10048000A6E0EE0CFF1C001F111FAA95D1F780916A
:10049000E100A82E8091E200B82E8091E300C82EE2
:1004A0008091E400D82EA60195012E5F3F4F4F4F5B
:1004B0005F4FDA01C9018E199F09A00BB10B861598
:1004C0009705A805B90530F4A8019701260D371D39
:1004D000481D591D5093F8004093F7003093F600E3
:1004E0002093F50081E08093E0008091DF0081603F
:1004F0008093DF008FEF809390031F910F91FF9007
:10050000EF90DF90CF90BF90AF909F908F907F90B3
:100510006F9008950F931F930FB7F894112760936E
:100520009F037093A0038093A1039093A203209351
:100530009B0330939C0340939D0350939E030E9422
:10054000B3010FBF1F910F910895DF92EF92FF92B9
:100550000F931F93D82E7A018B010E94BA0029E0D5
:10056000D29EF0011124E955FC4F60837183828390
:100570009383E482F5820683178380858E7F826071
:10058000808782E00E943E011F910F91FF90EF90C3
:10059000DF9008951F920F920FB60F9211248F9340
:1005A0008091A6038F5F8093A6038F910F900FBE5B
:1005B0000F901F9018951F920F920FB60F92112453
:1005C0002F933F934F935F936F937F938F939F935B
:1005D000AF93BF93EF93FF938091DF008E7F809363
:1005E000DF008FEF8093900380919B0390919C0399
:1005F000A0919D03B0919E030097A105B10521F440
:1006000081E00E943E0102C00E94B301FF91EF9180
:10061000BF91AF919F918F917F916F915F914F911A
:100620003F912F910F900FBE0F901F9018951F9222
:100630000F920FB60F9211240F900FBE0F901F90C4
:1006400018951F920F920FB60F9211240F900FBEA4
:100650000F901F9018951F920F920FB60F921124B2
:100660008F939F938091C80087FF12C08091CE0026
:10067000992780FF02C0729801C0729A81FF02C060
:10068000739801C0739A82FF02C0749801C0749A73
:100690009F918F910F900FBE0F901F901895789497
:1006A0001F920F920FB60F9211240F900FBE0F9052
:1006B0001F901895AF92BF92CF92DF92EF92FF9268
:1006C0000F931F93CF93DF935B016C01C0E0D0E0E9
:1006D000E7EAF3E0608561FF54C020813181428107
:1006E0005381E480F58006811781D601C501821B04
:1006F000930BA40BB50B8E159F05A007B10708F44B
:1007000040C060FF03C06D7F608708C02E0D3F1D95
:10071000401F511F2083318342835383C13011F125
:10072000C13018F0C23099F523C08091910388231D
:1007300099F06DE070E080E092E00E9465016091C8
:100740000E0270910F0280E192E00E94650180E04C
:100750000E943E01109291038FB7F89499272EB111
:1007600034E00BC08FB7F89499272EB138E005C05C
:100770008FB7F89499272EB130E123272EB98FBF78
:1007800006C021963996C330D10509F0A3CF82E087
:100790000E943E01DF91CF911F910F91FF90EF904A
:1007A000DF90CF90BF90AF900895AF92BF92CF925D
:1007B000DF92EF92FF920F931F93813009F450C0A4
:1007C000813020F0823009F0D6C07DC08FB7F89418
:1007D000282F33278091CE038823B9F02FBF3CC048
:1007E0008091CE009091C8009F779093C80090911F
:1007F000C90090689093C9002FB7F89433271092DE
:10080000CE032FBF0E94000127C081E08093CE035A
:100810002FBF8091C9008F778093C9008091C80055
:100820008F778093C80020E03FEF8091C80087FD5C
:10083000D7CF21503040C9F78091C8008F7780937F
:10084000C8008091C90080688093C9008FB7F89470
:1008500099271092CE038FBF80E00E943E018BC08B
:1008600080919A03882361F52091C4033091C503D8
:100870004091C6035091C703EFB7F894FF276091EA
:100880009F037091A0038091A1039091A203E09037
:100890009B03F0909C0300919D0310919E036E0DAD
:1008A0007F1D801F911FEFBF2093C4033093C503AA
:1008B0004093C6035093C70310929A030E948A0282
:1008C0000E94BA0044C00E94BA007B018C01809152
:1008D000DF008E7F8093DF008FEF809390038FEF98
:1008E000A82E8FEFB82E8FEFC82E8FE7D82E60E09E
:1008F000E7EAF3E0808581FF1CC080819181A281BD
:10090000B381A8019701281B390B4A0B5B0BDA0155
:10091000C9012481358146815781281B390B4A0B37
:100920005B0B2A153B054C055D051CF459016A015A
:1009300061E0399633E0E23CF307E1F66623D9F053
:100940001A141B041C041D042CF0C801B7010E94DA
:100950005A0311C0A092C403B092C503C092C6034B
:10096000D092C70381E080939A03A6019501C80144
:10097000B7010E948A021F910F91FF90EF90DF90C4
:10098000CF90BF90AF9008958091C8038F3FB1F092
:10099000282F3327F901EB56FC4F80818093C80341
:1009A0008F3F11F48093CF038FEF80832F3F31F07F
:1009B000822F0E94D50381E090E0089580E090E0CE
:1009C00008951F931FB7F89414BE88E10FB6F894EA
:1009D00080936000109260000FBE45E050E06FEF22
:1009E00070E085E993E00E9432068FEF8093C803A0
:1009F0008093CF0385B7806885BF85B7806885BF42
:100A000080E8809361008FE08093610091E0909393
:100A1000810080E28093B6009093B100AEEFE0E0F9
:100A2000F0E06FEF7FEFB0E08091B2008823E1F754
:100A300040918400509185008091B2008034E1F7AC
:100A40002091840030918500241B350B62177307B9
:100A500008F4B9012E173F0708F4F901CF01861BEE
:100A6000970B029730F0B0E06FEF7FEFE0E0F0E03F
:100A700003C0BF5FB23310F4A150B1F63093CA0384
:100A80002093C9031092B1008091B100809381003E
:100A9000809181008093B6008091B6009927837081
:100AA0009070892BC9F780E28093B6008091DC00BA
:100AB0008F7C80638093DC008091DF00886080936E
:100AC000DF008091DF008E7F8093DF008FEF8093C7
:100AD00090038091DC008E7F8093DC006A9A6B9A91
:100AE0006C9A729A739A749A81E085BF80913901E9
:100AF0008260809339010E94C4048823E1F70E9438
:100B0000C4048823E1F7812F99278FBF78948091BF
:100B1000C8008F778093C8008091C8008F7B809336
:100B2000C8008091C80082608093C8008091C9008D
:100B30008F7D8093C9008091C9008B7F8093C9000D
:100B40008091C90080688093C9008091C900806449
:100B50008093C9008091C90080618093C900809111
:100B6000C90088608093C9008091CA008F77809304
:100B7000CA008091CA008F7B8093CA008091CA000E
:100B80008F7D8093CA008091CA008F7E8093CA00B7
:100B90008091CA008E7F8093CA008091CA008460D1
:100BA0008093CA008091CA0082608093CA0010922C
:100BB000CD0082E28093CC001092CE031092A3036A
:100BC0004AEF50E060E070E080E00E94A50244EF50
:100BD00051E060E070E081E00E94A50248EE53E041
:100BE00060E070E082E00E94A5028FB7F894482F81
:100BF00055276FEF1FC08091900387FF12C080912F
:100C0000DC0085FF03C0E3E0F0E002C0E5E0F0E0D7
:100C1000E093900383B7E05EFE4FE491807F8E2BDC
:100C200083BF83B7816083BF78948895F89483B736
:100C30008E7F83BF8091C8038F3FE9F2282F33272F
:100C4000F901EB56FC4F90819093C8039F3F11F43C
:100C50009093CF0360832F3F71F24FBF822F0E948A
:100C6000D503C3CFDC0101C06D9341505040E0F784
:040C70000895FFCF15
:100C740048656C6C6F20576F726C64210A00940194
:100C84002323232323232323232323232323232330
:100C94002323232323232323232323232323232320
:100CA4002323232323232323232323232323232310
:100CB4002323232323232323232323232323232300
:100CC4000D0A230D0A2309416C7020536179696E62
:100CD4000D0A2309616C705F736179696E5B6174DD
:100CE4005D696565655B646F745D6F72670D0A238A
:100CF4000930322F31312F323031310D0A23094B73
:100D0400544820526F79616C20496E73746974750C
:100D14007465206F6620546563686E6F6C6F6779C5
:100D24000D0A230D0A23094E6F7465733A0D0A23C5
:100D34000957656C636F6D6520746F2054696E7913
:100D44004F5320322E312E31206F6E2041746D6549
:100D54006761313238524641310D0A2309546869BA
:100D6400732069732074686520776F726B696E678E
:100D74002064656D6F20666F7220426C696E6B43F0
:100D84000D0A230949742073686F756C6420616CC3
:100D9400736F206563686F20746865206B65797371
:100DA40020636F6D696E672066726F6D2073657264
:100DB40069616C20706F72740D0A230D0A2323235A
:100DC40023232323232323232323232323232323EF
:100DD40023232323232323232323232323232323DF
:100DE40023232323232323232323232323232323CF
:100DF400232323232323232323232323230D0A0011
:020E0400FF01EC
:00000001FF
