:100000000C9493000C94B2000C94B2000C94B200C7
:100010000C94B2000C94B2000C94B2000C94B20098
:100020000C94B2000C94B2000C94B2000C94B20088
:100030000C94B2000C94B2000C94B2000C94B20078
:100040000C94B2000C94B2000C94B2000C94B20068
:100050000C94B2000C94B2000C94B2000C94B20058
:100060000C94B2000C94B2000C94B2000C94B20048
:100070000C94B2000C94B2000C94B2000C94B20038
:100080000C94B2000C94B2000C94B2000C94B20028
:100090000C949F020C94B2000C94B9020C94B20020
:1000A0000C94B2000C94B2000C94B2000C94B20008
:1000B0000C94B2000C94B2000C94B2000C94B200F8
:1000C0000C94B2000C94B2000C94B2000C94B200E8
:1000D0000C94B2000C94B2000C94B2000C94B200D8
:1000E0000C94B2000C94B2000C94B2000C94B200C8
:1000F0000C94B2000C94B2000C94B2000C94B200B8
:100100000C94B2000C944F020C948B020C94950248
:100110000C943E020C94B2000C94B2000C94B20009
:1001200000020E060C0411241FBECFEFD1E4DEBF87
:10013000CDBF13E0A0E0B2E0E4EBFBE000E00BBFDA
:1001400002C007900D92A438B107D9F713E0A4E8D4
:10015000B3E001C01D92A53CB107E1F70E94EA039C
:100160000C94D9050C9400008FB7F8949927089542
:100170008FBF0895EF92FF920F931F937FB7F8946C
:1001800060919B032091E100822F2091E200922F49
:100190002091E300A22F2091E400B22F9C01AD0139
:1001A0008091E00083FF0FC06F5F8091E100E82E37
:1001B0008091E200F82E8091E300082F8091E40006
:1001C000182FA8019701872F99278FBF7727882796
:1001D0009927FAE1660F771F881F991FFA95D1F7C3
:1001E000E6E05695479537952795EA95D1F7622B26
:1001F000732B842B952B1F910F91FF90EF900895F7
:10020000282F9FB7F894E82FFF27E857FC4F8081ED
:100210008F3F81F4E091C403E21771F40BC0209387
:10022000BD0304C0FF27E857FC4F20832093C4037D
:1002300020E007C025E005C08091BD038F3F91F706
:10024000EECF892F99278FBF822F992708956F921C
:100250007F928F929F92AF92BF92CF92DF92EF9256
:10026000FF920F931F930E94BA007B018C01209193
:100270009403309195034091960350919703809198
:10028000900390919103A0919203B0919303820FF8
:10029000931FA41FB51FE216F3060407150730F0DD
:1002A00082179307A407B50758F005C08217930774
:1002B000A407B507E0F5E816F9060A071B07B8F525
:1002C0009C01AD012E193F09400B510B213060E01C
:1002D000360760E0460762E0560768F180E090E08C
:1002E000A0E0B2E0E80EF91E0A1F1B1FE092940383
:1002F000F0929503009396031093970380E090E0AB
:10030000A0E0BEEFE80EF91E0A1F1B1F2050304070
:1003100040405240209390033093910340939203C6
:100320005093930320E030E040E052E014C020E01E
:1003300030E040E050E08093940390939503A093C5
:100340009603B0939703109290031092910310922A
:1003500092031092930339014A01B6E0660C771CB0
:10036000881C991CBA95D1F7A6E0EE0CFF1C001F63
:10037000111FAA95D1F78091E100A82E8091E2008B
:10038000B82E8091E300C82E8091E400D82EA601FB
:1003900095012E5F3F4F4F4F5F4FDA01C9018E1914
:1003A0009F09A00BB10B86159705A805B90530F478
:1003B000A8019701260D371D481D591D5093F800BF
:1003C0004093F7003093F6002093F50081E080938E
:1003D000E0008091DF0081608093DF008FEF8093E9
:1003E00082031F910F91FF90EF90DF90CF90BF900D
:1003F000AF909F908F907F906F9008950F931F9371
:100400000FB7F8941127609394037093950380932A
:100410009603909397032093900330939103409316
:100420009203509393030E9427010FBF1F910F91D6
:100430000895DF92EF92FF920F931F93D82E7A01C7
:100440008B010E94BA0029E0D29EF0011124E456EB
:10045000FC4F6083718382839383E482F5820683F9
:10046000178380858E7F8260808784E00E940001F0
:100470001F910F91FF90EF90DF9008951F920F92C0
:100480000FB60F9211248F9380919B038F5F8093FF
:100490009B038F910F900FBE0F901F9018951F9286
:1004A0000F920FB60F9211242F933F934F935F93A8
:1004B0006F937F938F939F93AF93BF93EF93FF932C
:1004C0008091DF008E7F8093DF008FEF8093820327
:1004D0008091900390919103A0919203B091930326
:1004E0000097A105B10521F483E00E94000102C03C
:1004F0000E942701FF91EF91BF91AF919F918F9142
:100500007F916F915F914F913F912F910F900FBE0F
:100510000F901F9018951F920F920FB60F921124F3
:100520000F900FBE0F901F9018951F920F920FB64D
:100530000F9211240F900FBE0F901F9018951F92CD
:100540000F920FB60F9211248F939F938091C80042
:1005500087FF08C08091CE00809384038EB194E021
:1005600089278EB99F918F910F900FBE0F901F908A
:1005700018951F920F920FB60F9211248F939F938D
:100580008EB198E089278EB99F918F910F900FBE01
:100590000F901F901895AF92BF92CF92DF92EF927B
:1005A000FF920F931F93CF93DF935B016C01C0E029
:1005B000D0E0ECE9F3E0608561FF2FC0208131815C
:1005C00042815381E480F58006811781D601C501FF
:1005D000821B930BA40BB50B8E159F05A007B107CB
:1005E000E0F060FF03C06D7F608708C02E0D3F1DE7
:1005F000401F511F2083318342835383C13039F020
:10060000C13018F0C23071F404C080E003C081E052
:1006100001C082E00E94000105C021963996C330D6
:10062000D10549F684E00E940001DF91CF911F912E
:100630000F91FF90EF90DF90CF90BF90AF90089513
:10064000AF92BF92CF92DF92EF92FF920F931F93E0
:10065000833079F0843009F43FC0823009F094C0CF
:100660008FB7F89499272EB130E123272EB98FBF89
:100670008BC080918F03882361F52091B90330915D
:10068000BA034091BB035091BC03EFB7F894FF2726
:1006900060919403709195038091960390919703D4
:1006A000E0909003F09091030091920310919303D6
:1006B0006E0D7F1D801F911FEFBF2093B9033093F4
:1006C000BA034093BB035093BC0310928F030E9464
:1006D000FE010E94BA0044C00E94BA005B016C0196
:1006E0008091DF008E7F8093DF008FEF8093820305
:1006F00060E01FEFE12E1FEFF12E1FEF012F1FE72C
:10070000112FECE9F3E0808581FF1CC0808191818D
:10071000A281B381A6019501281B390B4A0B5B0B03
:10072000DA01C9012481358146815781281B390BA3
:100730004A0B5B0B2E153F05400751071CF479014E
:100740008A0161E0399633E0E73BF307E1F666237F
:10075000D9F01E141F04100611062CF0C601B501B5
:100760000E94CB0211C0E092B903F092BA03009349
:10077000BB031093BC0381E080938F03A801970112
:10078000C601B5010E94FE011F910F91FF90EF90ED
:10079000DF90CF90BF90AF9008958091BD038F3FC1
:1007A000B1F0282F3327F901E857FC4F808180935F
:1007B000BD038F3F11F48093C4038FEF80832F3FDD
:1007C00031F0822F0E94200381E090E0089580E0C4
:1007D00090E008951F931FB7F89414BE88E10FB6F8
:1007E000F89480936000109260000FBE47E050E0E4
:1007F0006FEF70E088E893E00E94D2058FEF80935E
:10080000BD038093C40385B7806885BF85B78068C2
:1008100085BF80E8809361008FE08093610091E064
:100820009093810080E28093B6009093B100E0E065
:10083000F0E06FEF7FEFA0E0BEEF8091B200882381
:10084000E1F740918400509185008091B20080349E
:10085000E1F72091840030918500241B350B62174D
:10086000730708F4B9012E173F0708F4F901CF0107
:10087000861B970B029720F4AF5FA23330F007C0BE
:10088000A0E06FEF7FEFE0E0F0E0B150B1F6309321
:10089000BF032093BE031092B1008091B1008093FA
:1008A0008100809181008093B6008091B6009927E5
:1008B00083709070892BC9F780E28093B600809195
:1008C000DC008F7C80638093DC008091DF00886097
:1008D0008093DF008091DF008E7F8093DF008FEFB9
:1008E000809382038091DC008E7F8093DC006A9A83
:1008F0006B9A6C9A729A739A749A81E085BF809110
:1009000039018260809339010E94CD038823E1F789
:100910006D988DB18091C8008F778093C8008091C9
:10092000C8008F7B8093C8008091C800826080934C
:10093000C8008091C9008F7D8093C9008091C90053
:100940008B7F8093C9008091C90080688093C90023
:100950008091C90080648093C9008091C900806142
:100960008093C9008091C90088608093C9008091FC
:10097000CA008F778093CA008091CA008F7B8093D2
:10098000CA008091CA008F7D8093CA008091CA00FE
:100990008F7E8093CA008091CA008E7F8093CA00A8
:1009A0008091CA0084608093CA008091CA008260EE
:1009B0008093CA001092CD0082E28093CC00109206
:1009C000C303109298030E94CD038823E1F7812F7F
:1009D00099278FBF789416C0729828E833E1E0E930
:1009E000F1E0CF010197F1F721503040D1F7729A31
:1009F00028E833E1E0E9F1E0CF010197F1F7215078
:100A00003040D1F780E0659B81E0882329F34AEFED
:100A100050E060E070E080E00E94190244EF51E095
:100A200060E070E081E00E94190248EE53E060E06F
:100A300070E082E00E9419028FB7F894282F3327C4
:100A400080919803882359F02FBF8FB7F894282FEF
:100A5000332780919803882309F03DC03EC081E090
:100A6000809398032FBF20E032E03093C10320939E
:100A7000C0038FE791E09093B8038093B703F90127
:100A80008091C9008F7B8093C9008091C80085FF49
:100A9000FCCF80818093CE008091C80086FFFCCF80
:100AA0008091C80080648093C8008091C9008064F0
:100AB0008093C900319683E0EF37F80709F78FB7C5
:100AC000F8949927109298038FBF1092C20385E083
:100AD0000E94000131C02FBF2FC081E08093980396
:100AE0002FBF8091C8008F7B8093C8008091C90080
:100AF0008F7B8093C90086E48093CE008091C800EC
:100B000080648093C8008091C80086FFFCCF8091EC
:100B1000C8008F7B8093C8008091C8008064809358
:100B2000C8008091C90080648093C9008FB7F89491
:100B30009927109298038FBF8FB7F894482F5527A5
:100B40007FEFE0E2F1E0649115C08091820387FFBE
:100B500008C08091DC001092820383B7807F862BCF
:100B600083BF83B7816083BF78948895F89483B7F7
:100B70008E7F83BF8091BD038F3F39F3282F3327AA
:100B8000F901E857FC4F90819093BD039F3F11F40A
:100B90009093C40370832F3FC1F24FBF822F0E94F6
:100BA0002003CACFDC0101C06D9341505040E0F7F3
:040BB0000895FFCFD6
:100BB4002323232323232323232323232323232301
:100BC40023232323232323232323232323232323F1
:100BD40023232323232323232323232323232323E1
:100BE40023232323232323232323232323232323D1
:100BF4000D0A230D0A2309416C7020536179696E33
:100C04000D0A2309616C705F736179696E5B6174AD
:100C14005D696565655B646F745D6F72670D0A235A
:100C24000931342F31312F323031310D0A23094B40
:100C3400544820526F79616C20496E7374697475DD
:100C44007465206F6620546563686E6F6C6F677996
:100C54000D0A230D0A23094E6F7465733A0D0A2396
:100C64000957656C636F6D6520746F2054696E79E4
:100C74004F5320322E312E31206F6E2041746D651A
:100C84006761313238524641310D0A23095468698B
:100C9400732069732074686520776F726B696E675F
:100CA4002064656D6F20666F7220426C696E6B43C1
:100CB4000D0A230949742073686F756C6420616C94
:100CC400736F206563686F20746865206B65797342
:100CD40020636F6D696E672066726F6D2073657235
:100CE40069616C20706F72740D0A230D0A2323232B
:100CF40023232323232323232323232323232323C0
:100D040023232323232323232323232323232323AF
:100D1400232323232323232323232323232323239F
:100D2400232323232323232323232323230D0A00E1
:040D34007F01FF003C
:00000001FF
