S01D00006275696C642F726362313238726661312F6D61696E2E73726563B8
S11300000C9493000C94B2000C94B2000C94B200C3
S11300100C94B2000C94B2000C94B2000C94B20094
S11300200C94B2000C94B2000C94B2000C94B20084
S11300300C94B2000C94B2000C94B2000C94B20074
S11300400C94B2000C94B2000C94B2000C94B20064
S11300500C94B2000C94B2000C94B2000C94B20054
S11300600C94B2000C94B2000C94B2000C94B20044
S11300700C94B2000C94B2000C94B2000C94B20034
S11300800C94B2000C94B2000C94B2000C94B20024
S11300900C940F030C94B2000C9421030C94B20042
S11300A00C94B2000C94B2000C94B2000C94B20004
S11300B00C94B2000C94B2000C94B2000C94B200F4
S11300C00C94B2000C94B2000C94B2000C94B200E4
S11300D00C94B2000C94B2000C94B2000C94B200D4
S11300E00C94B2000C94B2000C94B2000C94B200C4
S11300F00C94B2000C94B2000C94B2000C94B200B4
S11301000C94B2000C94BF020C94FB020C940503F3
S11301100C94AE020C94B2000C94B2000C94B20095
S113012000020E060C0411241FBECFEFD1E4DEBF83
S1130130CDBF13E0A0E0B2E0EEEBFBE000E00BBFCC
S113014002C007900D92A638B107D9F713E0A6E8CC
S1130150B3E001C01D92A53CB107E1F70E948A04F7
S11301600C94DE050C9400008FB7F8949927089539
S11301708FBF0895EF92FF920F931F937FB7F89468
S113018060919C032091E100822F2091E200922F44
S11301902091E300A22F2091E400B22F9C01AD0135
S11301A08091E00083FF0FC06F5F8091E100E82E33
S11301B08091E200F82E8091E300082F8091E40002
S11301C0182FA8019701872F99278FBF7727882792
S11301D09927FAE1660F771F881F991FFA95D1F7BF
S11301E0E6E05695479537952795EA95D1F7622B22
S11301F0732B842B952B1F910F91FF90EF900895F3
S1130200982F80918703882319F081E090E0089566
S11302108091C8008F7B8093C8008091C9008F7B38
S11302208093C9009093CE008091C800806480932D
S1130230C8008091C80086FFFCCF8091C8008F7BE6
S11302408093C8008091C80080648093C800809126
S1130250C90080648093C9001092870380E090E015
S11302600895282F9FB7F894E82FFF27E457FC4FF1
S113027080818F3F81F4E091C403E21771F40BC0D5
S11302802093BE0304C0FF27E457FC4F2083209330
S1130290C40320E007C025E005C08091BE038F3F62
S11302A091F7EECF892F99278FBF822F9927089531
S11302B0EF92FF920F931F93CF93DF939C017B01E7
S11302C080918803882341F004C0109288038093AE
S11302D0C30381E090E024C081E0809388033093DD
S11302E0C2032093C1037093B9036093B80300E081
S11302F010E0E90108C088810E940001813029F3DF
S11303000F5F1F4F21960E151F05A9F71092880342
S113031081E08093C30383E00E94310180E090E098
S1130320DF91CF911F910F91FF90EF9008956F92FD
S11303307F928F929F92AF92BF92CF92DF92EF9271
S1130340FF920F931F930E94BA007B018C012091AE
S113035096033091970340919803509199038091AB
S1130360920390919303A0919403B0919503820F0B
S1130370931FA41FB51FE216F3060407150730F0F8
S113038082179307A407B50758F005C0821793078F
S1130390A407B507E0F5E816F9060A071B07B8F540
S11303A09C01AD012E193F09400B510B213060E037
S11303B0360760E0460762E0560768F180E090E0A7
S11303C0A0E0B2E0E80EF91E0A1F1B1FE09296039C
S11303D0F0929703009398031093990380E090E0C0
S11303E0A0E0BEEFE80EF91E0A1F1B1F205030408C
S11303F040405240209392033093930340939403DC
S11304005093950320E030E040E052E014C020E037
S113041030E040E050E08093960390939703A093DC
S11304209803B0939903109292031092930310923D
S113043094031092950339014A01B6E0660C771CC7
S1130440881C991CBA95D1F7A6E0EE0CFF1C001F7E
S1130450111FAA95D1F78091E100A82E8091E200A6
S1130460B82E8091E300C82E8091E400D82EA60116
S113047095012E5F3F4F4F4F5F4FDA01C9018E192F
S11304809F09A00BB10B86159705A805B90530F493
S1130490A8019701260D371D481D591D5093F800DA
S11304A04093F7003093F6002093F50081E08093A9
S11304B0E0008091DF0081608093DF008FEF809304
S11304C083031F910F91FF90EF90DF90CF90BF9027
S11304D0AF909F908F907F906F9008950F931F938C
S11304E00FB7F89411276093960370939703809342
S11304F0980390939903209392033093930340932A
S11305009403509395030E9497010FBF1F910F917D
S11305100895DF92EF92FF920F931F93D82E7A01E2
S11305208B010E94BA0029E0D29EF0011124E35607
S1130530FC4F6083718382839383E482F582068314
S1130540178380858E7F8260808782E00E943101DC
S11305501F910F91FF90EF90DF9008951F920F92DB
S11305600FB60F9211248F9380919C038F5F809319
S11305709C038F910F900FBE0F901F9018951F92A0
S11305800F920FB60F9211242F933F934F935F93C3
S11305906F937F938F939F93AF93BF93EF93FF9347
S11305A08091DF008E7F8093DF008FEF8093830341
S11305B08091920390919303A0919403B091950339
S11305C00097A105B10521F481E00E94310102C028
S11305D00E949701FF91EF91BF91AF919F918F91ED
S11305E07F916F915F914F913F912F910F900FBE2B
S11305F00F901F9018951F920F920FB60F9211240F
S11306000F900FBE0F901F9018951F920F920FB668
S11306100F9211240F900FBE0F901F9018951F92E8
S11306200F920FB60F9211248F938091C80087FF09
S113063002C08091CE008F910F900FBE0F901F903B
S1130640189578941F920F920FB60F9211240F9061
S11306500FBE0F901F901895AF92BF92CF92DF926A
S1130660EF92FF920F931F93CF93DF935B016C0183
S1130670C0E0D0E0EDE9F3E0608561FF3AC020819D
S1130680318142815381E480F58006811781D6014E
S1130690C501821B930BA40BB50B8E159F05A007F8
S11306A0B10738F160FF03C06D7F608708C02E0D6D
S11306B03F1D401F511F2083318342835383CC232A
S11306C0F1F4809184038823D1F06DE070E080E040
S11306D092E00E94580160910E0270910F0280E135
S11306E092E00E94580180E00E943101109284033C
S11306F006C021963996C330D10509F0BDCF82E0FA
S11307000E943101DF91CF911F910F91FF90EF90E3
S1130710DF90CF90BF90AF900895AF92BF92CF92E9
S1130720DF92EF92FF920F931F93813009F441C03F
S11307308130A8F0823009F0C7C06EC08091CE002D
S11307409091C8009F779093C8009091C9009068D9
S11307509093C900109286030E94000126C08091E4
S11307608603882311F581E0809386038091C90074
S11307708F778093C9008091C8008F778093C800D9
S113078020E03FEF8091C80087FDD8CF2150304052
S1130790C9F78091C8008F778093C8008091C90001
S11307A080688093C9001092860380E00E94310122
S11307B08BC080919103882361F52091BA03309115
S11307C0BB034091BC035091BD03EFB7F894FF27DE
S11307D06091960370919703809198039091990387
S11307E0E0909203F0909303009194031091950389
S11307F06E0D7F1D801F911FEFBF2093BA033093AE
S1130800BB034093BC035093BD03109291030E9419
S11308106E020E94BA0044C00E94BA007B018C019F
S11308208091DF008E7F8093DF008FEF80938303BE
S11308308FEFA82E8FEFB82E8FEFC82E8FE7D82E0C
S113084060E0EDE9F3E0808581FF1CC08081918147
S1130850A281B381A8019701281B390B4A0B5B0BBA
S1130860DA01C9012481358146815781281B390B5E
S11308704A0B5B0B2A153B054C055D051CF459011D
S11308806A0161E0399633E0E83BF307E1F6662359
S1130890D9F01A141B041C041D042CF0C801B70160
S11308A00E942C0311C0A092BA03B092BB03C09261
S11308B0BC03D092BD0381E080939103A60195010E
S11308C0C801B7010E946E021F910F91FF90EF9033
S11308D0DF90CF90BF90AF9008958091BE038F3F7B
S11308E0B1F0282F3327F901E457FC4F808180931E
S11308F0BE038F3F11F48093C4038FEF80832F3F97
S113090031F0822F0E948D0381E090E0089580E011
S113091090E008951F931FB7F89414BE88E10FB6B2
S1130920F89480936000109260000FBE45E050E0A0
S11309306FEF70E08CE893E00E94D7058FEF80930F
S1130940BE038093C40385B7806885BF85B780687C
S113095085BF80E8809361008FE08093610091E01F
S11309609093810080E28093B6009093B100AEEF43
S1130970E0E0F0E06FEF7FEFB0E08091B200882319
S1130980E1F740918400509185008091B200803459
S1130990E1F72091840030918500241B350B621708
S11309A0730708F4B9012E173F0708F4F901CF01C2
S11309B0861B970B029730F0B0E06FEF7FEFE0E01B
S11309C0F0E003C0BF5FB23310F4A150B1F630932E
S11309D0C0032093BF031092B1008091B1008093B3
S11309E08100809181008093B6008091B6009927A0
S11309F083709070892BC9F780E28093B600809150
S1130A00DC008F7C80638093DC008091DF00886051
S1130A108093DF008091DF008E7F8093DF008FEF73
S1130A20809383038091DC008E7F8093DC006A9A3C
S1130A306B9A6C9A729A739A749A81E085BF8091CA
S1130A4039018260809339010E946D048823E1F7A3
S1130A500E946D048823E1F7812F99278FBF789432
S1130A608091C8008F778093C8008091C8008F7BE5
S1130A708093C8008091C80082608093C8008091F0
S1130A80C9008F7D8093C9008091C9008B7F8093BA
S1130A90C9008091C90080688093C9008091C90011
S1130AA080648093C9008091C90080618093C900EB
S1130AB08091C90088608093C9008091CA008F77B3
S1130AC08093CA008091CA008F7B8093CA00809172
S1130AD0CA008F7D8093CA008091CA008F7E809364
S1130AE0CA008091CA008E7F8093CA008091CA0098
S1130AF084608093CA008091CA0082608093CA0097
S1130B001092CD0082E28093CC004AEF50E060E086
S1130B1070E080E00E94890244EF51E060E070E000
S1130B2081E00E94890248EE53E060E070E082E0D8
S1130B300E9489028FB7F894482F55276FEF1FC082
S1130B408091830387FF12C08091DC0085FF03C07E
S1130B50E3E0F0E002C0E5E0F0E0E093830383B774
S1130B60E05EFE4FE491807F8E2B83BF83B781606C
S1130B7083BF78948895F89483B78E7F83BF8091E0
S1130B80BE038F3FE9F2282F3327F901E457FC4FC6
S1130B9090819093BE039F3F11F49093C4036083AC
S1130BA02F3F71F24FBF822F0E948D03C3CFDC0110
S1110BB001C06D9341505040E0F70895FFCF0F
S1130BBE48656C6C6F20576F726C64210A00730168
S1130BCE23232323232323232323232323232323E3
S1130BDE23232323232323232323232323232323D3
S1130BEE23232323232323232323232323232323C3
S1130BFE23232323232323232323232323232323B3
S1130C0E0A230A2309416C7020536179696E0A2301
S1130C1E09616C705F736179696E5B61745D69659E
S1130C2E65655B646F745D6F72670A230930322FDA
S1130C3E31312F323031310A23094B544820526F4F
S1130C4E79616C20496E73746974757465206F666E
S1130C5E20546563686E6F6C6F67790A230A2309E3
S1130C6E4E6F7465733A0A230957656C636F6D652D
S1130C7E20746F2054696E794F5320322E312E31E9
S1130C8E206F6E2041746D65676131323852464172
S1130C9E310A2309546869732069732074686520C6
S1130CAE776F726B696E672064656D6F20666F7205
S1130CBE20426C696E6B430A230949742073686F72
S1130CCE756C6420616C736F206563686F20746843
S1130CDE65206B65797320636F6D696E672066722C
S1130CEE6F6D2073657269616C20706F72740A2364
S1130CFE0A232323232323232323232323232323CB
S1130D0E23232323232323232323232323232323A1
S1130D1E2323232323232323232323232323232391
S1130D2E2323232323232323232323232323232381
S1090D3E230A00FF01007E
S9030000FC
