S01D00006275696C642F726362313238726661312F6D61696E2E73726563B8
S11300000C9493000C94B2000C94B2000C94B200C3
S11300100C94B2000C94B2000C94B2000C94B20094
S11300200C94B2000C94B2000C94B2000C94B20084
S11300300C94B2000C94B2000C94B2000C94B20074
S11300400C94B2000C94B2000C94B2000C94B20064
S11300500C94B2000C94B2000C94B2000C94B20054
S11300600C94B2000C94B2000C94B2000C94B20044
S11300700C94B2000C94B2000C94B2000C94B20034
S11300800C94B2000C94B2000C94B2000C94B20024
S11300900C9460010C94B2000C94BC010C94B2005A
S11300A00C94B2000C94B2000C94B2000C94B20004
S11300B00C94B2000C94B2000C94B2000C94B200F4
S11300C00C94B2000C94B2000C94B2000C94B200E4
S11300D00C94B2000C94B2000C94B2000C94B200D4
S11300E00C94B2000C94B2000C94B2000C94B200C4
S11300F00C94B2000C94B2000C94B2000C94B200B4
S11301000C94B2000C9446030C9482030C948C035C
S11301100C9418020C94B2000C94B2000C94B2002B
S113012000020E060C0411241FBECFEFD1E4DEBF83
S1130130CDBF12E0A0E0B2E0EAE3F8E100E00BBFDB
S113014002C007900D92A231B107D9F711E1A2E1E3
S1130150B2E001C01D92AC3EB107E1F70E94D20AA1
S11301600C941C0C0C9400008FB7F89499270895F4
S11301708FBF0895282F9FB7F894E82FFF27EF59D2
S1130180FD4F80818F3F81F4E091EB11E21771F410
S11301900BC02093E51104C0FF27EF59FD4F2083C6
S11301A02093EB1120E007C025E005C08091E51104
S11301B08F3F91F7EECF892F99278FBF822F9927F1
S11301C00895482F8FB7F894282F33278091800201
S11301D0882349F02FBF8FB7F894282F33278091B5
S11301E0CA02882311F02FBF2EC081E08093CA0277
S11301F02FBF8091C8008F7B8093C8008091C90075
S11302008F7B8093C9004093CE008091C8008064A6
S11302108093C8008091C80086FFFCCF8091C800FD
S11302208F7B8093C8008091C80080648093C8004D
S11302308091C90080648093C9008FB7F89499278E
S11302401092CA028FBF4B3561F48FB7F894992787
S11302504093810221E02093EA118FBF2093C102D1
S113026008958091C1024D35D1F4882341F18FB7AF
S1130270F8949927A091EA11EA2FFF27EF57FD4F31
S11302804083AF5FA093EA11BB27AF57BD4F1C92C9
S11302908FBF1092C10285E00E94BA00089588239E
S11302A071F02FB7F89433278091EA11E82FFF27D4
S11302B0EF57FD4F40838F5F8093EA112FBF08955E
S11302C01F920F920FB60F9211242F933F934F93C7
S11302D05F936F937F938F939F93AF93BF93EF93AA
S11302E0FF938091C80087FF36C04091CE004093B1
S11302F01302E091E811F091E911309711F1209186
S1130300CB023091CC028091DD119091DE1128173F
S11303103907E0F4E20FF31F40838091CB02909100
S1130320CC0201969093CC028093CB022091DD11F4
S11303303091DE118217930749F483E00E94BA00DA
S113034005C040934E03842F0E94E1008091C800B1
S11303508F778093C800FF91EF91BF91AF919F91E8
S11303608F917F916F915F914F913F912F910F905A
S11303700FBE0F901F9018951F920F920FB60F92F9
S113038011242F933F934F935F936F937F938F9396
S11303909F93AF93BF93EF93FF93E0911D02F0916E
S11303A01E02309779F12091E3113091E41180918C
S11303B07D0290917E022817390780F48091C8004D
S11303C085FFFCCFE20FF31F80818093CE002F5F67
S11303D03F4F3093E4112093E31114C028173907D9
S11303E089F410927E0210927D021092E411109210
S11303F0E31110921E0210921D021092CA0282E0B2
S11304000E94BA008091C8008F7B8093C800FF913E
S1130410EF91BF91AF919F918F917F916F915F9178
S11304204F913F912F910F900FBE0F901F901895F1
S11304301F920F920FB60F9211248F9380914F0346
S11304408F5F80934F038F910F900FBE0F901F907B
S11304501895EF92FF920F931F937FB7F8946091D2
S11304604F032091E100822F2091E200922F2091EE
S1130470E300A22F2091E400B22F9C01AD018091F2
S1130480E00083FF0FC06F5F8091E100E82E809150
S1130490E200F82E8091E300082F8091E400182FE9
S11304A0A8019701872F99278FBF77278827992736
S11304B0FAE1660F771F881F991FFA95D1F7E6E0D6
S11304C05695479537952795EA95D1F7622B732B67
S11304D0842B952B1F910F91FF90EF9008956F92AD
S11304E07F928F929F92AF92BF92CF92DF92EF92C0
S11304F0FF920F931F930E9429027B018C0120918C
S1130500C6023091C7024091C8025091C90280913D
S1130510C2029091C302A091C402B091C502820F9D
S1130520931FA41FB51FE216F3060407150730F046
S113053082179307A407B50758F005C082179307DD
S1130540A407B507E0F5E816F9060A071B07B8F58E
S11305509C01AD012E193F09400B510B213060E085
S1130560360760E0460762E0560768F180E090E0F5
S1130570A0E0B2E0E80EF91E0A1F1B1FE092C602BB
S1130580F092C7020093C8021093C90280E090E081
S1130590A0E0BEEFE80EF91E0A1F1B1F20503040DA
S11305A0404052402093C2023093C3024093C4029D
S11305B05093C50220E030E040E052E014C020E057
S11305C030E040E050E08093C6029093C702A093CD
S11305D0C802B093C9021092C2021092C3021092D0
S11305E0C4021092C50239014A01B6E0660C771CB8
S11305F0881C991CBA95D1F7A6E0EE0CFF1C001FCD
S1130600111FAA95D1F78091E100A82E8091E200F4
S1130610B82E8091E300C82E8091E400D82EA60164
S113062095012E5F3F4F4F4F5F4FDA01C9018E197D
S11306309F09A00BB10B86159705A805B90530F4E1
S1130640A8019701260D371D481D591D5093F80028
S11306504093F7003093F6002093F50081E08093F7
S1130660E0008091DF0081608093DF008FEF809352
S113067000021F910F91FF90EF90DF90CF90BF90F9
S1130680AF909F908F907F906F9008951F920F92DC
S11306900FB60F9211242F933F934F935F936F9351
S11306A07F938F939F93AF93BF93EF93FF93809127
S11306B0DF008E7F8093DF008FEF809300028091B4
S11306C0C2029091C302A091C402B091C5020097E6
S11306D0A105B10521F487E00E94BA0002C00E947E
S11306E06F02FF91EF91BF91AF919F918F917F9195
S11306F06F915F914F913F912F910F900FBE0F908B
S11307001F9018951F920F920FB60F9211240F90FD
S11307100FBE0F901F9018951F920F920FB60F9255
S113072011240F900FBE0F901F90189584E48093AE
S11307305003E8ECF0E080818F77808380818F7BA9
S11307408083808182608083E9ECF0E080818F7D0A
S1130750808380818B7F8083808180688083808197
S113076080648083808180618083808188608083CD
S1130770EAECF0E080818F77808380818F7B8083B7
S113078080818F7D808380818F7E808380818E7F36
S113079080838081846080838081826080831092E2
S11307A0CD0082E28093CC008FB7F8949927109201
S11307B01F021092CA021092E9111092E8111092CD
S11307C01E0210921D021092CC021092CB021092C3
S11307D0E4111092E3111092DE111092DD111092C7
S11307E07E0210927D028FBF80E090E008950F9307
S11307F01F930FB7F89411276093C6027093C70232
S11308008093C8029093C9022093C2023093C3021A
S11308104093C4025093C5020E946F020FBF1F9100
S11308200F910895982F81568A3110F4975505C079
S1130830892F81548A3120F49753892F9927089559
S1130840892F80538A3018F080E090E0089599272A
S113085008958FB7F894992721E0209380028FBFE1
S11308600E9496039927089581E080936A0210926A
S1130870C1020E94290499270895DF92EF92FF9202
S11308800F931F93D82E7A018B010E94290229E02D
S1130890D29EF0011124EF5AFC4F6083718382834E
S11308A09383E482F5820683178380858E7F82603A
S11308B0808788E00E94BA001F910F91FF90EF900B
S11308C0DF900895EF92FF920F931F93CF93DF93DE
S11308D0FC01EB018FB7F894282F33278091800215
S11308E0882311F42FBF06C02FBFCB01019780349A
S11308F0910518F081E090E033C08FB7F894282F69
S113090033278091CA02882321F02FBF85E090E02D
S113091027C081E08093CA022FBF0FB7F894112734
S113092010E2E12E12E0F12EAB01BF01C7010E94DB
S11309300D0C0FBFF0921E02E0921D02D0937E02B6
S1130940C0937D02809120028093CE0081E090E0EC
S11309509093E4118093E31110924D0380E090E0B2
S1130960DF91CF911F910F91FF90EF9008959F9287
S1130970AF92BF92CF92DF92EF92FF920F931F93A9
S1130980CF93DF93CDB7DEB7E8970FB6F894DEBF09
S11309900FBECDBF5B016C019090590391FE20C046
S11309A020915103309152034091530350915403C9
S11309B0E0905503F09056030091570310915803AB
S11309C0DC01CB01821B930BA40BB50B8E159F0589
S11309D0A007B10728F0E1E5F3E060E070E022C091
S11309E0EAE5F3E09090620391FE21C120915A035D
S11309F030915B0340915C0350915D03E0905E0392
S1130A00F0905F030091600310916103A21AB30A8E
S1130A10C40AD50AAE14BF04C006D10608F407C13F
S1130A2061E070E090FE04C080858D7F808708C0FF
S1130A302E0D3F1D401F511F20833183428353835A
S1130A40662321F0613009F0F2C08BC080916D0201
S1130A5090916E02019690936E0280936D02809144
S1130A606F029091700201969093700280936F02CE
S1130A708091710290917202019690937202809318
S1130A8071028091730290917402019690937402A2
S1130A9080937302809175029091760201969093EF
S1130AA07602809375028091770290917802019684
S1130AB0909378028093770282E090E090936C02A6
S1130AC080936B02DE011196EBE6F2E08EE001907A
S1130AD00D928150E1F7DE011F96FE0131968EE002
S1130AE001900D928150E1F7DE015D96FE013F9683
S1130AF08EE001900D928150E1F7DE019B96FE019C
S1130B007D968EE001900D928150E1F720911602BE
S1130B102F3F09F48CC030911502832F9927880F39
S1130B20991FFC0143E0EE0FFF1F4A95E1F7E81B14
S1130B30F90BE551FC4FDE019B968EE00D9001927E
S1130B408150E1F7832F8F5F809315028F3F11F45B
S1130B50109215022F5F2093160286E00E94BA00BD
S1130B6066C08091630390E190936403836C8093E7
S1130B70630382E090E09093660380936503209181
S1130B80630330916403409165035091660360915F
S1130B901C02862F99278032F0F780911B02E82FE0
S1130BA0FF27EE0FFF1FEE0FFF1FE353FD4F2083C0
S1130BB03183428353838F5F80931B02803211F40D
S1130BC010921B026F5F60931C0286E00E94BA00C1
S1130BD080911202882359F12091E7033091E803B0
S1130BE04091E9035091EA0360911902862F9927F5
S1130BF08032F0F780911802E82FFF27EE0FFF1FD5
S1130C00EE0FFF1FE959FC4F208331834283538346
S1130C108F5F80931802803211F4109218026F5F74
S1130C206093190286E00E94BA001092120288E0D2
S1130C300E94BA00E8960FB6F894DEBF0FBECDBF8F
S1130C40DF91CF911F910F91FF90EF90DF90CF90A4
S1130C50BF90AF909F900895AF92BF92CF92DF92D2
S1130C60EF92FF920F931F93CF93DF93CDB7DEB72D
S1130C70CC55D0400FB6F894DEBF0FBECDBF853043
S1130C8071F1863030F4833071F0843009F05BC444
S1130C901DC0873009F4A1C3873008F4FAC0883036
S1130CA009F051C4CDC31092E9111092E8111092C9
S1130CB0DE111092DD111092CC021092CB028FB78C
S1130CC0F894992710921F028FBF3DC42FB7F89450
S1130CD0332780914E032FBF0E94E10034C4EFB646
S1130CE0F894FF248E01035E1F4F4091EA115527AB
S1130CF061E872E0C8010E940D0C8091EA11080FAE
S1130D00111DF8011082EFBE8D8D8B3509F01BC4C7
S1130D108F8D8A3309F017C48E8D0E941204982F88
S1130D20823039F0833041F0813049F080E090E046
S1130D3010C0E0E2F0E005C0EDE0F0E002C0EFE05A
S1130D40F0E0EC0FFD1F848D8D3509F0FCC3892F75
S1130D509927482F882309F4F6C38FB7F894992765
S1130D602EB134E023272EB98FBF413009F0EBC3F5
S1130D708D8D8B3509F0E7C38E8D0E941204A82E49
S1130D80F1E08F1709F0DFC38F8D8A3309F0DBC3DD
S1130D908BA58D3509F0D7C3B8A0BB2011F0F1E0C5
S1130DA0BF2EC9A0CC2011F0E1E0CE2EDAA0DD20C8
S1130DB011F071E0D72E8BA10E941204F82EFF0CC3
S1130DC0FF0CFF0CFF0C2FE1F2228CA10E941204F5
S1130DD0F82A3FE1F3228DA10E941204E82EEE0CC2
S1130DE0EE0CEE0CEE0C8EA10E941204E82A8FA1E8
S1130DF00E941204082F1127102F00271295107F2C
S1130E0088A50E9412049927982F8827082B192B4C
S1130E108AA50E9412049927082B192B89A50E94E0
S1130E201204992744E0880F991F4A95E1F7802B13
S1130E30912B90937C0280937B02E0927A02FF0CC8
S1130E40FF0CFF0C41E0D422DD0CDD0CC422CC0CE1
S1130E50DF28B422CD28BC28B0927902809179028F
S1130E6090917A02A0917B02B0917C028093E70377
S1130E709093E803A093E903B093EA03A0921202CB
S1130E802FB7F89433278EB198E089278EB92FBFF6
S1130E905AC390E080911602882309F491E09923C3
S1130EA009F052C1809114029927880F991FFC01FF
S1130EB023E0EE0FFF1F2A95E1F7E81BF90BDE0193
S1130EC01F96E551FC4F8EE001900D928150E1F7A1
S1130ED0DE011196FE013F968EE001900D92815045
S1130EE0E1F7CD84DE84E980FA800B851C85698571
S1130EF07A854F8158852D813E81AB81BC818BE5FC
S1130F008D8F809103028E8F8AE38F8FFD01EF2FE7
S1130F10FF27E295EF70EF5FFD4F808188A3EB2FF1
S1130F20FF27EF70F070EF5FFD4F808189A3FD0113
S1130F3084E0F695E7958A95E1F7EF70F070EF5F3E
S1130F40FD4F80818AA3AF70B070AF5FBD4F8C91AD
S1130F508BA3F901EF2FFF27E295EF70EF5FFD4FB1
S1130F6080818CA3E32FFF27EF70F070EF5FFD4FBC
S1130F7080818DA3F90194E0F695E7959A95E1F7C0
S1130F80EF70F070EF5FFD4F80818EA32F70307093
S1130F902F5F3D4FF90180818FA3FA01EF2FFF27C7
S1130FA0E295EF70EF5FFD4F808188A7E52FFF2763
S1130FB0EF70F070EF5FFD4F808189A7FA01A4E024
S1130FC0F695E795AA95E1F7EF70F070EF5FFD4FA6
S1130FD080818AA74F7050704F5F5D4FFA01808106
S1130FE08BA7FB01EF2FFF27E295EF70EF5FFD4F1B
S1130FF080818CA7E72FFF27EF70F070EF5FFD4F24
S113100080818DA7FB0194E0F695E7959A95E1F729
S1131010EF70F070EF5FFD4F80818EA76F7070707E
S11310206F5F7D4FFB0180818FA7F801EF2FFF27B2
S1131030E295EF70EF5FFD4F808188ABE12FFF27D2
S1131040EF70F070EF5FFD4F808189ABF801A4E091
S1131050F695E795AA95E1F7EF70F070EF5FFD4F15
S113106080818AAB0F7010700F5F1D4FF801808173
S11310708BABF701EF2FFF27E295EF70EF5FFD4F8A
S113108080818CABEF2DFF27EF70F070EF5FFD4F89
S113109080818DABF70154E0F695E7955A95E1F719
S11310A0EF70F070EF5FFD4F80818EABFFE0EF22B9
S11310B0FF2421E032E0E20EF31EF70180818FABC2
S11310C0F601EF2FFF27E295EF70E20FF31F808107
S11310D088AFED2DFF27EF70F070E20FF31F8081D2
S11310E089AFF60184E0F695E7958A95E1F7EF700C
S11310F0F070E20FF31F80818AAFFFE0CF22DD247E
S1131100C20ED31EF60180818BAF8DE58CAF1DAE70
S113111060E270E0CE014D960E946204882389F457
S11311208091140290911602992371F08F5F80933D
S113113014028F3F11F410921402915090931602EE
S113114003C086E00E94BA0090E080911C028823CC
S113115009F491E0992309F082C0E0911A02FF2773
S1131160EE0FFF1FEE0FFF1FE353FD4F80819181B0
S1131170A281B381282F26952170482F4170582FC2
S113118052955695569553708BE58D8F8091040238
S11311908E8F8AE38F8FFD01EF2FFF27E295EF708B
S11311A0EF5FFD4F808188A3EB2FFF27EF70F07076
S11311B0EF5FFD4F808189A3FD0164E0F695E7951B
S11311C06A95E1F7EF70F070EF5FFD4F80818AA3BD
S11311D0AF70B070AF5FBD4F8C918BA3E92FE295D8
S11311E0EF70FF27EF5FFD4F80818CA3E92FFF276E
S11311F0EF70F070EF5FFD4F80818DA3E52FFF2727
S1131200EF5FFD4F80818EA355274F5F5D4FFA013D
S113121080818FA333272F5F3D4FF901808188A7F9
S11312208DE589A71AA66DE070E0CE014D960E9467
S11312306204882389F480911A0290911C029923F4
S113124071F08F5F80931A02803211F410921A02A7
S1131250915090931C0203C086E00E94BA0090E073
S113126080911902882309F491E0992309F098C028
S1131270E0911702FF27EE0FFF1FEE0FFF1FE95942
S1131280FC4F80819181A281B3818D01782F769565
S113129076957695482F469546954170282F269544
S11312A0217081706BE56D8F609102026E8F6AE32D
S11312B06F8FE82FFF27EF5FFD4F808188A33327CF
S11312C02F5F3D4FF901808189A355274F5F5D4F03
S11312D0FA0180818AA3A72FBB27FD0184E0F6953C
S11312E0E7958A95E1F7EF5FFD4F80818BA3AF709F
S11312F0B070AF5FBD4F8C918CA3E92FE295EF7076
S1131300FF27EF5FFD4F80818DA3E92FFF27EF704B
S1131310F070EF5FFD4F80818EA3F801EF2FFF2760
S1131320E295EF70EF5FFD4F80818FA3E12FFF27E0
S1131330EF70F070EF5FFD4F808188A7F80174E0D3
S1131340F695E7957A95E1F7EF70F070EF5FFD4F52
S1131350808189A70F7010700F5F1D4FF801808185
S11313608AA78DE58BA71CA66FE070E0CE014D9691
S11313700E946204882389F48091170290911902D3
S1131380992371F08F5F80931702803211F41092C9
S1131390170291509093190203C086E00E94BA008C
S11313A090E080911602882309F491E0992389F052
S11313B090E080911C02882309F491E0992349F07C
S11313C090E080911902882309F491E0992309F0AF
S11313D0BAC086E00E94BA00B6C080917F0288231A
S11313E061F52091DF113091E0114091E1115091AC
S11313F0E211EFB7F894FF276091C6027091C7021B
S11314008091C8029091C902E090C202F090C30298
S11314100091C4021091C5026E0D7F1D801F911FA3
S1131420EFBF2093DF113093E0114093E11150930B
S1131430E21110927F020E94F7030E9429026FC0FA
S11314400E9429025B016C018091DF008E7F8093F2
S1131450DF008FEF809300028091590381FF25C044
S11314608091510390915203A0915303B09154037E
S1131470A6019501281B390B4A0B5B0BE090550321
S1131480F09056030091570310915803E21AF30A9F
S1131490040B150B3FEFE3163FEFF3063FEF030793
S11314A03FE7130711F061E009C06FEFE62E6FEF1D
S11314B0F62E6FEF062F6FE7162F60E08091620320
S11314C081FF24C080915A0390915B03A0915C0337
S11314D0B0915D03A6019501281B390B4A0B5B0BE8
S11314E0DA01C90120915E0330915F0340916003EA
S11314F050916103281B390B4A0B5B0B2E153F05DA
S1131500400751071CF479018A0102C06623D9F00F
S11315101E141F04100611062CF0C601B5010E940A
S1131520B70411C0E092DF11F092E0110093E111D1
S11315301093E21181E080937F02A8019701C60114
S1131540B5010E94F703C45ADF4F0FB6F894DEBF0B
S11315500FBECDBFDF91CF911F910F91FF90EF9000
S1131560DF90CF90BF90AF9008958091E5118F3FA9
S1131570B1F0282F3327F901EF59FD4F8081809373
S1131580E5118F3F11F48093EB118FEF80832F3F90
S113159031F0822F0E942C0681E090E0089580E0D3
S11315A090E008951F931FB7F89414BE88E10FB616
S11315B0F89480936000109260000FBE49E050E000
S11315C06FEF70E081E692E00E94060C8FEF80934B
S11315D0E5118093EB1185B7806885BF85B7806876
S11315E085BF80E8809361008FE08093610091E083
S11315F09093810080E28093B6009093B100AEEFA7
S1131600E0E0F0E06FEF7FEFB0E08091B20088237C
S1131610E1F740918400509185008091B2008034BC
S1131620E1F72091840030918500241B350B62176B
S1131630730708F4B9012E173F0708F4F901CF0125
S1131640861B970B029730F0B0E06FEF7FEFE0E07E
S1131650F0E003C0BF5FB23310F4A150B1F6309391
S1131660E7112093E6111092B1008091B1008093AC
S11316708100809181008093B6008091B600992703
S113168083709070892BC9F78091DF008E7F8093DF
S1131690DF008091DC008E7F8093DC0080E2809309
S11316A0B6008091DC008F7C80638093DC008FEF38
S11316B0809300028091DF0088608093DF000E94A5
S11316C096036A9A6B9A6C9A729A739A749A81E0E6
S11316D085BF809139018260809339010E94B50AE7
S11316E08823E1F70E9429040E9434040E94B50A69
S11316F08823E1F7812F99278FBF789422E030E087
S113170030936603209365038091630390E1909383
S11317106403836C8093630330936C0220936B02A5
S113172010926E0210926D021092700210926F026B
S1131730109272021092710210927402109273024B
S1131740109276021092750210927802109277022B
S11317500E94340448EE53E060E070E080E00E94B0
S11317603D0448E853E160E070E081E00E943D04FC
S11317708FB7F894482F55276FEF2FC08091000240
S113178087FF22C08091DC0085FF03C023E030E0A6
S113179002C025E030E080918002813019F4E0E05D
S11317A0F0E002C0E5E0F0E02E1708F4E22FFF2796
S11317B0E093000283B7FF27E7FDF095E05EFE4F5C
S11317C0E491807F8E2B83BF83B7816083BF78943D
S11317D08895F89483B78E7F83BF8091E5118F3FFE
S11317E069F2282F3327F901EF59FD4F9081909327
S11317F0E5119F3F11F49093EB1160832F3F09F49F
S1131800BDCF4FBF822F0E942C06B2CFDC0101C096
S11318106D9341505040E0F70895FB01DC014150C5
S1131820504048F001900D920020C9F701C01D926C
S10D183041505040E0F70895FFCF47
S113183AFF3031323334353637383961626364659F
S105184A660032
S9030000FC
