:100000000C9493000C94B2000C94B2000C94B200C7
:100010000C94B2000C94B2000C94B2000C94B20098
:100020000C94B2000C94B2000C94B2000C94B20088
:100030000C94B2000C94B2000C94B2000C94B20078
:100040000C94B2000C94B2000C94B2000C94B20068
:100050000C94B2000C94B2000C94B2000C94B20058
:100060000C94B2000C94B2000C94B2000C94B20048
:100070000C94B2000C94B2000C94B2000C94B20038
:100080000C94B2000C94B2000C94B2000C94B20028
:100090000C94E1000C94B2000C943B010C94B2005F
:1000A0000C94B2000C94B2000C94B2000C94B20008
:1000B0000C94B2000C94B2000C94B2000C94B200F8
:1000C0000C94B2000C94B2000C94B2000C94B200E8
:1000D0000C94B2000C94B2000C94B2000C94B200D8
:1000E0000C94B2000C94B2000C94B2000C94B200C8
:1000F0000C94B2000C94B2000C94B2000C94B200B8
:100100000C94B2000C94C5020C9401030C940B03E4
:100110000C9497010C94B2000C94B2000C94B200B1
:1001200000020E060C0411241FBECFEFD1E4DEBF87
:10013000CDBF12E0A0E0B2E0EAEBF3E100E00BBFDC
:1001400002C007900D92A232B107D9F713E0A2E2E4
:10015000B2E001C01D92AC30B107E1F70E941E0869
:100160000C94DC090C9400008FB7F894992708953B
:100170008FBF0895282F9FB7F894E82FFF27E959DC
:10018000FD4F80818F3F81F4E0910B03E21771F402
:100190000BC02093060304C0FF27E959FD4F2083BD
:1001A00020930B0320E007C025E005C080910603E3
:1001B0008F3F91F7EECF892F99278FBF822F9927F5
:1001C00008951F920F920FB60F9211242F933F9311
:1001D0004F935F936F937F938F939F93AF93BF934F
:1001E000EF93FF938091C80087FF34C04091CE0009
:1001F00040932202E0910903F0910A03309701F144
:100200002091CE023091CF028091FE029091FF02A8
:1002100028173907D0F4E20FF31F40838091CE02F4
:100220009091CF0201969093CF028093CE022091BD
:10023000FE023091FF028217930739F483E003C076
:100240004093D10284E00E94BA008091C8008F7769
:100250008093C800FF91EF91BF91AF919F918F91D3
:100260007F916F915F914F913F912F910F900FBEB2
:100270000F901F9018951F920F920FB60F92112496
:100280002F933F934F935F936F937F938F939F939E
:10029000AF93BF93EF93FF93E0912302F091240279
:1002A000309779F1209104033091050380917D020C
:1002B00090917E022817390780F48091C80085FF4D
:1002C000FCCFE20FF31F80818093CE002F5F3F4F62
:1002D000309305032093040314C02817390789F4C9
:1002E00010927E0210927D02109205031092040378
:1002F00010922402109223021092CD0282E00E94FA
:10030000BA008091C8008F7B8093C800FF91EF9165
:10031000BF91AF919F918F917F916F915F914F911D
:100320003F912F910F900FBE0F901F9018951F9225
:100330000F920FB60F9211248F938091D3028F5F8B
:100340008093D3028F910F900FBE0F901F9018953E
:10035000EF92FF920F931F937FB7F8946091D302AF
:100360002091E100822F2091E200922F2091E30062
:10037000A22F2091E400B22F9C01AD018091E000FA
:1003800083FF0FC06F5F8091E100E82E8091E20053
:10039000F82E8091E300082F8091E400182FA80127
:1003A0009701872F99278FBF772788279927FAE109
:1003B000660F771F881F991FFA95D1F7E6E05695CB
:1003C000479537952795EA95D1F7622B732B842BA8
:1003D000952B1F910F91FF90EF9008956F927F9250
:1003E0008F929F92AF92BF92CF92DF92EF92FF9245
:1003F0000F931F930E94A8017B018C012091C902D9
:100400003091CA024091CB025091CC028091C1023E
:100410009091C202A091C302B091C402820F931FB7
:10042000A41FB51FE216F3060407150730F0821764
:100430009307A407B50758F005C082179307A407D0
:10044000B507E0F5E816F9060A071B07B8F59C01A1
:10045000AD012E193F09400B510B213060E03607EA
:1004600060E0460762E0560768F180E090E0A0E0B7
:10047000B2E0E80EF91E0A1F1B1FE092C902F092BB
:10048000CA020093CB021093CC0280E090E0A0E07F
:10049000BEEFE80EF91E0A1F1B1F205030404040DF
:1004A00052402093C1023093C2024093C302509342
:1004B000C40220E030E040E052E014C020E030E030
:1004C00040E050E08093C9029093CA02A093CB020F
:1004D000B093CC021092C1021092C2021092C302D9
:1004E0001092C40239014A01B6E0660C771C881CE0
:1004F000991CBA95D1F7A6E0EE0CFF1C001F111F46
:10050000AA95D1F78091E100A82E8091E200B82E43
:100510008091E300C82E8091E400D82EA6019501B9
:100520002E5F3F4F4F4F5F4FDA01C9018E199F0970
:10053000A00BB10B86159705A805B90530F4A801E5
:100540009701260D371D481D591D5093F800409303
:10055000F7003093F6002093F50081E08093E000EF
:100560008091DF0081608093DF008FEF8093000235
:100570001F910F91FF90EF90DF90CF90BF90AF90C1
:100580009F908F907F906F9008951F920F920FB65B
:100590000F9211242F933F934F935F936F937F9309
:1005A0008F939F93AF93BF93EF93FF938091DF005F
:1005B0008E7F8093DF008FEF809300028091C102D5
:1005C0009091C202A091C302B091C4020097A1050C
:1005D000B10521F486E00E94BA0002C00E94EE013B
:1005E000FF91EF91BF91AF919F918F917F916F910B
:1005F0005F914F913F912F910F900FBE0F901F90E1
:1006000018951F920F920FB60F9211240F900FBEE4
:100610000F901F9018951F920F920FB60F921124F2
:100620000F900FBE0F901F901895CF93DF93AC01E2
:10063000DB018BE58C9380910202EB0189838AE3D5
:100640008A83FA018081817021E032E0F901E80FAC
:10065000F11D80818B83EA01888186958170F90183
:10066000E80FF11D8081FB01848388818695869542
:100670008170F901E80FF11D8081EB018D83EA01A2
:10068000E881E695E695E695FF2774E0F695E7950F
:100690007A95E1F7E20FF31F8081FD01868388815F
:1006A0008695869586958F70F901E80FF11D8081FA
:1006B000ED018F83FA01818182958F70F901E80F36
:1006C000F11D80818887EA0189818F70F901E80F27
:1006D000F11D8081FD018187EA81FB81EF2FFF27DA
:1006E000E295EF70E20FF31F8081ED018A87EA0146
:1006F000EA81FB81EF2FFF27EF70F070E20FF31F0D
:100700008081FD018387EA81FB8184E0F695E7958E
:100710008A95E1F7EF70F070E20FF31F8081ED0131
:100720008C87EA01EA81FB81EF70F070E20FF31F22
:100730008081FD0185878DE5868717868FE090E0B3
:10074000DF91CF9108950F931F930FB7F89411275E
:100750006093C9027093CA028093CB029093CC023B
:100760002093C1023093C2024093C3025093C4024B
:100770000E94EE010FBF1F910F910895982F81568F
:100780008A3110F4975505C0892F81548A3120F49D
:100790009753892F99270895892F80538A3018F00D
:1007A00080E090E0089599270895982F8FB7F894E6
:1007B000282F33278091CD02882321F02FBF85E099
:1007C00090E0089581E08093CD022FBF8091C80012
:1007D0008F7B8093C8008091C9008F7B8093C90074
:1007E0009093CE008091C80080648093C80080916F
:1007F000C80086FFFCCF8091C8008F7B8093C80023
:100800008091C80080648093C8008091C900806492
:100810008093C9008FB7F89499271092CD028FBFAB
:1008200080E090E00895FF920F931F93CF93DF93A2
:10083000CDB7DEB7C054D0400FB6F894DEBF0FBEC0
:10084000CDBF8C01562F569556955695262F269539
:1008500026952170A62FA695A17061704BE549835E
:10086000409112024A834AE34B83E62FFF27EF5E53
:10087000FD4F80818C83BB27AF5EBD4F8C918D83F4
:1008800033272F5E3D4FF90180818E83A52FBB2733
:10089000FD0194E0F695E7959A95E1F7EF5EFD4F3F
:1008A00080818F83AF70B070AF5EBD4F8C918887B1
:1008B000E72FE295EF70FF27EF5EFD4F808189877C
:1008C000E72FFF27EF70F070EF5EFD4F80818A8782
:1008D000F801EF2FFF27E295EF70EF5EFD4F80816B
:1008E0008B87E12FFF27EF70F070EF5EFD4F808167
:1008F0008C87F801A4E0F695E795AA95E1F7EF70EB
:10090000F070EF5EFD4F80818D870F7010700F5E6D
:100910001D4FF80180818E878DE58F87188A8CE7BF
:100920000E94D5038E010F5F1F4FF80181918F0147
:100930000E94D503CE01409608171907B1F78CE73E
:100940000E94D5038AE00E94D503C05CDF4F0FB63A
:10095000F894DEBF0FBECDBFDF91CF911F910F91F5
:10096000FF900895EF92FF920F931F93CF93DF9321
:10097000FC01EB01CB0101978034910518F081E077
:1009800090E033C08FB7F894282F33278091CD02A1
:10099000882321F02FBF85E090E027C081E080937D
:1009A000CD022FBF0FB7F894112726E2E22E22E0E6
:1009B000F22EAB01BF01C7010E94CD090FBFF0921B
:1009C0002402E0922302D0937E02C0937D028091A4
:1009D00026028093CE0081E090E0909305038093FF
:1009E00004031092D00280E090E0DF91CF911F913C
:1009F0000F91FF90EF9008958F929F92AF92BF92C8
:100A0000CF92DF92EF92FF920F931F93CF93DF93DA
:100A1000CDB7DEB7CE56D0400FB6F894DEBF0FBECE
:100A2000CDBF5B016C0188249924E5EDF2E060857F
:100A300061FFAFC02081318142815381E480F58024
:100A400006811781D601C501821B930BA40BB50B40
:100A50008E159F05A007B10708F49BC060FF03C077
:100A60006D7F608708C02E0D3F1D401F511F2083E2
:100A700031834283538382E0881629F083E088160D
:100A800009F090C05EC0809171029091720201964F
:100A9000909372028093710280917302909174021C
:100AA00001969093740280937302809175029091E5
:100AB0007602019690937602809375028091770278
:100AC00090917802019690937802809377028091BA
:100AD000790290917A02019690937A02809379023A
:100AE00080917B0290917C02019690937C0280938E
:100AF0007B0282E090E09093700280936F02DE01AF
:100B00001596EFE6F2E08EE001900D928150E1F74C
:100B1000DE015396FE0135968EE001900D928150D4
:100B2000E1F7DE019196FE0173968EE001900D9241
:100B30008150E1F78E01015D1F4FB801CE01819612
:100B400020C08091F90290E19093FA02836C809327
:100B5000F90282E090E09093FC028093FB02809186
:100B6000F9029091FA02A091FB02B091FC028983F4
:100B70009A83AB83BC838E01015D1F4FB801CE0108
:100B800001960E9415039927BC01C8010E94B20476
:100B900009C00894811C911C399684E08816910440
:100BA00009F045CF87E00E94BA00C259DF4F0FB667
:100BB000F894DEBF0FBECDBFDF91CF911F910F9193
:100BC000FF90EF90DF90CF90BF90AF909F908F906D
:100BD00008958F929F92AF92BF92CF92DF92EF9241
:100BE000FF920F931F93CF93DF93CDB7DEB7C0541F
:100BF000D0400FB6F894DEBF0FBECDBF853009F4EC
:100C00006EC0863030F4833059F0843009F0A8C1CA
:100C10001AC0863009F41FC1873009F0A1C14EC146
:100C200010920A03109209031092FF021092FE0222
:100C30001092CF021092CE028FB7F894992710929B
:100C400025028FBF8DC10091D102802F0E94D50354
:100C50000B35A1F4109280022FB7F89433278091BE
:100C60008002E82FFF27EF57FD4F00838F5F8093AF
:100C700080022FBF81E08093D20272C18091D202A4
:100C80000D35D9F4882309F46BC18FB7F8949927EF
:100C9000A0918002EA2FFF27EF57FD4F0083AF5F3F
:100CA000A0938002BB27AF57BD4F1C928FBF1092FD
:100CB000D20285E00E94BA0053C1882309F450C1D2
:100CC0002FB7F894332780918002E82FFF27EF5742
:100CD000FD4F00838F5F809380022FBF41C10FB70C
:100CE000F894112740918002552761E872E0CE0107
:100CF00001960E94CD090FBF89818B3509F030C163
:100D00008B818A3309F02CC18A810E94BE03982FFF
:100D1000823039F0833041F0813049F080E090E05A
:100D200010C0E0E2F0E005C0EDE0F0E002C0EFE06E
:100D3000F0E0EC0FFD1F80818D3509F011C1892F86
:100D40009927482F882309F40BC18FB7F894992766
:100D50002EB138E023272EB98FBF413009F000C1F2
:100D600089818B3509F0FCC08A810E94BE038130E5
:100D700009F0F6C08B818A3309F0F2C08F858D357A
:100D800009F0EEC0BC8071E0E72EBE20DD80DE20E1
:100D9000EE8061E0F62EEF208F810E94BE03F82ED8
:100DA000FF0CFF0CFF0CFF0C0FE1F02288850E9466
:100DB000BE03F82AF02289850E94BE03C82ECC0CFF
:100DC000CC0CCC0CCC0C8A850E94BE03C82A8B8527
:100DD0000E94BE03082F1127102F00271295107FA5
:100DE0008C850E94BE039927982F8827082B192BE2
:100DF0008E850E94BE039927082B192B8D850E9492
:100E0000BE03992734E0880F991F3A95E1F7802BAC
:100E1000912B9093C8028093C702C092C602FF0C28
:100E2000FF0CFF0CEE0CEE0CDD0CEF28DE28BD28CD
:100E3000B092C502E090C502F090C6020091C702D0
:100E40001091C802C801B7010E941304C801B7017C
:100E50000E94130485C080917F02882361F5209150
:100E60000003309101034091020350910303EFB757
:100E7000F894FF276091C9027091CA028091CB0259
:100E80009091CC02E090C102F090C2020091C302A6
:100E90001091C4026E0D7F1D801F911FEFBF209324
:100EA0000003309301034093020350930303109215
:100EB0007F020E94A3030E94A80140C00E94A801D3
:100EC0004B015C018091DF008E7F8093DF008FEF0C
:100ED000809300022FEF3FEF4FEF5FE760E0E5ED1B
:100EE000F2E0808581FF1CC080819181A281B38165
:100EF00085017401E81AF90A0A0B1B0BD801C70116
:100F0000C480D580E680F780C81AD90AEA0AFB0AAD
:100F1000C216D306E406F5061CF4A701960161E0AB
:100F2000399602E0E93FF007E1F66623C9F01216B0
:100F30001306140615062CF0C501B4010E94FC042A
:100F40000FC020930003309301034093020350939A
:100F5000030381E080937F02C501B4010E94A303D3
:100F6000C05CDF4F0FB6F894DEBF0FBECDBFDF9180
:100F7000CF911F910F91FF90EF90DF90CF90BF9096
:100F8000AF909F908F900895809106038F3FB1F0AE
:100F9000282F3327F901E959FD4F808180930603FB
:100FA0008F3F11F480930B038FEF80832F3F31F03D
:100FB000822F0E94E90581E090E0089580E090E0B2
:100FC0000895EF920F931F93AE2D99E0899FF00142
:100FD0001124EB52FD4F408351836283738304835A
:100FE000158326833783A17080858E7F8A2B82604C
:100FF000808787E00E94BA001F910F91EF900895BB
:10100000AF92BF92CF92DF92EF92FF920F931F9316
:10101000F82E5A016B010E94A801AB01BC01EE241D
:10102000960185018F2D0E94E1071F910F91FF907E
:10103000EF90DF90CF90BF90AF900895EF92FF9226
:101040000F931F931FB7F89414BE88E10FB6F8945E
:1010500080936000109260000FBE48E050E06FEF98
:1010600070E087E692E00E94C6098FEF8093060346
:1010700080930B0385B7806885BF85B7806885BF7F
:1010800080E8809361008FE08093610091E090930D
:10109000810080E28093B6009093B100AEEFE0E073
:1010A000F0E06FEF7FEFB0E08091B2008823E1F7CE
:1010B00040918400509185008091B2008034E1F726
:1010C0002091840030918500241B350B6217730733
:1010D00008F4B9012E173F0708F4F901CF01861B68
:1010E000970B029730F0B0E06FEF7FEFE0E0F0E0B9
:1010F00003C0BF5FB23310F4A150B1F630930803C0
:10110000209307031092B1008091B1008093810079
:10111000809181008093B6008091B60099278370FA
:101120009070892BC9F78091DF008E7F8093DF005C
:101130008091DC008E7F8093DC0080E28093B6009B
:101140008091DC008F7C80638093DC008FEF809344
:1011500000028091DF0088608093DF0084E4809348
:10116000D4028091C8008F778093C8008091C80016
:101170008F7B8093C8008091C80082608093C800F4
:101180008091C9008F7D8093C9008091C9008B7FB9
:101190008093C9008091C90080688093C9008091C4
:1011A000C90080648093C9008091C90080618093E8
:1011B000C9008091C90088608093C9008091CA00ED
:1011C0008F778093CA008091CA008F7B8093CA007A
:1011D0008091CA008F7D8093CA008091CA008F7E63
:1011E0008093CA008091CA008E7F8093CA0080914C
:1011F000CA0084608093CA008091CA008260809394
:10120000CA001092CD0082E28093CC001092250299
:101210001092CD0210920A03109209031092240238
:10122000109223021092CF021092CE021092050368
:10123000109204031092FF021092FE0210927E029E
:1012400010927D026A9A6B9A6C9A729A739A749A47
:1012500081E085BF809139018260809339010E94CD
:10126000C4078823E1F70E94C4078823E1F7812F90
:1012700099278FBF7894E1E0FE2EF092FD02109244
:10128000D20248EE53E060E070E080E00E94000887
:10129000EE2408EE13E020E030E044EF51E060E09F
:1012A00070E081E00E94E10722E030E03093FC0230
:1012B0002093FB028091F90290E19093FA02836CF3
:1012C0008093F9023093700220936F0210927202A1
:1012D00010927102109274021092730210927602B0
:1012E00010927502109278021092770210927A0290
:1012F0001092790210927C0210927B02F092FD0211
:101300001092D20248EE53E060E070E082E00E946A
:10131000000840E157E260E070E083E00E940008CE
:101320008FB7F894482F55277FEFE0E2F1E0649102
:1013300015C08091000287FF08C08091DC001092E8
:10134000000283B7807F862B83BF83B7816083BF12
:1013500078948895F89483B78E7F83BF8091060335
:101360008F3F39F3282F3327F901E959FD4F908139
:10137000909306039F3F11F490930B0370832F3FCC
:10138000C1F24FBF822F0E94E905CACFDC0101C024
:101390006D9341505040E0F70895FB01DC0141504E
:1013A000504048F001900D920020C9F701C01D92F5
:0A13B00041505040E0F70895FFCFD0
:1013BA00FF30313233343536373839616263646528
:1013CA0066303132333435363738396162636465B1
:0213DA006600AB
:00000001FF
