:100000000C9493000C94B2000C94B2000C94B200C7
:100010000C94B2000C94B2000C94B2000C94B20098
:100020000C94B2000C94B2000C94B2000C94B20088
:100030000C94B2000C94B2000C94B2000C94B20078
:100040000C94B2000C94B2000C94B2000C94B20068
:100050000C94B2000C94B2000C94B2000C94B20058
:100060000C94B2000C94B2000C94B2000C94B20048
:100070000C94B2000C94B2000C94B2000C94B20038
:100080000C94B2000C94B2000C94B2000C94B20028
:100090000C94E1000C94B2000C943B010C94B2005F
:1000A0000C94B2000C94B2000C94B2000C94B20008
:1000B0000C94B2000C94B2000C94B2000C94B200F8
:1000C0000C94B2000C94B2000C94B2000C94B200E8
:1000D0000C94B2000C94B2000C94B2000C94B200D8
:1000E0000C94B2000C94B2000C94B2000C94B200C8
:1000F0000C94B2000C94B2000C94B2000C94B200B8
:100100000C94B2000C94C5020C9401030C940B03E4
:100110000C9497010C94B2000C94B2000C94B200B1
:1001200000020E060C0411241FBECFEFD1E4DEBF87
:10013000CDBF12E0A0E0B2E0E6E4F0E100E00BBFEA
:1001400002C007900D92A431B107D9F712E0A4E1E3
:10015000B2E001C01D92A53AB107E1F70E9479060D
:100160000C9422080C9400008FB7F89499270895F6
:100170008FBF0895282F9FB7F894E82FFF27E459E1
:10018000FD4F80818F3F81F4E091A402E21771F46A
:100190000BC020939F0204C0FF27E459FD4F20832A
:1001A0002093A40220E007C025E005C080919F02B3
:1001B0008F3F91F7EECF892F99278FBF822F9927F5
:1001C00008951F920F920FB60F9211242F933F9311
:1001D0004F935F936F937F938F939F93AF93BF934F
:1001E000EF93FF938091C80087FF34C04091CE0009
:1001F00040931402E091A202F091A302309701F122
:1002000020917F0230918002809197029091980214
:1002100028173907D0F4E20FF31F408380917F0243
:100220009091800201969093800280937F022091AA
:100230009702309198028217930739F483E003C044
:100240004093820284E00E94BA008091C8008F77B8
:100250008093C800FF91EF91BF91AF919F918F91D3
:100260007F916F915F914F913F912F910F900FBEB2
:100270000F901F9018951F920F920FB60F92112496
:100280002F933F934F935F936F937F938F939F939E
:10029000AF93BF93EF93FF93E0912802F09129026F
:1002A000309779F120919D0230919E0280917302E6
:1002B000909174022817390780F48091C80085FF57
:1002C000FCCFE20FF31F80818093CE002F5F3F4F62
:1002D00030939E0220939D0214C02817390789F499
:1002E000109274021092730210929E0210929D025C
:1002F000109229021092280210927E0282E00E943F
:10030000BA008091C8008F7B8093C800FF91EF9165
:10031000BF91AF919F918F917F916F915F914F911D
:100320003F912F910F900FBE0F901F9018951F9225
:100330000F920FB60F9211248F93809183028F5FDB
:10034000809383028F910F900FBE0F901F9018958E
:10035000EF92FF920F931F937FB7F89460918302FF
:100360002091E100822F2091E200922F2091E30062
:10037000A22F2091E400B22F9C01AD018091E000FA
:1003800083FF0FC06F5F8091E100E82E8091E20053
:10039000F82E8091E300082F8091E400182FA80127
:1003A0009701872F99278FBF772788279927FAE109
:1003B000660F771F881F991FFA95D1F7E6E05695CB
:1003C000479537952795EA95D1F7622B732B842BA8
:1003D000952B1F910F91FF90EF9008956F927F9250
:1003E0008F929F92AF92BF92CF92DF92EF92FF9245
:1003F0000F931F930E94A8017B018C0120917A0228
:1004000030917B0240917C0250917D028091760276
:1004100090917702A0917802B0917902820F931F98
:10042000A41FB51FE216F3060407150730F0821764
:100430009307A407B50758F005C082179307A407D0
:10044000B507E0F5E816F9060A071B07B8F59C01A1
:10045000AD012E193F09400B510B213060E03607EA
:1004600060E0460762E0560768F180E090E0A0E0B7
:10047000B2E0E80EF91E0A1F1B1FE0927A02F0920A
:100480007B0200937C0210937D0280E090E0A0E06C
:10049000BEEFE80EF91E0A1F1B1F205030404040DF
:1004A0005240209376023093770240937802509323
:1004B000790220E030E040E052E014C020E030E07B
:1004C00040E050E080937A0290937B02A0937C02FC
:1004D000B0937D0210927602109277021092780209
:1004E0001092790239014A01B6E0660C771C881C2B
:1004F000991CBA95D1F7A6E0EE0CFF1C001F111F46
:10050000AA95D1F78091E100A82E8091E200B82E43
:100510008091E300C82E8091E400D82EA6019501B9
:100520002E5F3F4F4F4F5F4FDA01C9018E199F0970
:10053000A00BB10B86159705A805B90530F4A801E5
:100540009701260D371D481D591D5093F800409303
:10055000F7003093F6002093F50081E08093E000EF
:100560008091DF0081608093DF008FEF8093000235
:100570001F910F91FF90EF90DF90CF90BF90AF90C1
:100580009F908F907F906F9008951F920F920FB65B
:100590000F9211242F933F934F935F936F937F9309
:1005A0008F939F93AF93BF93EF93FF938091DF005F
:1005B0008E7F8093DF008FEF809300028091760220
:1005C00090917702A0917802B09179020097A105ED
:1005D000B10521F485E00E94BA0002C00E94EE013C
:1005E000FF91EF91BF91AF919F918F917F916F910B
:1005F0005F914F913F912F910F900FBE0F901F90E1
:1006000018951F920F920FB60F9211240F900FBEE4
:100610000F901F9018951F920F920FB60F921124F2
:100620000F900FBE0F901F901895CF93DF939C01F2
:10063000EB018BE58883E42FFF27EF5FFD4F80817F
:1006400089838AE38A83413051F0413020F042307F
:1006500041F0433011F484E005C080E003C08CE039
:1006600001C089E043E0B901680F711D1DC0AC0FE6
:10067000BD1FF901808182958F70E82FFF27EF5F02
:10068000FD4F80818C93DE01A90FB11DF90181918D
:100690009F01E82FFF27E7FDF095EF70F070EF5F07
:1006A000FD4F80818C934E5FA42FBB27942F9F5FBB
:1006B00026173707E0F2AC0FBD1F8DE58C93C90FED
:1006C000D11D18829F5F892F99270197DF91CF91C4
:1006D00008950F931F930FB7F894112760937A0230
:1006E00070937B0280937C0290937D02209376022C
:1006F0003093770240937802509379020E94EE0182
:100700000FBF1F910F9108959FB7F894282F33279B
:1007100020FF02C0729801C0729A21FF02C0739834
:1007200001C0739A22FF02C0749801C0749A892F85
:1007300099278FBF0895982F81568A3110F49755C5
:1007400005C0892F81548A3130F49753892F992716
:1007500087FD90950895892F80538A3018F080E0A6
:1007600090E00895992787FD90950895EF92FF9264
:100770000F931F93CF93DF93FC01EB01CB01019704
:100780008034910518F081E090E033C08FB7F89481
:10079000282F332780917E02882321F02FBF85E008
:1007A00090E027C081E080937E022FBF0FB7F894BE
:1007B00011271BE2E12E12E0F12EAB01BF01C701B0
:1007C0000E9413080FBFF0922902E0922802D093F2
:1007D0007402C093730280912B028093CE0081E05B
:1007E00090E090939E0280939D021092810280E09F
:1007F00090E0DF91CF911F910F91FF90EF900895BE
:100800009F92AF92BF92CF92DF92EF92FF920F939F
:100810001F93CF93DF93CDB7DEB7A0970FB6F894B1
:10082000DEBF0FBECDBF5B016C0190908D0291FECB
:1008300020C020918502309186024091870250911C
:100840008802E0908902F0908A0200918B02109158
:100850008C02DC01CB01821B930BA40BB50B8E1514
:100860009F05A007B10728F0E5E8F2E060E070E03E
:1008700022C0EEE8F2E09090960291FE5BC02091DB
:100880008E0230918F024091900250919102E0903F
:100890009202F09093020091940210919502A21A94
:1008A000B30AC40AD50AAE14BF04C006D10608F4C0
:1008B00041C061E070E090FE04C080858D7F80873C
:1008C00008C02E0D3F1D401F511F208331834283DE
:1008D0005383662319F0613069F50FC08E010F5FF5
:1008E0001F4F41E0B8018CE192E00E941503992767
:1008F000BC01C8010E94B6031DC00FB7F8941127B0
:100900007E010894E11CF11C40E0B70188E192E00F
:100910000E9415030FBF9927BC01C7010E94B603AF
:10092000813041F48FB7F89499272EB134E0232712
:100930002EB98FBF86E00E94BA00A0960FB6F89439
:10094000DEBF0FBECDBFDF91CF911F910F91FF9002
:10095000EF90DF90CF90BF90AF909F900895AF92AF
:10096000BF92CF92DF92EF92FF920F931F93CF939C
:10097000DF93CDB7DEB7C054D0400FB6F894DEBFDA
:100980000FBECDBF843001F1853020F4833009F0F3
:1009900081C107C0853009F4C7C0863009F07AC12B
:1009A000F6C01092A3021092A20210929802109226
:1009B00097021092800210927F028FB7F8949927C5
:1009C00010922A028FBF66C1409182028FB7F894BD
:1009D000282F332780917E02882311F02FBF2EC04D
:1009E00081E080937E022FBF8091C8008F7B80932F
:1009F000C8008091C9008F7B8093C9004093CE00CE
:100A00008091C80080648093C8008091C80086FFF0
:100A1000FCCF8091C8008F7B8093C8008091C80074
:100A200080648093C8008091C90080648093C9006D
:100A30008FB7F894992710927E028FBF4B3579F4C7
:100A400088E192E0909313028093120210921502B3
:100A500080E00E94840381E0809316024DC04D35F2
:100A600061F480911502843019F481E080931702BB
:100A700010921602109215023FC080911602882330
:100A8000D9F180911102E09015022091120230916B
:100A900013028823A1F00E2D112707FD1095020FD8
:100AA000131F842F0E949B03992787FD909524E0B4
:100AB000880F991F2A95E1F7F801808311C00E2D48
:100AC000112707FD1095020F131FF801F080842FE6
:100AD0000E949B03F82AF801F082E394E092150249
:100AE00090E080911102882309F491E09093110223
:100AF000809115020E94840380911702882309F4D3
:100B0000C9C040E08E010F5F1F4FB80188E192E03D
:100B10000E941503992787FD9095BC01C8010E948A
:100B2000B60310921702B6C080917502882361F552
:100B30002091990230919A0240919B0250919C021F
:100B4000EFB7F894FF2760917A0270917B02809151
:100B50007C0290917D02E0907602F0907702009105
:100B60007802109179026E0D7F1D801F911FEFBFDB
:100B70002093990230939A0240939B0250939C02D7
:100B8000109275020E9469030E94A8016FC00E9422
:100B9000A8015B016C018091DF008E7F8093DF00F4
:100BA0008FEF8093000280918D0281FF25C080919C
:100BB000850290918602A0918702B0918802A601D9
:100BC0009501281B390B4A0B5B0BE0908902F090D2
:100BD0008A0200918B0210918C02E21AF30A040B34
:100BE000150B3FEFE3163FEFF3063FEF03073FE739
:100BF000130711F061E009C00FEFE02E0FEFF02EA8
:100C00000FEF002F0FE7102F60E08091960281FF19
:100C100024C080918E0290918F02A0919002B09199
:100C20009102A6019501281B390B4A0B5B0BDA01D7
:100C3000C901209192023091930240919402509107
:100C40009502281B390B4A0B5B0B2E153F054007FD
:100C500051071CF479018A0102C06623D9F01E14E1
:100C60001F04100611062CF0C601B5010E940004F5
:100C700011C0E0929902F0929A0200939B021093A5
:100C80009C0281E080937502A8019701C601B5011D
:100C90000E946903C05CDF4F0FB6F894DEBF0FBE41
:100CA000CDBFDF91CF911F910F91FF90EF90DF901B
:100CB000CF90BF90AF90089580919F028F3FB1F089
:100CC000282F3327F901E459FD4F808180939F023B
:100CD0008F3F11F48093A4028FEF80832F3F31F078
:100CE000822F0E94AF0481E090E0089580E090E0C0
:100CF00008951F931FB7F89414BE88E10FB6F894B7
:100D000080936000109260000FBE47E050E06FEFEC
:100D100070E08CE692E00E940C088FEF80939F02B7
:100D20008093A40285B7806885BF85B7806885BF3A
:100D300080E8809361008FE08093610091E0909360
:100D4000810080E28093B6009093B100AEEFE0E0C6
:100D5000F0E06FEF7FEFB0E08091B2008823E1F721
:100D600040918400509185008091B2008034E1F779
:100D70002091840030918500241B350B6217730786
:100D800008F4B9012E173F0708F4F901CF01861BBB
:100D9000970B029730F0B0E06FEF7FEFE0E0F0E00C
:100DA00003C0BF5FB23310F4A150B1F63093A1027B
:100DB0002093A0021092B1008091B1008093810035
:100DC000809181008093B6008091B600992783704E
:100DD0009070892BC9F78091DF008E7F8093DF00B0
:100DE0008091DC008E7F8093DC0080E28093B600EF
:100DF0008091DC008F7C80638093DC008FEF809398
:100E000000028091DF0088608093DF0084E480939B
:100E100084028091C8008F778093C8008091C800B9
:100E20008F7B8093C8008091C80082608093C80047
:100E30008091C9008F7D8093C9008091C9008B7F0C
:100E40008093C9008091C90080688093C900809117
:100E5000C90080648093C9008091C900806180933B
:100E6000C9008091C90088608093C9008091CA0040
:100E70008F778093CA008091CA008F7B8093CA00CD
:100E80008091CA008F7D8093CA008091CA008F7EB6
:100E90008093CA008091CA008E7F8093CA0080919F
:100EA000CA0084608093CA008091CA0082608093E7
:100EB000CA001092CD0082E28093CC0010922A02E8
:100EC00010927E021092A3021092A20210922902A6
:100ED000109228021092800210927F0210929E02BD
:100EE00010929D0210929802109297021092740232
:100EF000109273026A9A6B9A6C9A729A739A749AA5
:100F000081E085BF809139018260809339010E9420
:100F10005C068823E1F70E945C068823E1F7812FB5
:100F200099278FBF789410921B0210921A02109288
:100F30001802109219028FEF90E090931F02809395
:100F40001E029093210280932002909323028093AB
:100F5000220290932502809324029093270280938B
:100F600026028FEF9FEF90931D0280931C020E9438
:100F7000A801609385027093860280938702909304
:100F8000880288EE93E0A0E0B0E08093890290931D
:100F90008A02A0938B02B0938C0280918D028E7F87
:100FA000826080938D0286E00E94BA008FB7F89429
:100FB000482F55277FEFE0E2F1E0649115C0809162
:100FC000000287FF08C08091DC001092000283B706
:100FD000807F862B83BF83B7816083BF7894889599
:100FE000F89483B78E7F83BF80919F028F3F39F340
:100FF000282F3327F901E459FD4F908190939F02E8
:101000009F3F11F49093A40270832F3FC1F24FBF12
:10101000822F0E94AF04CACFDC0101C06D93415002
:101020005040E0F70895FB01DC014150504048F08A
:1010300001900D920020C9F701C01D92415050400F
:06104000E0F70895FFCF68
:10104600FF3031323334353637383961626364659F
:041056006601180215
:00000001FF
