S01D00006275696C642F726362313238726661312F6D61696E2E73726563B8
S11300000C9493000C94B2000C94B2000C94B200C3
S11300100C94B2000C94B2000C94B2000C94B20094
S11300200C94B2000C94B2000C94B2000C94B20084
S11300300C94B2000C94B2000C94B2000C94B20074
S11300400C94B2000C94B2000C94B2000C94B20064
S11300500C94B2000C94B2000C94B2000C94B20054
S11300600C94B2000C94B2000C94B2000C94B20044
S11300700C94B2000C94B2000C94B2000C94B20034
S11300800C94B2000C94B2000C94B2000C94B20024
S11300900C94E1000C94B2000C943B010C94B2005B
S11300A00C94B2000C94B2000C94B2000C94B20004
S11300B00C94B2000C94B2000C94B2000C94B200F4
S11300C00C94B2000C94B2000C94B2000C94B200E4
S11300D00C94B2000C94B2000C94B2000C94B200D4
S11300E00C94B2000C94B2000C94B2000C94B200C4
S11300F00C94B2000C94B2000C94B2000C94B200B4
S11301000C94B2000C94C5020C9401030C940B03E0
S11301100C9497010C94B2000C94B2000C94B200AD
S113012000020E060C0411241FBECFEFD1E4DEBF83
S1130130CDBF12E0A0E0B2E0E8E1F9E100E00BBFDE
S113014002C007900D92A232B107D9F712E1A2E2E0
S1130150B2E001C01D92A830B107E1F70E94890AFC
S11301600C948B0C0C9400008FB7F8949927089585
S11301708FBF0895282F9FB7F894E82FFF27E159E0
S1130180FD4F80818F3F81F4E0910712E21771F4F3
S11301900BC02093021204C0FF27E159FD4F2083B6
S11301A02093071220E007C025E005C080910212C9
S11301B08F3F91F7EECF892F99278FBF822F9927F1
S11301C008951F920F920FB60F9211242F933F930D
S11301D04F935F936F937F938F939F93AF93BF934B
S11301E0EF93FF938091C80087FF34C04091CE0005
S11301F040932202E0910512F0910612309701F12A
S11302002091D8023091D9028091FA119091FB117A
S113021028173907D0F4E20FF31F40838091D802E6
S11302209091D90201969093D9028093D80220919B
S1130230FA113091FB118217930739F483E003C05C
S113024040935B0384E00E94BA008091C8008F77DA
S11302508093C800FF91EF91BF91AF919F918F91CF
S11302607F916F915F914F913F912F910F900FBEAE
S11302700F901F9018951F920F920FB60F92112492
S11302802F933F934F935F936F937F938F939F939A
S1130290AF93BF93EF93FF93E0912B02F0912C0265
S11302A0309779F1209100123091011280918602E9
S11302B0909187022817390780F48091C80085FF40
S11302C0FCCFE20FF31F80818093CE002F5F3F4F5E
S11302D0309301122093001214C02817390789F4AF
S11302E0109287021092860210920112109200124C
S11302F010922C0210922B021092D70282E00E94DC
S1130300BA008091C8008F7B8093C800FF91EF9161
S1130310BF91AF919F918F917F916F915F914F9119
S11303203F912F910F900FBE0F901F9018951F9221
S11303300F920FB60F9211248F9380915D038F5FFC
S113034080935D038F910F900FBE0F901F901895AF
S1130350EF92FF920F931F937FB7F89460915D0320
S11303602091E100822F2091E200922F2091E3005E
S1130370A22F2091E400B22F9C01AD018091E000F6
S113038083FF0FC06F5F8091E100E82E8091E2004F
S1130390F82E8091E300082F8091E400182FA80123
S11303A09701872F99278FBF772788279927FAE105
S11303B0660F771F881F991FFA95D1F7E6E05695C7
S11303C0479537952795EA95D1F7622B732B842BA4
S11303D0952B1F910F91FF90EF9008956F927F924C
S11303E08F929F92AF92BF92CF92DF92EF92FF9241
S11303F00F931F930E94A8017B018C012091D302CB
S11304003091D4024091D5025091D6028091CB0212
S11304109091CC02A091CD02B091CE02820F931F95
S1130420A41FB51FE216F3060407150730F0821760
S11304309307A407B50758F005C082179307A407CC
S1130440B507E0F5E816F9060A071B07B8F59C019D
S1130450AD012E193F09400B510B213060E03607E6
S113046060E0460762E0560768F180E090E0A0E0B3
S1130470B2E0E80EF91E0A1F1B1FE092D302F092AD
S1130480D4020093D5021093D60280E090E0A0E05D
S1130490BEEFE80EF91E0A1F1B1F205030404040DB
S11304A052402093CB023093CC024093CD02509320
S11304B0CE0220E030E040E052E014C020E030E022
S11304C040E050E08093D3029093D402A093D502ED
S11304D0B093D6021092CB021092CC021092CD02AD
S11304E01092CE0239014A01B6E0660C771C881CD2
S11304F0991CBA95D1F7A6E0EE0CFF1C001F111F42
S1130500AA95D1F78091E100A82E8091E200B82E3F
S11305108091E300C82E8091E400D82EA6019501B5
S11305202E5F3F4F4F4F5F4FDA01C9018E199F096C
S1130530A00BB10B86159705A805B90530F4A801E1
S11305409701260D371D481D591D5093F8004093FF
S1130550F7003093F6002093F50081E08093E000EB
S11305608091DF0081608093DF008FEF8093000231
S11305701F910F91FF90EF90DF90CF90BF90AF90BD
S11305809F908F907F906F9008951F920F920FB657
S11305900F9211242F933F934F935F936F937F9305
S11305A08F939F93AF93BF93EF93FF938091DF005B
S11305B08E7F8093DF008FEF809300028091CB02C7
S11305C09091CC02A091CD02B091CE020097A105EA
S11305D0B10521F487E00E94BA0002C00E94EE0136
S11305E0FF91EF91BF91AF919F918F917F916F9107
S11305F05F914F913F912F910F900FBE0F901F90DD
S113060018951F920F920FB60F9211240F900FBEE0
S11306100F901F9018951F920F920FB60F921124EE
S11306200F900FBE0F901F9018950F931F930FB745
S1130630F89411276093D3027093D4028093D50267
S11306409093D6022093CB023093CC024093CD02F8
S11306505093CE020E94EE010FBF1F910F91089597
S1130660982F81568A3110F4975505C0892F8154EB
S11306708A3120F49753892F99270895892F80531D
S11306808A3018F080E090E0089599270895982F13
S11306908FB7F894282F332780918902882321F477
S11306A02FBF81E090E008952FBF8FB7F894282FD3
S11306B033278091D702882321F02FBF85E090E073
S11306C0089581E08093D7022FBF8091C8008F7B6B
S11306D08093C8008091C9008F7B8093C900909358
S11306E0CE008091C80080648093C8008091C800C7
S11306F086FFFCCF8091C8008F7B8093C8008091D7
S1130700C80080648093C8008091C900806480938D
S1130710C9008FB7F89499271092D7028FBF80E051
S113072090E00895FF920F931F93CF93DF93CDB77B
S1130730DEB7C054D0400FB6F894DEBF0FBECDBFB5
S11307408C01562F569556955695262F2695269507
S11307502170A62FA695A17061704BE54983409145
S113076012024A834AE34B83E62FFF27EF5EFD4FD5
S113077080818C83BB27AF5EBD4F8C918D833327E3
S11307802F5E3D4FF90180818E83A52FBB27FD018C
S113079034E0F695E7953A95E1F7EF5EFD4F8081F9
S11307A08F83AF70B070AF5EBD4F8C918887E72F99
S11307B0E295EF70FF27EF5EFD4F80818987E72F79
S11307C0FF27EF70F070EF5EFD4F80818A87F8019C
S11307D0EF2FFF27E295EF70EF5EFD4F80818B874F
S11307E0E12FFF27EF70F070EF5EFD4F80818C8763
S11307F0F80184E0F695E7958A95E1F7EF70F070DB
S1130800EF5EFD4F80818D870F7010700F5E1D4F5E
S1130810F80180818E878DE58F87188A8CE70E9486
S113082047038E010F5F1F4FF80181918F010E94D2
S11308304703CE01409608171907B1F78CE70E94C9
S113084047038AE00E944703C05CDF4F0FB6F89469
S1130850DEBF0FBECDBFDF91CF911F910F91FF90EF
S11308600895EF92FF920F931F93CF93DF93FC01B0
S1130870EB018FB7F894282F3327809189028823BE
S113088011F42FBF06C02FBFCB010197803491050F
S113089018F081E090E033C08FB7F894282F332705
S11308A08091D702882321F02FBF85E090E027C0F4
S11308B081E08093D7022FBF0FB7F89411274EE23F
S11308C0E42E42E0F42EAB01BF01C7010E947C0C70
S11308D00FBFF0922C02E0922B02D0938702C093B8
S11308E0860280912E028093CE0081E090E0909366
S11308F001128093001210925A0380E090E0DF917D
S1130900CF911F910F91FF90EF900895EF920F9365
S11309101F93AE2D99E0899FF0011124E15AFC4FF9
S113092040835183628373830483158326833783CF
S1130930A17080858E7F8A2B8260808788E00E94E8
S1130940BA001F910F91EF900895AF92BF92CF928A
S1130950DF92EF92FF920F931F93F82E5A016B01CF
S11309600E94A801AB01BC01EE24960185018F2DE4
S11309700E9486041F910F91FF90EF90DF90CF901B
S1130980BF90AF9008958F929F92AF92BF92CF92F3
S1130990DF92EF92FF920F931F93CF93DF93CDB724
S11309A0DEB7E8970FB6F894DEBF0FBECDBF5B018C
S11309B06C0188249924EFE5F3E0608561FFE7C0CA
S11309C02081318142815381E480F5800681178141
S11309D0D601C501821B930BA40BB50B8E159F0585
S11309E0A007B10708F4D3C060FF03C06D7F608720
S11309F008C02E0D3F1D401F511F208331834283A9
S1130A00538382E0881629F083E0881609F0CDC06C
S1130A1088C080917A0290917B02019690937B0228
S1130A2080937A0280917C0290917D02019690934A
S1130A307D0280937C0280917E0290917F020196D8
S1130A4090937F0280937E02809180029091810234
S1130A50019690938102809380028091820290910A
S1130A608302019690938302809382028091840290
S1130A70909185020196909385028093840282E08E
S1130A8090E09093790280937802DE011196E8E772
S1130A90F2E08EE001900D928150E1F7DE011F96A5
S1130AA0FE0131968EE001900D928150E1F7DE0156
S1130AB05D96FE013F968EE001900D928150E1F724
S1130AC0DE019B96FE017D968EE001900D92815091
S1130AD0E1F7209125022F3F09F455C030912402FB
S1130AE0832F9927880F991FFC0173E0EE0FFF1FD6
S1130AF07A95E1F7E81BF90BE95FFB4FDE019B9662
S1130B008EE00D9001928150E1F7832F8F5F8093E7
S1130B1024028F3F11F4109224022F5F20932502A8
S1130B2032C08091830390E190938403836C80931B
S1130B30830382E090E09093860380938503209161
S1130B4083033091840340918503509186039091EF
S1130B502A02903230F580912902E82FFF27EE0F08
S1130B60FF1FEE0FFF1FE652FD4F208331834283A8
S1130B7053838F5F80932902803211F410922902EB
S1130B809F5F90932A0286E00E94BA000EC00894E8
S1130B90811C911C399684E08816910409F00DCFCC
S1130BA004C086E00E94BA00CACF88E00E94BA005E
S1130BB0E8960FB6F894DEBF0FBECDBFDF91CF919C
S1130BC01F910F91FF90EF90DF90CF90BF90AF9067
S1130BD09F908F9008958F929F92AF92BF92CF92E1
S1130BE0DF92EF92FF920F931F93CF93DF93CDB7D2
S1130BF0DEB7CC55D0400FB6F894DEBF0FBECDBFE4
S1130C00853009F46FC0863030F4833071F084305D
S1130C1009F04EC41DC0873009F4C5C3873008F4F9
S1130C201DC1883009F044C4F1C310920612109219
S1130C3005121092FB111092FA111092D90210921F
S1130C40D8028FB7F894992710922D028FBF30C421
S1130C5000915B03802F0E9447030B35A1F410928F
S1130C608A022FB7F894332780918A02E82FFF274E
S1130C70E557FD4F00838F5F80938A022FBF81E089
S1130C8080935C0315C480915C030D35C9F48823FB
S1130C9009F40EC48FB7F8949927A0918A02EA2F19
S1130CA0FF27E557FD4F0083AF5FA0938A02BB2760
S1130CB0A557BD4F1C928FBF10925C0385E070C393
S1130CC0882309F4F5C32FB7F894332780918A0257
S1130CD0E82FFF27E557FD4F00838F5F80938A023B
S1130CE02FBFE6C30FB7F894112740918A02552706
S1130CF06BE872E0CE014D960E947C0C0FBF8D8D87
S1130D008B3509F0D5C38F8D8A3309F0D1C38E8D0D
S1130D100E943003982F823039F0833041F08130C3
S1130D2049F080E090E010C0E0E2F0E005C0EDE0C2
S1130D30F0E002C0EFE0F0E0EC0FFD1F848D8D3594
S1130D4009F0B6C3892F9927482F882309F4B0C323
S1130D508FB7F89499272EB138E023272EB98FBF87
S1130D60413009F0A5C38D8D8B3509F0A1C38E8D5B
S1130D700E943003813009F09BC38F8D8A3309F0C0
S1130D8097C38BA58D3509F093C3B8A0E1E0EE2E8F
S1130D90BE20D9A0DE20EAA071E0F72EEF208BA1BF
S1130DA00E943003F82EFF0CFF0CFF0CFF0C0FE128
S1130DB0F0228CA10E943003F82AF0228DA10E9417
S1130DC03003C82ECC0CCC0CCC0CCC0C8EA10E94C5
S1130DD03003C82A8FA10E943003082F1127102F37
S1130DE000271295107F88A50E9430039927982F19
S1130DF08827082B192B8AA50E9430039927082BD2
S1130E00192B89A50E943003992744E0880F991F64
S1130E104A95E1F7802B912B9093D2028093D102D3
S1130E20C092D002FF0CFF0CFF0CEE0CEE0CDD0C9C
S1130E30EF28DE28BD28B092CF02E090CF02F090D8
S1130E40D0020091D1021091D202C801B7010E94D0
S1130E509203C801B7010E9492032AC390E08091D3
S1130E602502882309F491E0992309F052C1809165
S1130E7023029927880F991FFC0123E0EE0FFF1F1F
S1130E802A95E1F7E81BF90BDE011F96E95FFB4F9A
S1130E908EE001900D928150E1F7DE011196FE0182
S1130EA03F968EE001900D928150E1F7CD84DE846F
S1130EB0E980FA800B851C8569857A854F81588580
S1130EC02D813E81AB81BC818BE58D8F80910302A6
S1130ED08E8F8AE38F8FFD01EF2FFF27E295EF704E
S1130EE0EF5FFD4F808188A3EB2FFF27EF70F07039
S1130EF0EF5FFD4F808189A3FD0184E0F695E795BE
S1130F008A95E1F7EF70F070EF5FFD4F80818AA35F
S1130F10AF70B070AF5FBD4F8C918BA3F901EF2F11
S1130F20FF27E295EF70EF5FFD4F80818CA3E32FE5
S1130F30FF27EF70F070EF5FFD4F80818DA3F90103
S1130F40B4E0F695E795BA95E1F7EF70F070EF5FCE
S1130F50FD4F80818EA32F7030702F5F3D4FF901BC
S1130F6080818FA3FA01EF2FFF27E295EF70EF5FE7
S1130F70FD4F808188A7E52FFF27EF70F070EF5FAA
S1130F80FD4F808189A7FA0124E0F695E7952A951B
S1130F90E1F7EF70F070EF5FFD4F80818AA74F702B
S1130FA050704F5F5D4FFA0180818BA7FB01EF2FDB
S1130FB0FF27E295EF70EF5FFD4F80818CA7E72F4D
S1130FC0FF27EF70F070EF5FFD4F80818DA7FB016D
S1130FD0B4E0F695E795BA95E1F7EF70F070EF5F3E
S1130FE0FD4F80818EA76F7070706F5F7D4FFB0126
S1130FF080818FA7F801EF2FFF27E295EF70EF5F55
S1131000FD4F808188ABE12FFF27EF70F070EF5F19
S1131010FD4F808189ABF80164E0F695E7956A9508
S1131020E1F7EF70F070EF5FFD4F80818AAB0F70D6
S113103010700F5F1D4FF80180818BABF701EF2F0C
S1131040FF27E295EF70EF5FFD4F80818CABEF2DB2
S1131050FF27EF70F070EF5FFD4F80818DABF701DC
S113106034E0F695E7953A95E1F7EF70F070EF5FAD
S1131070FD4F80818EABFFE0EF22FF2401E012E000
S1131080E00EF11EF70180818FABF601EF2FFF27F1
S1131090E295EF70E00FF11F808188AFED2DFF27FF
S11310A0EF70F070E00FF11F808189AFF60184E0EA
S11310B0F695E7958A95E1F7EF70F070E00FF11F70
S11310C080818AAFFFE0CF22DD24C00ED11EF6015D
S11310D080818BAF8DE58CAF1DAE60E270E0CE01F8
S11310E04D960E943104882389F4809123029091C3
S11310F02502992371F08F5F809323028F3F11F4AF
S11311001092230291509093250203C086E00E941E
S1131110BA0090E080912A02882309F491E099238F
S113112009F082C0E0912802FF27EE0FFF1FEE0FA7
S1131130FF1FE652FD4F80819181A281B381282F48
S113114026952170482F4170582F529556955695E3
S113115053708BE58D8F809104028E8F8AE38F8F7D
S1131160FD01EF2FFF27E295EF70EF5FFD4F8081C8
S113117088A3EB2FFF27EF70F070EF5FFD4F8081A6
S113118089A3FD0164E0F695E7956A95E1F7EF70B0
S1131190F070EF5FFD4F80818AA3AF70B070AF5FD6
S11311A0BD4F8C918BA3E92FE295EF70FF27EF5F82
S11311B0FD4F80818CA3E92FFF27EF70F070EF5F64
S11311C0FD4F80818DA3E52FFF27EF5FFD4F8081C9
S11311D08EA355274F5F5D4FFA0180818FA333277C
S11311E02F5F3D4FF901808188A78DE589A71AA655
S11311F06DE070E0CE014D960E943104882389F49D
S11312008091280290912A02992371F08F5F809334
S11312102802803211F410922802915090932A02ED
S113122003C086E00E94BA0090E0809127028823E0
S113123009F491E0992309F099C0E0912602FF276F
S1131240EE0FFF1FEE0FFF1FE957FC4F80819181C6
S1131250A281B3818D01F92E782F769576957695B6
S1131260482F469546954170282F26952170817008
S11312706BE56D8F609102026E8F6AE36F8FE82FCA
S1131280FF27EF5FFD4F808188A333272F5F3D4FFA
S1131290F901808189A355274F5F5D4FFA01808151
S11312A08AA3A72FBB27FD0194E0F695E7959A95AD
S11312B0E1F7EF5FFD4F80818BA3AF70B070AF5F3C
S11312C0BD4F8C918CA3EF2DE295EF70FF27EF5F5C
S11312D0FD4F80818DA3EF2DFF27EF70F070EF5F3E
S11312E0FD4F80818EA3F801EF2FFF27E295EF7069
S11312F0EF5FFD4F80818FA3E12FFF27EF70F07028
S1131300EF5FFD4F808188A7F801A4E0F695E7958B
S1131310AA95E1F7EF70F070EF5FFD4F808189A728
S11313200F7010700F5F1D4FF80180818AA78DE543
S11313308BA71CA66FE070E0CE014D960E9431048D
S1131340882389F48091260290912702992371F0D1
S11313508F5F80932602803211F4109226029150FE
S11313609093270203C086E00E94BA0090E0809127
S11313702502882309F491E0992389F090E0809173
S11313802A02882309F491E0992349F090E080919E
S11313902702882309F491E0992309F089C086E0A3
S11313A00E94BA0085C080918802882361F520914B
S11313B0FC113091FD114091FE115091FF11EFB7D6
S11313C0F894FF276091D3027091D4028091D502E2
S11313D09091D602E090CB02F090CC020091CD0225
S11313E01091CE026E0D7F1D801F911FEFBF2093C1
S11313F0FC113093FD114093FE115093FF11109294
S113140088020E9415030E94A80140C00E94A801FE
S11314104B015C018091DF008E7F8093DF008FEFB2
S1131420809300022FEF3FEF4FEF5FE760E0EFE5BF
S1131430F3E0808581FF1CC080819181A281B3810A
S113144085017401E81AF90A0A0B1B0BD801C701BC
S1131450C480D580E680F780C81AD90AEA0AFB0A54
S1131460C216D306E406F5061CF4A701960161E052
S1131470399603E0E338F007E1F66623C9F0121663
S11314801306140615062CF0C501B4010E94C3040A
S11314900FC02093FC113093FD114093FE11509323
S11314A0FF1181E080938802C501B4010E941503F5
S11314B0C45ADF4F0FB6F894DEBF0FBECDBFDF9125
S11314C0CF911F910F91FF90EF90DF90CF90BF903D
S11314D0AF909F908F900895809102128F3FB1F04A
S11314E0282F3327F901E159FD4F8081809302129F
S11314F08F3F11F4809307128FEF80832F3F31F0D9
S1131500822F0E94EB0581E090E0089580E090E056
S11315100895EF920F931F931FB7F89414BE88E1B8
S11315200FB6F89480936000109260000FBE49E0FB
S113153050E06FEF70E08FE692E00E94750C8FEF41
S1131540809302128093071285B7806885BF85B7A0
S1131550806885BF80E8809361008FE0809361009C
S113156091E09093810080E28093B6009093B10063
S1131570AEEFE0E0F0E06FEF7FEFB0E08091B2001B
S11315808823E1F740918400509185008091B20056
S11315908034E1F72091840030918500241B350BC1
S11315A06217730708F4B9012E173F0708F4F9010D
S11315B0CF01861B970B029730F0B0E06FEF7FEFFF
S11315C0E0E0F0E003C0BF5FB23310F4A150B1F625
S11315D030930412209303121092B1008091B10051
S11315E080938100809181008093B6008091B60041
S11315F0992783709070892BC9F78091DF008E7FC3
S11316008093DF008091DC008E7F8093DC0080E299
S11316108093B6008091DC008F7C80638093DC0033
S11316208FEF809300028091DF0088608093DF0059
S113163084E480935E038091C8008F778093C80010
S11316408091C8008F7B8093C8008091C80082601D
S11316508093C8008091C9008F7D8093C9008091D8
S1131660C9008B7F8093C9008091C90080688093F2
S1131670C9008091C90080648093C9008091C90029
S113168080618093C9008091C90088608093C900FB
S11316908091CA008F778093CA008091CA008F7BA3
S11316A08093CA008091CA008F7D8093CA00809184
S11316B0CA008F7E8093CA008091CA008E7F809377
S11316C0CA008091CA0084608093CA008091CA00D5
S11316D082608093CA001092CD0082E28093CC0095
S11316E010922D021092D702109206121092051237
S11316F010922C0210922B021092D9021092D8024E
S113170010920112109200121092FB111092FA1111
S113171010928702109286026A9A6B9A6C9A729A55
S1131720739A749A81E085BF8091390182608093B5
S113173039010E946C0A8823E1F70E946C0A88230D
S1131740E1F7812F99278FBF789481E08093F91175
S113175010925C0348EE53E060E070E080E00E9489
S1131760A504EE2408EE13E020E030E044EF51E05D
S113177060E070E081E00E9486048FB7F894282F1F
S1131780332780912D02882321F58091D702882365
S113179001F5109289028091C8008F778093C80068
S11317A08091C8008F7B8093C8008091C9008068B5
S11317B08093C9008091C90080648093C90080919E
S11317C0C90080618093C9008091C90088608093BA
S11317D0C9002FBF22E030E03093860320938503B5
S11317E08091830390E190938403836C80938303BB
S11317F0309379022093780210927B0210927A023D
S113180010927D0210927C0210927F0210927E024E
S1131810109281021092800210928302109282022E
S1131820109285021092840281E08093F911109243
S11318305C0348EE53E060E070E082E00E94A5049F
S113184040E157E260E070E083E00E94A5048FB7B6
S1131850F894482F55276FEF2FC08091000287FF1F
S113186022C08091DC0085FF03C023E030E002C089
S113187025E030E080918902813019F4E0E0F0E065
S113188002C0E5E0F0E02E1708F4E22FFF27E09312
S1131890000283B7FF27E7FDF095E05EFE4FE49179
S11318A0807F8E2B83BF83B7816083BF78948895B4
S11318B0F89483B78E7F83BF809102128F3F69F2C1
S11318C0282F3327F901E159FD4F9081909302129B
S11318D09F3F11F49093071260832F3F09F4BDCF0B
S11318E04FBF822F0E94EB05B2CFDC0101C06D9384
S11318F041505040E0F70895FB01DC014150504055
S113190048F001900D920020C9F701C01D9241508A
S10B19105040E0F70895FFCFF9
S1131918FF303132333435363738396162636465C0
S11319286630313233343536373839616263646549
S1051938660043
S9030000FC
