S01D00006275696C642F726362313238726661312F6D61696E2E73726563B8
S11300000C9493000C94B2000C94B2000C94B200C3
S11300100C94B2000C94B2000C94B2000C94B20094
S11300200C94B2000C94B2000C94B2000C94B20084
S11300300C94B2000C94B2000C94B2000C94B20074
S11300400C94B2000C94B2000C94B2000C94B20064
S11300500C94B2000C94B2000C94B2000C94B20054
S11300600C94B2000C94B2000C94B2000C94B20044
S11300700C94B2000C94B2000C94B2000C94B20034
S11300800C94B2000C94B2000C94B2000C94B20024
S11300900C94E1000C94B2000C943B010C94B2005B
S11300A00C94B2000C94B2000C94B2000C94B20004
S11300B00C94B2000C94B2000C94B2000C94B200F4
S11300C00C94B2000C94B2000C94B2000C94B200E4
S11300D00C94B2000C94B2000C94B2000C94B200D4
S11300E00C94B2000C94610F0C9497060C94DC0FE2
S11300F00C94B30F0C94DC0E0C94A1060C948A0F90
S11301000C94380F0C94050F0C9483030C94BF03C8
S11301100C9497010C94B2000C94B2000C94B200AD
S113012000020E060C0411241FBECFEFD1E4DEBF83
S1130130CDBF12E0A0E0B2E0E6EFF3E300E00BBFD6
S113014002C007900D92AA30B107D9F713E0AAE0D4
S1130150B2E001C01D92A33EB107E1F70E94CF15A2
S11301600C94FA190C9400008FB7F8949927089509
S11301708FBF0895282F9FB7F894E82FFF27E759DA
S1130180FD4F80818F3F81F4E091AA03E21771F45F
S11301900BC020930C0304C0FF27E759FD4F2083B5
S11301A02093AA0320E007C025E005C080910C033A
S11301B08F3F91F7EECF892F99278FBF822F9927F1
S11301C008951F920F920FB60F9211242F933F930D
S11301D04F935F936F937F938F939F93AF93BF934B
S11301E0EF93FF938091C80087FF34C04091CE0005
S11301F040930A02E0910F03F0911003309701F14C
S113020020919502309196028091FA029091FB021E
S113021028173907D0F4E20FF31F40838091950229
S11302209091960201969093960280939502209164
S1130230FA023091FB028217930739F483E003C07A
S11302404093C90284E00E94BA008091C8008F776D
S11302508093C800FF91EF91BF91AF919F918F91CF
S11302607F916F915F914F913F912F910F900FBEAE
S11302700F901F9018951F920F920FB60F92112492
S11302802F933F934F935F936F937F938F939F939A
S1130290AF93BF93EF93FF93E0912B02F0912C0265
S11302A0309779F120910A0330910B0380917A02FF
S11302B090917B022817390780F48091C80085FF4C
S11302C0FCCFE20FF31F80818093CE002F5F3F4F5E
S11302D030930B0320930A0314C02817390789F4B9
S11302E010927B0210927A0210920B0310920A036E
S11302F010922C0210922B021092940282E00E941F
S1130300BA008091C8008F7B8093C800FF91EF9161
S1130310BF91AF919F918F917F916F915F914F9119
S11303203F912F910F900FBE0F901F9018951F9221
S11303300F920FB60F9211248F938091D1028F5F89
S11303408093D1028F910F900FBE0F901F9018953C
S1130350FB0121E030E002C0220F331F8A95E2F74F
S113036084A5822B84A70895FC0182819927982F64
S1130370882721813327822B932B25E09695879517
S11303802A95E1F7817090700895FC0140E050E0F7
S113039082819927982F882721813327822B932BB9
S11303A087749C7C8154984811F441E050E0CA0160
S11303B00895FC0187819927982F88272681332760
S11303C0822B932B08954FB7F89455272091E10081
S11303D0622F2091E200722F2091E300822F20915E
S11303E0E400922F4FBF0895EF92FF920F931F9353
S11303F0CF93DF937B018C018FB7F894C82FDD274F
S11304000E94E3019B01AC01C801B7016230710590
S11304108105910520F462E070E080E090E0260F11
S1130420371F481F591FDA01C901B093F800A09380
S1130430F7009093F6002093F50081E08093E000AC
S11304408091DF0081608093DF008FEF8093020250
S1130450CFBFDF91CF911F910F91FF90EF9008953F
S113046020E030E0FC0181818770823011F421E0CA
S113047030E0C9010895CF93DF93EC010E94B401E9
S11304808823D1F0CE010E94C5018823A9F0CE01B2
S11304900E94D9012FB7F894332740910302509159
S11304A004022FBF20E08417950709F021E081E0C2
S11304B02827822F992702C080E090E0DF91CF9116
S11304C00895FB0121E030E002C0220F331F8A951A
S11304D0E2F784A5822399270895EF92FF920F9360
S11304E01F937C018FB7F89499270091ED02109126
S11304F0EE020F5E1E4F1093EE020093ED020151C7
S113050011408FBF89E00E94BA00C801B7010E9460
S11305106D1944961F910F91FF90EF9008950F93DA
S11305201F930FB7F8941091D1020E94E3019B012D
S1130530AC018091E00083FF05C01F5F0E94E301CE
S11305409B01AC01802F99278FBF612F77278827C4
S11305509927FAE1660F771F881F991FFA95D1F73B
S1130560E6E05695479537952795EA95D1F7622B9E
S1130570732B842B952B1F910F910895AF92BF92EB
S1130580CF92DF92EF92FF920F931F930E948F02FC
S11305907B018C0120919002309191024091920252
S11305A05091930280918C0290918D02A0918E02C1
S11305B0B0918F02820F931FA41FB51FE216F3069A
S11305C00407150730F082179307A407B50758F0FE
S11305D005C082179307A407B507E0F5E816F906E6
S11305E00A071B07B8F59C01AD012E193F09400B02
S11305F0510B213060E0360760E0460762E05607A1
S113060068F180E090E0A0E0B2E0E80EF91E0A1F75
S11306101B1FE0929002F0929102009392021093B9
S1130620930280E090E0A0E0BEEFE80EF91E0A1FFE
S11306301B1F205030404040524020938C02309386
S11306408D0240938E0250938F0220E030E040E010
S113065052E014C020E030E040E050E0809390028B
S113066090939102A0939202B093930210928C0201
S113067010928D0210928E0210928F0259016A011B
S1130680B6E0AA0CBB1CCC1CDD1CBA95D1F7A6E0C5
S1130690EE0CFF1C001F111FAA95D1F70E94E30165
S11306A09B01AC012E5F3F4F4F4F5F4FDA01C901F1
S11306B08E199F09A00BB10B8A159B05AC05BD05CE
S11306C030F4A80197012A0D3B1D4C1D5D1D50936C
S11306D0F4004093F3003093F2002093F10082E0A1
S11306E08093E0008091DF0082608093DF008FEFD1
S11306F0809302021F910F91FF90EF90DF90CF90B3
S1130700BF90AF9008951F920F920FB60F921124CD
S11307102F933F934F935F936F937F938F939F9305
S1130720AF93BF93EF93FF938091DF008D7F80930E
S1130730DF008FEF8093020280918C0290918D02F2
S1130740A0918E02B0918F020097A105B10521F40A
S11307508EE00E94BA0002C00E94BE02FF91EF9197
S1130760BF91AF919F918F917F916F915F914F91C5
S11307703F912F910F900FBE0F901F9018951F92CD
S11307800F920FB60F9211240F900FBE0F901F906F
S113079018958FB7F89499272EB138E023272EB9EE
S11307A08FBF089580911203909113038D5C9B4A2F
S11307B011F40E94C90308958FB7F89499272EB1B4
S11307C034E023272EB98FBF08950B960895FC01BA
S11307D0655F608308954FB7F8945527FC0123E0C3
S11307E0F695E7952A95E1F7E751FD4F87709070EC
S11307F021E030E002C0220F331F8A95E2F78081A6
S1130800822B80834FBF08952F923F924F925F9225
S11308106F927F928F929F92AF92BF92CF92DF920C
S1130820EF92FF920F931F93CF93DF93CDB7DEB771
S113083029970FB6F894DEBF0FBECDBF6FB769839B
S1130840F894209088023090890240908A02509057
S11308508B02662477248824EEE4AE2E73E8B72E48
S1130860CC24DD24EE24FF2400E010E0222D332DDF
S1130870442D552D662D772D882D90E00E94EC1780
S11308802A833B834C835D836E837F838887998728
S1130890822E932EA42EB52E2401350100E20E944F
S11308A0EA18A22EB32EC42ED52EA301920156957A
S11308B04795379527952A0D3B1D4C1D5D1D57FF08
S11308C005C05F772F5F3F4F4F4F5F4F20938802E4
S11308D03093890240938A0250938B02E9818E2FD0
S11308E099278FBFCA01B90129960FB6F894DEBFC4
S11308F00FBECDBFDF91CF911F910F91FF90EF906D
S1130900DF90CF90BF90AF909F908F907F906F902B
S11309105F904F903F902F900895AF92BF92CF92E7
S1130920DF92EF92FF920F931F93282F33278BE0D0
S113093090E0289FF001299FF00D389FF00D1124BD
S1130940EB5EFD4F82819381A481B5810097A1055F
S1130950B10569F080819181880F991F918380830B
S11309608150944020F080E094E0918380838BE078
S113097090E0289F5001299FB00C389FB00C11249F
S113098085E192E0A80EB91EF50186819781A085C4
S1130990B18582839383A483B583C080D180EE2400
S11309A0FF2469E0CC0CDD1CEE1CFF1C6A95D1F71A
S11309B00E940404DC01CB01F50100811181B8011E
S11309C0762F6627770F0E946D19AA27BB278C0DF7
S11309D09D1DAE1DBF1D222733274AE0000F111FA6
S11309E0221F331F4A95D1F7081B190B2A0B3B0B07
S11309F0068317832087318722813381448155817F
S1130A00280F391F4A1F5B1F228333834483558376
S1130A101F910F91FF90EF90DF90CF90BF90AF9018
S1130A200895EF920F931F93AE2D99E0899FF001E3
S1130A301124EB52FD4F40835183628373830483FB
S1130A40158326833783A17080858E7F8A2B8260ED
S1130A5080878FE00E94BA001F910F91EF90089554
S1130A607F928F929F92AF92BF92CF92DF92EF923A
S1130A70FF920F931F93CF93DF930E948F027B010A
S1130A808C018091D5029091D602A091D702B091A9
S1130A90D802E81AF90A0A0B1B0BAA24BB24650125
S1130AA0F0E088249924C7E1D2E0288139814A8181
S1130AB05B81211531054105510509F452C07FB60A
S1130AC0F894E091E902C4018770907061E070E0ED
S1130AD002C0660F771F8A95E2F7A0E0B0E08E2F80
S1130AE0992786239723892B11F0A1E0B0E0AB2B43
S1130AF019F5E216F3060407150788F42E193F09C1
S1130B00400B510B88819981AA81BB818E199F0961
S1130B10A00BB10B88839983AA83BB8312C081E0A5
S1130B2090E0A0E0B0E088839983AA83BB8321E0AE
S1130B3030E040E050E005C0862F8095E823E09344
S1130B40E902872D99278FBFFF2321F459016A01F8
S1130B50F1E007C02A153B054C055D0510F4590169
S1130B606A010894811C911C2B9682E088169104DA
S1130B7009F09BCFFF2361F00E948F02AB01BC01FF
S1130B80E1E0EE2E9601850180E00E94110505C08A
S1130B908091DD028D7F8093DD02DF91CF911F91E3
S1130BA00F91FF90EF90DF90CF90BF90AF909F9008
S1130BB08F907F900895FF920F931F93CF93DF93AD
S1130BC0F82E282F33278BE090E0289FE001299FFF
S1130BD0D00D389FD00D1124CB5EDD4F81E090E025
S1130BE0998388831A868A819B81AC81BD81009711
S1130BF0A105B105A1F00FB7F8941127C9010E940E
S1130C00EB030FBF1A821B821C821D821E821F826D
S1130C10188619868F2D0E948D040E943005DF915D
S1130C20CF911F910F91FF9008950F931F930FB7CA
S1130C30F89411276093900270939102809392022A
S1130C409093930220938C0230938D0240938E02F2
S1130C5050938F020E94BE020FBF1F910F910895FF
S1130C608091EF029091F002A091F102B091F20212
S1130C708F5E9E4BAD4ABE4D11F40E94DC03089575
S1130C800F931F93CF93DF93282FC82FDD278BE07B
S1130C9090E0C89FF001C99FF00DD89FF00D11247A
S1130CA0EB5EFD4F82819381A481B5810097A105FC
S1130CB0B10519F085E090E017C012821382148206
S1130CC0158216821782108611861286822F0E9440
S1130CD08D040FB7F8941127CE010E94EB030FBFC8
S1130CE00E94300580E090E0DF91CF911F910F9139
S1130CF00895AF92BF92CF92DF92EF92FF920F933B
S1130D001F93F82E5A016B010E948F02AB01BC01A4
S1130D10EE24960185018F2D0E9411051F910F91DC
S1130D20FF90EF90DF90CF90BF90AF9008951F9207
S1130D300F920FB60F9211240F900FBE0F901F90B9
S1130D4018951F920F920FB60F9211240F900FBE99
S1130D500F901F901895EF92FF920F931F937901B4
S1130D608A01643018F044E050E002C0462F552751
S1130D70BC018FEE92E00E94EA19E0920C02F0921C
S1130D800D0200930E0210930F020E9430061F9171
S1130D900F91FF90EF900895EF92FF920F931F939E
S1130DA079018A01623018F042E050E002C0462F17
S1130DB05527BC0182E193E00E94EA19E0921002F7
S1130DC0F092110200931202109313020E94D203B4
S1130DD01F910F91FF90EF9008951092970221E0D8
S1130DE02093E7020E94F40108951F93982F1FB7E0
S1130DF0F89480910B02823099F58091080289174A
S1130E0079F58091060220E030E08F3F11F421E073
S1130E1030E0232BF1F49FEF909308028F3F19F4F5
S1130E202FEF30E00DC0282F3327F901EE57FD4F87
S1130E308081809306028F3F11F490930702908380
S1130E4020937F0281E080930B0285E00E94BA0028
S1130E5005C08FEF8093080210920B0221E001C0BD
S1130E6020E0812F99278FBF90E0213009F491E091
S1130E7081E09827892F99271F91089580918602F0
S1130E80823031F481E08093860287E00E94BA00C8
S1130E90089580931603882311F484E001C081E04F
S1130EA08093860287E00E94BA0008952F923F92B1
S1130EB04F925F926F927F928F929F92AF92BF9266
S1130EC0CF92DF92EF92FF920F931F93CF93DF9312
S1130ED02C0180917C02882309F0F3C0809199024F
S1130EE0853009F0EEC08091F302882309F0E9C04F
S1130EF0B20182E00E946102882311F490E002C0F2
S1130F00F20196A58091D402981731F09093D402FF
S1130F109F70906C90934501C2010E94C501882383
S1130F20A9F08091460199278F7190702091140344
S1130F3040916502240F312D311D43E035952795ED
S1130F404A95E1F7281739070CF4BBC089E0809370
S1130F504201B20184E00E946102882319F4C0E0D6
S1130F60D0E006C0F20180818550E201C80FD11D96
S1130F70809141018F71893021F087E0809399023B
S1130F80A0C052010894A11CB11CF20180819927D0
S1130F90809380018250873010F4982F01C097E02D
S1130FA0D82ED91AE92EFF24A701B50181E891E0D2
S1130FB00E94EA190FB7F894112782E08093420146
S1130FC00E94E3013B014C010FBF81E8282E81E020
S1130FD0382E2E0C3F1CED2DFF27B5016E0D7F1D05
S1130FE0209709F456C02881E9808A81AB8099272B
S1130FF0AA27BB27BA2FA92F982F8827332744273E
S11310005527522F442733272227FF24002711274F
S11310108701FF24EE242E293F29402B512BBB248A
S1131020CC24DD242A293B294C295D29822B932BAE
S1131030A42BB52B86199709A809B9098B83292FE5
S11310403A2F4B2F55272A839D014427552729835F
S11310508B2F9927AA27BB278883AF01C1010E9440
S1131060EA1996E09093990284E080937C0290932D
S113107042016B82BB27A92D982D872D8A83C40139
S1131080AA27BB278983892D9927AA27BB27888369
S11310900CC0AF01C1010E94EA1996E09093990235
S11310A084E080937C0290934201B20181E00E942B
S11310B0A801F20160A671A682A693A680E090E042
S11310C002C085E090E0DF91CF911F910F91FF90D6
S11310D0EF90DF90CF90BF90AF909F908F907F90D4
S11310E06F905F904F903F902F9008956F927F92F2
S11310F08F929F92AF92BF92CF92DF92EF92FF9224
S11311000F931F93CF93DF939091F302992309F4E4
S1131110E5C01092F30297FF07C0809199028230D4
S113112019F483E080939902E92EFF24E0FE11C0B4
S113113080917C02833011F0873059F485E08093EC
S1131140990280914C01806880934C0188E08093DF
S11311507C02E4FE0CC080917C02863041F48091D4
S1131160410187FF04C010927C0280914101E2FE9C
S113117050C080917C02863019F410927C0203C026
S1131180882309F046C0C091DC03D091DD0394307C
S113119099F5109146011F7180916502982F9695DB
S11311A09695212F291B820F809365028CA58B7F36
S11311B08CA7BE0183E00E94A8011EA72FB7F89454
S11311C033278091E900682E8091EA00782E80917F
S11311D0EB00882E8091EC00982E2FBF0091DC0349
S11311E01091DD03B80181E00E94A801F80160A616
S11311F071A682A693A60AC08CA5877F8CA7E091CE
S1131200DC03F091DD0384A58D7F84A785E08093C2
S11312107C02E6FE43C080917C02843009F03EC02B
S113122085E08093990210927C028091660283305B
S113123019F41092660232C00091AB031091AC0312
S1131240C8010E94B401882311F1C8010E94C5019C
S11312508823E9F0C8010E94D9018F5F9F4FB9F03C
S113126090E08091E702882309F491E0992379F0D2
S113127081E0809397028093E70268E371E080E065
S113128090E00E94F40182E08093660207C010920D
S113129066021092870280E00E944907E3FE1EC0A6
S11312A090917C029530D1F480919902873031F489
S11312B086E080934201909399020CC080911403BC
S11312C0909146019F71282F26952695921B890F90
S11312D08093140389E080937C0208C090917C027F
S11312E0992309F43FC2993009F0CCC140917B01A4
S11312F0433008F468C0842F99278A970CF063C0A0
S1131300E091DC03F091DD036F010894C11CD11C52
S113131040830EEFF02EF40E26E02F1510F0EF2C84
S113132002C017E0E12E0E2D1127A80160E871E03C
S1131330C6010E94EA19C091DC03D091DD03CE01FD
S11313400E9430028823C1F080916602823089F4C1
S11313508B81E091AB03F091AC039381891749F43D
S1131360898190E08770823009F091E081E09827CC
S11313700EC080E090E00DC08FB7F894282F33277B
S113138090E08091F402833008F491E02FBF892F1C
S11313909927892BC1F0FE184F2D5527B8016058A5
S11313A07E4FC601800F911F0E94EA19E0917B01D4
S11313B0FF27E058FE4F8081E091DC03F091DD03CC
S11313C085A721E001C020E080914601992787701C
S11313D09070892B09F068C280914C018F778093BB
S11313E04C0180914C01806880934C0185E080938E
S11313F0990210927C02222309F4B0C1A090DC036C
S1131400B090DD03C5010E943002282F3327122F2C
S1131410809166028230F9F48091DF008E7F8093A0
S1131420DF008FEF809302021092E702E091AB039A
S1131430F091AC03222329F0BF0180E00E94A801AF
S113144003C084A58E7F84A710926602109287023F
S113145080E00E944907112309F00FC1C5010E94D1
S11314603B028823A9F085E080939A0282E080936E
S11314709B0210929C02F501838180939D028AE96C
S113148092E00E945607882319F483E08093660251
S11314900E94E3016B017C01C5010E943B02882389
S11314A041F086E390E0A0E0B0E0C80ED91EEA1E49
S11314B0FB1E8601D092CB02C092CA020E94E301B5
S11314C0061B170B10161106C4F48091870288239B
S11314D089F490E08091E702882309F491E099234C
S11314E061F0B801882777FD8095982F0E94ED065A
S11314F080E801C080688093870275010894E11C2C
S1131500F11CF501818520859927582F442733271D
S1131510422B532B80916702282F3327F901EE0FBA
S1131520FF1FE450FD4F808191817091E802841780
S1131530950769F4F901EB55FC4F8081871709F48D
S113154067C0872F8F5F8093E80280831DC000E00F
S113155010E080E090E0CCEFD2E0E5EAF3E0DF01D8
S1131560682F9C01888199818417950779F42093C9
S113157067029091E8028C91891709F449C0892F78
S11315808F5F8093E8028C9300E829C08081972FB5
S1131590981B091710F4092F122F6F5FC9010196C8
S11315A011962296319685309105D1F66530B9F4BD
S11315B010936702A12FBB27FD01EE0FFF1FE4501C
S11315C0FD4F518340838091E8028F5F8093E8024E
S11315D0FD01EB55FC4F8083A252BC4F1C929091AD
S11315E0E802892F8F778F3779F40F3768F0E5EAAF
S11315F0F3E0292F207880818F6789132083319627
S1131600A3E0EA3AFA07B9F780916702282F332753
S1131610F7019281A22FBB27FD01E252FC4F80818A
S113162080FF07C0FD01EB50FD4F8081981729F121
S113163002C081608083AB50BD4F9C93FFB6F89489
S11316408091F4028330B0F4E0911103E80FE330A9
S113165008F0E350FF27EE0FFF1FE35AFD4F008110
S11316601181B182A0828F5F8093F40288E00E948E
S1131670BA0058018F2D99278FBFB092DD03A09235
S1131680DC0363C0292F2150233008F049C0892F7F
S11316908250823070F480919902813051F48DEC43
S11316A080934E01809139018D7F8093390182E0CE
S11316B01CC0933071F480919902833051F480916D
S11316C0A40380668093480186E08093420184E00D
S11316D00CC0223060F480919902853041F488E096
S11316E0809342011092F30283E0809399029091D7
S11316F07C02913071F480919902833079F51092D3
S11317004E0180913901826080933901909399024E
S113171018C09230D1F4809199028330F9F411C049
S1131720973099F480919902853011F0882349F417
S11317308091A40380668093480184E08093990299
S113174004C088E080937C0204C080917C028830CD
S113175029F410927C0286E00E94BA0080917C02F7
S11317608823D1F4809199028530B1F48091F302F9
S1131770882391F480916602882371F48091870212
S1131780882351F490E08091E702882309F491E0E2
S1131790992311F00E943E078091E702823009F0FC
S11317A076C01092E70280919702882321F081305D
S11317B009F06DC065C0C091CA02D091CB020E94ED
S11317C0E30120918702203829F4109287020E94B5
S11317D03E075DC08E01061B170B27FF03C01016C2
S11317E01106F4F0C0918302D091840280916602C4
S11317F08823B1F4CE010E9456079927882359F40F
S11318008CA58E7F8CA781E080936602D093AC0375
S1131810C093AB0331C09927F82E882369F102C025
S113182055E0F52E20918702822F99278F77019713
S113183079F420782260209387028CE890E00E945B
S11318406D02AA27BB27BC01CD010E94ED061FC073
S113185027FF0EC0101611065CF480E880938702FF
S1131860B801882777FD8095982F0E94ED0602C065
S1131870109287028F2D09C083E08093870207C0EE
S1131880109266021092870280E00E9449078FB787
S1131890F894282F332780917E028130A9F081E0CB
S11318A080937E022FBF30CC80914C018F77809340
S11318B04C0180914C01806880934C0185E08093B9
S11318C0990210927C024ACF10927E022FBFDF91C0
S11318D0CF911F910F91FF90EF90DF90CF90BF9029
S11318E0AF909F908F907F906F9008958FB7F894EA
S11318F0282F332780917E02815080937E02803886
S113190011F02FBF089581E080937E022FBF0E94C3
S1131910760808951F93FC018FE382878091140257
S11319208F5F8093140283832FB7F89433278091B9
S11319307E028F5F80937E022FBF80918602882370
S113194011F015E00DC0F093EC02E093EB0281E09E
S1131950809386021092EA0287E00E94BA0010E0A7
S11319600E94760C812F99271F910895EF92FF9280
S11319700F931F93CF93DF93082F7B01EA01122F5C
S11319802D3118F086E090E087C0CA010E94C5019D
S1131990882351F4898199278073907081649868B1
S11319A08983892F99278A831E5F612FCE010E9424
S11319B0E7032FB7F8943327809103029091040230
S11319C02FBF8887892F992789872FB7F8943327C2
S11319D0809105022FBF99278C831D82CE010E941E
S11319E0E503FC010083EE828F2D99278F838FB747
S11319F0F894282F332780910B02882371F482E016
S1131A0080930B02109208022FBFCE010E948A0C11
S1131A109927182F882399F00FC02FBFD0938102E4
S1131A20C09380028FB7F894C82FDD272C2F8091A4
S1131A300B02882399F406C080E00E94F506812FEA
S1131A4099272AC081E080930B0210927F0285E0DF
S1131A500E94BA00CFBF80E090E01EC08091820255
S1131A608F3F89F4E0910702EE2369F010C01092D1
S1131A70060204C0FF27EE57FD4F108210920702A2
S1131A8080E090E002C085E090E02FBF05C0809127
S1131A9006028F3F79F7EBCFDF91CF911F910F9122
S1131AA0FF90EF900895DF92EF92FF920F931F93B0
S1131AB0CF93DF93D82EE82FFF27EE0FFF1FE453B9
S1131AC0FD4F11821082809109029927019662E0EC
S1131AD070E00E948119682F8093090200E0462F6C
S1131AE05527FA01EE0FFF1FE453FD4FC081D1814A
S1131AF0209799F0E62FE695E695E695FF27EB5EAD
S1131B00FC4F808199279A012770307002C0959507
S1131B1087952A95E2F780FF0DC0CA01019662E01D
S1131B2070E00E948119682F0F5F0230C1F60093A4
S1131B3009021AC0609309026230B0F408810D50A2
S1131B401127CE010E94D9017C01CE010E94E50338
S1131B50FC01202FAE01B70180810E94B60C8823BE
S1131B6019F08BE00E94BA00DD2019F081E0D8164C
S1131B7011F410928502DF91CF911F910F91FF9084
S1131B80EF90DF900895AF92BF92CF92DF92EF92E1
S1131B90FF920F931F93CF93DF93BC018091640254
S1131BA0882309F4BCC080918502882309F0B7C05A
S1131BB081E08093850260933A02872F992780936E
S1131BC0390282E16433780741F0E3E265347E0749
S1131BD069F0AA24BB24650111C0A0900C02B09046
S1131BE00D02C0900E02D0900F0208C0A090100207
S1131BF0B0901102C0901202D0901302A0923E0243
S1131C0011270D2DFC2CEB2CE0923D02960144276C
S1131C10552720933C028D2D9927AA27BB27E9E35A
S1131C20F2E08283FF2400271127102F0F2DFE2CB2
S1131C30EE24B82FAA279927882733274427552726
S1131C40A90133272227822B932BA42BB52B2A2DD2
S1131C50332744275527822B932BA42BB52BE82A13
S1131C60F92A0A2B1B2BE114F1040105110511F4C7
S1131C7000E015C0F2E164337F0721F0655473423C
S1131C8029F449C06FEE72E004E003C000E060E0B4
S1131C9070E0402F55278FE392E00E94EA198FEFFE
S1131CA08093330280933402CDE2D2E0CE010E94CD
S1131CB0E5036C0180E6F60180838091CC0290916B
S1131CC0CD02892B61F5B6E0EB2EE00ED093CD0268
S1131CD0C093CC02085F602FCE010E94E70380917D
S1131CE009028230E0F0F60100811127CE010E9442
S1131CF0D901109209022E2DAE01BC01802F0E9441
S1131D00B60C882361F082E0809309021092CD0220
S1131D101092CC0204C062E173E002E0BACFDF911A
S1131D20CF911F910F91FF90EF90DF90CF90BF90D4
S1131D30AF9008958FB7F894282F332780917E02AF
S1131D40882329F0806880937E022FBF089581E064
S1131D5080937E022FBF0E94760808951F938FB749
S1131D60F894992720917E022F5F20937E028FBFE3
S1131D7080918602882311F015E018C080917C02BE
S1131D80882389F480919902853019F489E090E0E0
S1131D900CC083E080937C020E949A0E85E08093BD
S1131DA0860210E003C085E090E0182F0E94760CB4
S1131DB0812F99271F9108951F920F920FB60F92AA
S1131DC011242F933F934F935F936F937F938F933C
S1131DD09F93AF93BF93EF93FF938091F30280613E
S1131DE08093F3020E949A0EFF91EF91BF91AF91FD
S1131DF09F918F917F916F915F914F913F912F911F
S1131E000F900FBE0F901F9018951F920F920FB650
S1131E100F9211242F933F934F935F936F937F936C
S1131E208F939F93AF93BF93EF93FF938091DF00C2
S1131E308E7F8093DF008FEF809302028091E70210
S1131E40813019F482E08093E7020E949A0EFF9198
S1131E50EF91BF91AF919F918F917F916F915F911E
S1131E604F913F912F910F900FBE0F901F90189597
S1131E701F920F920FB60F9211242F933F934F93FB
S1131E805F936F937F938F939F93AF93BF93EF93DE
S1131E90FF938091F30280688093F3020E949A0E6C
S1131EA0FF91EF91BF91AF919F918F917F916F912E
S1131EB05F914F913F912F910F900FBE0F901F9004
S1131EC018951F920F920FB60F9211242F933F93E0
S1131ED04F935F936F937F938F939F93AF93BF932E
S1131EE0EF93FF938091F30281608093F3020E9449
S1131EF09A0EFF91EF91BF91AF919F918F917F9136
S1131F006F915F914F913F912F910F900FBE0F9062
S1131F101F9018951F920F920FB60F9211242F93B2
S1131F203F934F935F936F937F938F939F93AF935D
S1131F30BF93EF93FF938091F30280648093F30245
S1131F400E949A0EFF91EF91BF91AF919F918F9153
S1131F507F916F915F914F913F912F910F900FBEA1
S1131F600F901F9018951F920F920FB60F92112485
S1131F702F933F934F935F936F937F938F939F938D
S1131F80AF93BF93EF93FF938091F30288608093A4
S1131F90F3020E949A0EFF91EF91BF91AF919F912E
S1131FA08F917F916F915F914F913F912F910F90FE
S1131FB00FBE0F901F9018951F920F920FB60F929D
S1131FC011242F933F934F935F936F937F938F933A
S1131FD09F93AF93BF93EF93FF938091F302846039
S1131FE08093F3020E949A0EFF91EF91BF91AF91FB
S1131FF09F918F917F916F915F914F913F912F911D
S11320000F900FBE0F901F9018951F9322E18433F9
S1132010920729F023E28534920759F405C080E041
S11320200E944006182F0FC081E00E944006182F1E
S11320300DC022E18433920729F08554934229F09C
S113204011E007C011E080E002C011E081E00E94CD
S1132050DB05812F99271F9108959F92AF92BF921C
S1132060CF92DF92EF92FF920F931F93CF93DF9360
S1132070CDB7DEB726970FB6F894DEBF0FBECDBF3F
S11320805B016C019090DD0291FE20C02091D5028D
S11320903091D6024091D7025091D802E090D902F3
S11320A0F090DA020091DB021091DC02DC01CB013A
S11320B0821B930BA40BB50B8E159F05A007B107CC
S11320C028F0E5EDF2E060E070E022C0EEEDF2E031
S11320D09090E60291FE5EC12091DE023091DF0213
S11320E04091E0025091E102E090E202F090E302BC
S11320F00091E4021091E502A21AB30AC40AD50AB7
S1132100AE14BF04C006D10608F444C161E070E017
S113211090FE04C080858D7F808708C02E0D3F1DF2
S1132120401F511F2083318342835383662321F050
S1132130613009F02FC149C0A090D902B090DA02F1
S1132140C090DB02D090DC0200E010E037E1E32E27
S113215032E0F32EF70180819181A281B38100974F
S1132160A105B10531F18A159B05AC05BD0509F53D
S113217080858823B1F44FB7F894552798012770C8
S1132180307081E090E002C0880F991F2A95E2F731
S11321902091D202282B2093D2024FBF8DE00E94BF
S11321A0BA00C8010E94EB03802F0E948D04F7013E
S11321B010860F5F1F4F8BE090E0E80EF91E02308F
S11321C0110541F60E943005E5C08FEE9EEBADEAA5
S11321D0BEED8B839C83AD83BE838DEC9BEA9A8397
S11321E0898380910002909101028370907001971D
S11321F009F0BBC00E94DC030E94C90380915C0209
S1132200882309F459C08B819C81AD81BE81809360
S1132210EF029093F002A093F102B093F202809146
S11322200C0290910D02A0910E02B0910F02CD010B
S1132230AA27BB270196A11DB11D80930C02909380
S11322400D02A0930E02B0930F020097A105B105F1
S113225061F481E090E0A0E0B0E080930C02909300
S11322600D02A0930E02B0930F0220910C02309144
S11322700D0240910E0250910F02A901332722272B
S11322808091000290910102AA27BB27280F391FD1
S11322904A1F5B1F20930C0230930D0240930E02E1
S11322A050930F0284E392E10E94C30D80E00E94E8
S11322B0DB058CE00E94BA008091D002882309F4E7
S11322C069C089819A81909313038093120380914A
S11322D0100290911102A0911202B0911302CD014B
S11322E0AA27BB270196A11DB11D809310029093CC
S11322F01102A0931202B09313020097A105B10535
S113230061F481E090E0A0E0B0E08093100290934B
S11323101102A0931202B093130220911002309183
S113232011024091120250911302A901332722276E
S11323308091000290910102AA27BB27280F391F20
S11323404A1F5B1F20931002309311024093120224
S11323505093130285E493E20E94C30D81E00E942E
S1132360DB0580E10E94BA0015C08091EF029091D4
S1132370F002A091F102B091F2028054924EA14079
S1132380B04041F48FB7F89499272EB130E1232758
S11323902EB98FBF8FE00E94BA0026960FB6F8942C
S11323A0DEBF0FBECDBFDF91CF911F910F91FF9084
S11323B0EF90DF90CF90BF90AF909F9008957F9261
S11323C08F929F92AF92BF92CF92DF92EF92FF9241
S11323D00F931F93CF93DF938A3051F18B3090F496
S11323E0863009F478C0873030F4833049F1853081
S11323F009F0AAC338C0883009F41CC1893008F038
S11324006CC2AEC08D3009F4A5C28E3038F48B3066
S113241009F491C28C3009F097C399C28F3009F442
S11324200EC38F3008F4D6C2803109F08DC387C340
S113243080911503882309F487C320E031E05CC24E
S11324401092100310920F031092FB021092FA02E2
S113245010929602109295028FB7F89499271092D1
S113246063028FBF71C32FB7F894332780917F0223
S11324708093080282E080930B022FBF80910802B0
S1132480882309F061C380918002909181020E94A7
S11324908A0C082F1127002309F456C380E00E94F8
S11324A0F506C0918002D0918102CE010E94E5031D
S11324B080910902823008F047C3E82FFF27EE0F0E
S11324C0FF1FE453FD4F608171816C177D0709F094
S11324D03BC3402FACC080918602109286028530A7
S11324E0B1F510E005C0112319F01130A9F40BC0A7
S11324F084E392E10E940510882309F023C381E05C
S113250080935C021FC385E493E20E940510882334
S113251031F41093D00203C01F5F123020F381E026
S11325208093640280910002909101028370907004
S1132530019729F440E050E560E070E004C040E019
S113254054E060E070E081E00E947906FDC28630CC
S113255009F4FAC2873009F4F7C280938602F4C200
S11325602FB7F894332780917E028F5F80937E0289
S11325702FBF409186024130A1F58091EA028F5F1E
S11325808093EA02863068F52091EB023091EC02E8
S1132590809187028823E1F490E08091E702882308
S11325A009F491E09923A1F03093840220938302EB
S11325B04093870286E391E00E946D02AA27BB271D
S11325C0BC01CD010E94ED061092160383E004C005
S11325D085E08093160382E0809386020E94760C45
S11325E0B3C2109286020E94760C10911603C09119
S11325F0EB02D091EC028A858F3309F0A5C280E00A
S11326000E94F506CE010E94E50380910902823002
S113261008F09AC2E82FFF27EE0FFF1FE453FD4F87
S1132620608171816C177D0709F08EC2412F0E9471
S1132630530D8AC28FB7F894282F33278091F40260
S1132640882309F453C1E0911103FF27EE0FFF1F04
S1132650E35AFD4FC081D1812FBF8A858F3309F0A2
S113266019C1CE010E94E503FC0110810881CE014D
S11326700E94D901AC018FB7F894992720910302E5
S1132680309104028FBF4217530721F04F5F5F4F11
S113269009F007C14CE0842E912C8C0E9D1EE12F75
S11326A0FF27E03621F0E13609F0FBC0BBC08C8582
S11326B02D859927F82FEE273327E22BF32B2E8530
S11326C07F859889798832E1E433F30741F043E266
S11326D0E534F40769F0AA24BB24650111C0A09075
S11326E00C02B0900D02C0900E02D0900F0208C0F0
S11326F0A0901002B0901102C0901202D090130268
S113270080916402882309F4CCC0602F6D50892F16
S11327109927AA27BB27EE24F82E092F1A2F33272F
S113272044275527522F442733272227872F9927B9
S1132730AA27BB27DC0199278827282B392B4A2B6A
S11327405B2B872D9927AA27BB27282B392B4A2BAC
S11327505B2BE22AF32A042B152BA114B104C10428
S1132760D10479F4E114F1040105110509F443C01D
S113277021C0E554F34209F094C081E00E94DB05D6
S113278090C0E114F1040105110549F432E1E43388
S1132790F30751F1E554F34209F083C0EECFD801B9
S11327A0C7018A199B09AC09BD09181619061A062E
S11327B01B06E4F46650C401069652E1E433F507BF
S11327C029F0A3E2E534FA0759F405C0A8019701FA
S11327D00E94AB0609C0A80197010E94CC06CDCF88
S11327E0B2E1E433FB0729F680E0C8CFEA14FB0426
S11327F00C051D05A9F432E1E433F30729F0E5548F
S1132800F34209F04EC006C080911F028F5F80938F
S11328101F0247C080912A028F5F80932A0241C021
S1132820CF0135C080916402882309F43AC08C85B5
S1132830FE013D962D859927982F88273327822BD3
S1132840932B52E18433950721F08554934251F040
S113285028C080910C0290910D02A0910E02B091BB
S11328600F0208C08091100290911102A0911202EF
S1132870B09113020097A105B10599F0D4018C9190
S113288020819927982F88273327822B932B0E9406
S1132890C30D07C0CE010E94D9018FB7F8949927C0
S11328A08FBF9FB7F89480911103E82FFF27EE0F95
S11328B0FF1FE35AFD4FD183C0838F5F80931103C1
S11328C0833010F0109211038091F40281508093B0
S11328D0F402892F99278FBFADCE0E9404042FB72D
S11328E0F89433277093EE026093ED022FBF2CC14E
S11328F0C601B501A1C0330F90911503832F89231D
S1132900B1F0E22FFF27EE0FFF1FE453FD4F1182BA
S11329101082832F8095982390931503222311F01E
S1132920213029F410928502330F2F5FE5CF2F5FFA
S1132930283008F309C180910902E82FFF27EE0F20
S1132940FF1FE453FD4F6081718141E070CE0E940E
S11329503006FAC0E0E0F0E05E2FAFB7F8944091A3
S1132960D202CF018770907021E030E002C0220FC4
S1132970331F8A95E2F760E070E0842F9927822361
S11329809323892B11F061E070E0672B11F420E0B0
S113299006C0822F809548234093D20221E08A2FDB
S11329A099278FBF222381F0552319F0513041F428
S11329B003C084E392E102C085E493E20E94C30D64
S11329C08DE00E94BA00C0C03196E230F10509F4EE
S11329D0BBC0C2CF80917D02882361F5209106039C
S11329E0309107034091080350910903EFB7F8941D
S11329F0FF276091900270919102809192029091D0
S1132A009302E0908C02F0908D0200918E0210915E
S1132A108F026E0D7F1D801F911FEFBF2093060351
S1132A2030930703409308035093090310927D02E7
S1132A300E9415060E948F020E942D1085C00E94DC
S1132A408F025B016C018091DF008D7F8093DF003A
S1132A508FEF809302028091DD0281FF25C0809177
S1132A60D5029091D602A091D702B091D802A601C6
S1132A709501281B390B4A0B5B0BE090D902F090AF
S1132A80DA020091DB021091DC02E21AF30A040B71
S1132A90150B3FEFE3163FEFF3063FEF03073FE766
S1132AA0130711F061E009C060E04FEFE42E4FEF2F
S1132AB0F42E4FEF042F4FE7142F8091E60281FF8D
S1132AC024C08091DE029091DF02A091E002B091D7
S1132AD0E102A6019501281B390B4A0B5B0BDA01B5
S1132AE0C9012091E2023091E3024091E402509145
S1132AF0E502281B390B4A0B5B0B2E153F054007DB
S1132B0051071CF479018A0102C06623E9F01E14FE
S1132B101F04100611060CF0EBCEE0920603F092AF
S1132B200703009308031093090381E080937D0257
S1132B30A8019701C601B5010E94150605C00E94AF
S1132B40D20302C01F5FCFCCDF91CF911F910F91B1
S1132B50FF90EF90DF90CF90BF90AF909F908F90B9
S1132B607F90089580910C038F3FB1F0282F332775
S1132B70F901E759FD4F808180930C038F3F11F4D5
S1132B808093AA038FEF80832F3F31F0822F0E941E
S1132B90DF1181E090E0089580E090E008951F93B4
S1132BA01FB7F89414BE88E10FB6F89480936000C0
S1132BB0109260000FBE41E150E06FEF70E089E6D3
S1132BC092E00E94F3198FEF80930C038093AA0381
S1132BD08DEA93E09093DD038093DC031092140359
S1132BE08AE58093650285B7806885BF85B780686C
S1132BF085BF80E8809361008FE08093610091E05D
S1132C009093810080E28093B6009093B100AEEF80
S1132C10E0E0F0E06FEF7FEFB0E08091B200882356
S1132C20E1F740918400509185008091B200803496
S1132C30E1F72091840030918500241B350B621745
S1132C40730708F4B9012E173F0708F4F901CF01FF
S1132C50861B970B029730F0B0E06FEF7FEFE0E058
S1132C60F0E003C0BF5FB23310F4A150B1F630936B
S1132C700E0320930D031092B1008091B100809354
S1132C808100809181008093B6008091B6009927DD
S1132C9083709070892BC9F78091DF008D7F8093BA
S1132CA0DF008091DC008D7F8093DC008091DF0069
S1132CB08E7F8093DF008091DC008E7F8093DC0028
S1132CC080E28093B6008091DC008F7C80638093E7
S1132CD0DC008FEF809302028091DF008860809394
S1132CE0DF0084E48093D3028091C8008F778093BF
S1132CF0C8008091C8008F7B8093C8008091C80071
S1132D0082608093C8008091C9008F7D8093C90040
S1132D108091C9008B7F8093C9008091C90080682D
S1132D208093C9008091C90080648093C900809118
S1132D30C90080618093C9008091C9008860809334
S1132D40C9008091CA008F778093CA008091CA001D
S1132D508F7B8093CA008091CA008F7D8093CA00C4
S1132D608091CA008F7E8093CA008091CA008E7FB2
S1132D708093CA008091CA0084608093CA008091C5
S1132D80CA0082608093CA001092CD0082E28093D0
S1132D90CC001092630210929402109210031092CD
S1132DA00F0310922C0210922B0210929602109292
S1132DB0950210920B0310920A031092FB021092D8
S1132DC0FA0210927B0210927A026A9A6B9A6C9AB7
S1132DD0729A739A749A81E085BF809139018260F6
S1132DE0809339010E94B2158823E1F780E094E0D2
S1132DF0909316028093150210921F0210921702EC
S1132E00109218021092190210921A0210921B02C8
S1132E1010921C0210921D0210921E029093210225
S1132E208093200210922A0210922202109223020E
S1132E301092240210922502109226021092270268
S1132E4010922802109229021092D2021092E902E2
S1132E501092D4028AE18093A40387EC8093490101
S1132E608AE78093480180EC8093450188E380934E
S1132E70DC008091390182608093390181E0809384
S1132E80990220910002309101022F5F3F4FC90146
S1132E90AA27BB272150304080938802909389024F
S1132EA0A0938A02B0938B0287E193E090935E0231
S1132EB080935D028F969093600280935F0285E712
S1132EC093E090936202809361028FEF9FEF90935F
S1132ED0FD028093FC029093FF028093FE02909384
S1132EE00103809300039093030380930203909360
S1132EF00503809304032295207F209314028FEF0F
S1132F00809382020E94B2158823E1F7812F9927CA
S1132F108FBF789480910C0290910D02A0910E02C3
S1132F20B0910F020097A105B10561F480E492EE1F
S1132F30A1E0B0E08093EF029093F002A093F1023D
S1132F40B093F2028091100290911102A0911202AA
S1132F50B09113020097A105B10531F482ED94E01C
S1132F6090931303809312030E94AE0E8FB7F894CC
S1132F70482F55277FEFE0E2F1E0649115C080917E
S1132F80020287FF08C08091DC001092020283B71E
S1132F90807F862B83BF83B7816083BF78948895B5
S1132FA0F89483B78E7F83BF80910C038F3F39F3EE
S1132FB0282F3327F901E759FD4F908190930C0393
S1132FC09F3F11F49093AA0370832F3FC1F24FBF28
S1132FD0822F0E94DF11CACFACE2B0E0E2EFF7E14A
S1132FE00C94B319222E332E442E552E662E772E92
S1132FF0882E992EFE013196A8E01192AA95E9F740
S113300029823A824B825C826D827E828F8298868C
S1133010FE013996B8E01192BA95E9F7A986BA8605
S1133020CB86DC86ED86FE860F87188B89819A8194
S1133030AB81BC8189A79AA7ABA7BCA77C018D01F2
S11330408FEF9FEFA0E0B0E0E822F9220A231B23D0
S113305089A59AA5ABA5BCA51D0144245524898541
S11330609A85AB85BC858DA39EA3AFA3B8A75C014D
S11330706D018FEF9FEFA0E0B0E0A822B922CA2231
S1133080DB228DA19EA1AFA1B8A53D01882499247E
S1133090C801B701A60195010E94941969A37AA3F6
S11330A08BA39CA3C801B701A40193010E949419A6
S11330B07B018C01C201B101A60195010E94941902
S11330C05B016C01C201B101A40193010E94941936
S11330D03B014C01EA0CFB1C0C1D1D1D89A19AA18E
S11330E0ABA1BCA19D01442755272E0D3F1D401FB8
S11330F0511F2A153B054C055D0540F480E090E026
S1133100A1E0B0E0680E791E8A1E9B1ECA01AA27A0
S1133110BB27860D971DA81DB91D8D8F9E8FAF8F60
S1133120B8A3A9013327222789A19AA1ABA1BCA1E5
S1133130A070B070280F391F4A1F5B1F298F3A8F68
S11331404B8F5C8FA98CBA8CCB8CDC8CED8CFE8C79
S11331500F8D18A1FE01719698E011929A95E9F7E6
S1133160ED8AFE8A0F8B188F2D813E814F81588501
S11331706DA17EA18FA198A50E9494193B014C01D9
S11331802D853E854F85588969A57AA58BA59CA573
S11331900E9494192D893E894F89588D260F371F17
S11331A0481F591F260D371D481D591D2D8B3E8B59
S11331B04F8B588F6D887E888F88988C2A2D3B2D55
S11331C04C2D5D2D662D772D882D992DE2E1AC9641
S11331D00C94CF19A0E1B0E0E0EFF8E10C94B3193E
S11331E0222E332E442E552E662E772E882E992E7F
S11331F0002309F466C088E0FE01319611928A9595
S1133200E9F729833A834B835C836D837E838F82C2
S11332109887E0E2E01B1E16CCF52D813E814F819C
S11332205885602F772767FD7095DA01C901062E4E
S113323004C0B695A795979587950A94D2F78D877C
S11332409E87AF87B88B04C0220F331F441F551FBE
S1133250EA95D2F789819A81AB81BC8104C0B69585
S1133260A795979587956A95D2F7282B392B4A2BE2
S11332705B2B29873A874B875C8729843A844B8464
S11332805C846D847E848F8498881BC01D861E8612
S11332901F86188A2E2F332727FD309530952195C8
S11332A03F4F8D819E81AF81B88504C0B695A795A7
S11332B0979587952A95D2F789879A87AB87BC8794
S11332C0DCCF222D332D442D552D662D772D882DC1
S11332D0992DE2E160960C94CF19AA1BBB1B51E116
S11332E007C0AA1FBB1FA617B70710F0A61BB70B72
S11332F0881F991F5A95A9F780959095BC01CD0117
S1133300089597FB092E07260AD077FD04D0E5DF40
S113331006D000201AF4709561957F4F0895F6F752
S1133320909581959F4F0895629FD001739FF001FE
S1133330829FE00DF11D649FE00DF11D929FF00D41
S1133340839FF00D749FF00D659FF00D9927729F78
S1133350B00DE11DF91F639FB00DE11DF91FBD0103
S1133360CF01112408952F923F924F925F926F9252
S11333707F928F929F92AF92BF92CF92DF92EF9201
S1133380FF920F931F93CF93DF93CDB7DEB7CA1B82
S1133390DB0B0FB6F894DEBF0FBECDBF09942A88AD
S11333A0398848885F846E847D848C849B84AA8455
S11333B0B984C884DF80EE80FD800C811B81AA81E2
S11333C0B981CE0FD11D0FB6F894DEBF0FBECDBFAD
S11333D0ED010895FB01DC0102C001900D92415002
S11333E05040D8F70895DC0101C06D93415050401E
S10933F0E0F70895FFCF91
S10D33F60100FF010022FFFFFF02A7
S9030000FC
