:1000000092C00000ADC00000ABC00000A9C000005D
:10001000A7C00000A5C00000A3C00000A1C0000050
:100020009FC000009DC000009BC0000099C0000060
:1000300097C0000095C0000093C0000091C0000070
:100040008FC000008DC000008BC0000089C0000080
:1000500087C0000085C0000083C0000081C0000090
:100060007FC000007DC000007BC0000079C00000A0
:1000700077C0000080C6000073C0000071C000009F
:100080006FC000006DC000006BC0000069C00000C0
:10009000D4C0000065C0000029C1000061C000009C
:1000A0005FC000005DC000005BC0000059C00000E0
:1000B00057C0000055C0000053C0000051C00000F0
:1000C0004FC000004DC000004BC0000049C0000000
:1000D00047C0000045C0000043C0000041C0000010
:1000E0003FC000003DC000003BC0000039C0000020
:1000F00037C0000035C0000033C0000031C0000030
:100100002FC000007BC20000B5C20000BDC20000CD
:1001100048C1000025C0000023C0000021C000002D
:1001200000020E060C0411241FBECFEFD1E4DEBF87
:10013000CDBF13E0A0E0B2E0E2E2F1E100E00BBFEE
:1001400002C007900D92A439B107D9F713E0A4E9D2
:10015000B3E001C01D92A83EB107E1F786D6E0C723
:100160004FCF782F7F71552782958695869583701E
:1001700099274817590719F080E090E013C0862F9F
:100180008850863118F081E090E00CC040E050E0EB
:10019000262F3327872F99272817390711F441E095
:1001A00050E0CA019927089580917C0008958091BC
:1001B000E1038F3F19F42FEF30E00EC0282F3327D3
:1001C000F901E456FC4F80818093E1038F3F11F4E5
:1001D0008093E7038FEF8083C9010895282F9FB78D
:1001E000F894E82FFF27E456FC4F80818F3F81F47D
:1001F000E091E703E21771F40BC02093E10304C020
:10020000FF27E456FC4F20832093E70320E007C03C
:1002100025E005C08091E1038F3F91F7EECF892F54
:1002200099278FBF822F9927089586E0D7DF9927D6
:10023000089587E0D3DF992708951F920F920FB694
:100240000F9211242F933F934F935F936F937F935C
:100250008F939F93AF93BF93EF93FF938091C800C9
:1002600087FF33C04091CE0040939403E091E403B4
:10027000F091E503309701F12091B3033091B4037D
:100280008091D9039091DA0328173907C8F4E20F57
:10029000F31F40838091B3039091B4030196909330
:1002A000B4038093B3032091D9033091DA0382170A
:1002B000930731F483E003C04093B70384E08EDFFB
:1002C0008091C8008F778093C800FF91EF91BF9114
:1002D000AF919F918F917F916F915F914F913F91DE
:1002E0002F910F900FBE0F901F9018951F920F9295
:1002F0000FB60F9211242F933F934F935F936F93F9
:100300007F938F939F93AF93BF93EF93FF93E0916E
:100310009803F0919903309771F12091DF033091A8
:10032000E0038091A5039091A6032817390780F474
:100330008091C80085FFFCCFE20FF31F808180937E
:10034000CE002F5F3F4F3093E0032093DF0313C0B5
:100350002817390781F41092A6031092A503109272
:10036000E0031092DF031092990310929803109209
:10037000B20382E033DF8091C8008F7B8093C80096
:10038000FF91EF91BF91AF919F918F917F916F916D
:100390005F914F913F912F910F900FBE0F901F9043
:1003A00018951F920F920FB60F9211248F93809180
:1003B000B8038F5F8093B8038F910F900FBE0F909B
:1003C0001F901895EF92FF920F931F937FB7F894A9
:1003D0006091B8032091E100822F2091E200922FDA
:1003E0002091E300A22F2091E400B22F9C01AD01E7
:1003F0008091E00083FF0FC06F5F8091E100E82EE5
:100400008091E200F82E8091E300082F8091E400B3
:10041000182FA8019701872F99278FBF7727882743
:100420009927FAE1660F771F881F991FFA95D1F770
:10043000E6E05695479537952795EA95D1F7622BD3
:10044000732B842B952B1F910F91FF90EF900895A4
:100450006F927F928F929F92AF92BF92CF92DF92D4
:10046000EF92FF920F931F93ADDF7B018C012091E0
:10047000AE033091AF034091B0035091B10380912E
:10048000AA039091AB03A091AC03B091AD03820F8E
:10049000931FA41FB51FE216F3060407150730F0DB
:1004A00082179307A407B50758F005C08217930772
:1004B000A407B507E0F5E816F9060A071B07B8F523
:1004C0009C01AD012E193F09400B510B213060E01A
:1004D000360760E0460762E0560768F180E090E08A
:1004E000A0E0B2E0E80EF91E0A1F1B1FE092AE0367
:1004F000F092AF030093B0031093B10380E090E05B
:10050000A0E0BEEFE80EF91E0A1F1B1F205030406E
:10051000404052402093AA033093AB034093AC0376
:100520005093AD0320E030E040E052E014C020E002
:1005300030E040E050E08093AE039093AF03A0938F
:10054000B003B093B1031092AA031092AB031092C0
:10055000AC031092AD0339014A01B6E0660C771C7A
:10056000881C991CBA95D1F7A6E0EE0CFF1C001F61
:10057000111FAA95D1F78091E100A82E8091E20089
:10058000B82E8091E300C82E8091E400D82EA601F9
:1005900095012E5F3F4F4F4F5F4FDA01C9018E1912
:1005A0009F09A00BB10B86159705A805B90530F476
:1005B000A8019701260D371D481D591D5093F800BD
:1005C0004093F7003093F6002093F50081E080938C
:1005D000E0008091DF0081608093DF008FEF8093E7
:1005E00091031F910F91FF90EF90DF90CF90BF90FC
:1005F000AF909F908F907F906F9008951F920F9271
:100600000FB60F9211242F933F934F935F936F93E5
:100610007F938F939F93AF93BF93EF93FF938091BB
:10062000DF008E7F8093DF008FEF809391038091B6
:10063000AA039091AB03A091AC03B091AD030097D6
:10064000A105B10519F485E0C9DD01C001DFFF9105
:10065000EF91BF91AF919F918F917F916F915F913A
:100660004F913F912F910F900FBE0F901F901895B3
:10067000A9CE08951F920F920FB60F9211240F90DA
:100680000FBE0F901F9018951F920F920FB60F92EA
:1006900011240F900FBE0F901F901895982F9695CC
:1006A00096959695EAEBF3E0E90FF11D877021E04E
:1006B00030E002C0220F331F8A95E2F78081822347
:1006C00099270895EF92FF920F931F93CF93DF9393
:1006D000982F8FB7F894E82E80919603833009F015
:1006E00042C080919203891709F03DC08091BA03FE
:1006F000882309F04AC03BC0EF2DE695E695E695C4
:10070000FF274F2D5527E654FC4F9A012770307074
:1007100081E090E002C0880F991F2A95E2F780954A
:10072000208128232083C093950310C02196C230D6
:10073000D10511F4C0E0D0E0FC2E8C2FAFDF882370
:10074000D9F6C017D10791F74FEF50E04093D80387
:100750008FEF8093920381E0809396036ADDEFBE72
:1007600080E090E018C0EFBE81E090E014C082E02D
:10077000809392031092960380917A008F778093F2
:100780007A008FEF80939103EACF80919503082F31
:100790001127E801CBCFDF91CF911F910F91FF90EF
:1007A000EF900895982F8FB7F894282F33278091D2
:1007B000B203882321F02FBF85E090E0089581E007
:1007C0008093B2032FBF8091C8008F7B8093C800B5
:1007D0008091C9008F7B8093C9009093CE00809157
:1007E000C80080648093C8008091C80086FFFCCF59
:1007F0008091C8008F7B8093C8008091C80080647E
:100800008093C8008091C90080648093C9008FB72D
:10081000F89499271092B2038FBF80E090E008957A
:10082000EF92FF920F931F93A92FBB27FD0104E0C6
:10083000F695E7950A95E1F7E050FE4FE080AF703E
:10084000B070A050BE4FFC90FC01E07FF07014E04F
:10085000F695E7951A95E1F7E050FE4F00818F700D
:10086000907080509E4FFC01108180E39BDF88E7F1
:1008700099DF8E2D97DF8F2D95DF802F93DF812FCE
:1008800091DF8CE78FDF809197038F5F80939703D1
:10089000883031F48DE086DF8AE084DF10929703A0
:1008A00080E090E01F910F91FF90EF9008958FB737
:1008B000F89499272EB134E023272EB98FBF0895DD
:1008C0008FB7F89499272EB130E123272EB98FBF27
:1008D0000895CF92DF92EF92FF920F931F93809132
:1008E000E603882339F0813011F480E001C08EE105
:1008F000DD2403C033E0D32E89E2E82EFF24CFB6F7
:10090000F8941091A803812F8E7F8093A8034CDC6C
:100910004D2D6E2D26DC8170880F10782E2D2F71B5
:10092000922F990F990F182B192B1093A803E5FEFE
:1009300004C080917B00886003C080917B00877F2A
:1009400080937B00DD0CDD0CDD0CDD0CDD0CDD0CA3
:100950002D29822F992780937C0088ED90E0809349
:100960007A008C2D99278FBF1F910F91FF90EF90E8
:10097000DF90CF90089591E09093B5038093E603C4
:10098000A8CF0F931F93CF93DF93182F8FB7F894AF
:10099000282F3327022F80919603882309F030C037
:1009A00081E0809396031093D8032FBF2FB7F8945C
:1009B000332780917A00806880937A008FEF80934C
:1009C00091032FBF8FB7F894C82FDD279C2F8091FC
:1009D0009203823099F480919603813011F429DCDE
:1009E00009C0823059F48091D8038093920383E048
:1009F00080939603CFBF80E090E024C09FBFFBCFE1
:100A00008091D803811711F42FBFF5CF812F46DED7
:100A1000882319F085E090E014C0E12FE695E69573
:100A2000E695FF27E654FC4F177081E090E002C086
:100A3000880F991F1A95E2F72081282B208380E0E8
:100A400090E00FBFDF91CF911F910F910895AF926A
:100A5000BF92CF92DF92EF92FF920F931F93CF93AB
:100A6000DF935B016C01C0E0D0E0EBEBF3E060856D
:100A700061FF36C02081318142815381E480F5805D
:100A800006811781D601C501821B930BA40BB50B00
:100A90008E159F05A007B10718F160FF03C06D7F99
:100AA000608708C02E0D3F1D401F511F20833183DA
:100AB00042835383C13039F0C13018F0C230B1F4F1
:100AC0000BC0F5DE13C08FB7F89499272EB138E02C
:100AD00023272EB98FBF0AC0F3DE80E052DF06C0A5
:100AE00021963996C330D10509F0C1CF9EDBDF9145
:100AF000CF911F910F91FF90EF90DF90CF90BF901B
:100B0000AF9008950F931F932093DB033093DC0382
:100B10004093DD035093DE030093A7030FB7F894CF
:100B200011276093AE037093AF038093B00390934B
:100B3000B1032093AA033093AB034093AC035093CB
:100B4000AD0386DC0FBF1F910F9108958F929F9286
:100B5000AF92BF92CF92DF92EF92FF920F931F93CB
:100B6000863009F44AC0873030F4833059F085303C
:100B700009F0CAC01AC0873009F48CC0883009F067
:100B8000C3C09FC01092E5031092E4031092DA03F1
:100B90001092D9031092B4031092B3038FB7F89454
:100BA000992710929A038FBFAFC08091A703882323
:100BB00011F52091DB033091DC034091DD0350916E
:100BC000DE03EFB7F894FF276091AE037091AF0397
:100BD0008091B0039091B103E090AA03F090AB0331
:100BE0000091AC031091AD036E0D7F1D801F911F0E
:100BF000EFBF00E087DF3CDD44C03ADD6B017C01E4
:100C00008091DF008E7F8093DF008FEF80939103D0
:100C10004FEF842E4FEF942E4FEFA42E4FE7B42EBC
:100C200060E0EBEBF3E0808581FF1CC08081918167
:100C3000A281B381A7019601281B390B4A0B5B0BDC
:100C4000DA01C9012481358146815781281B390B7E
:100C50004A0B5B0B281539054A055B051CF4490155
:100C60005A0161E0399633E0E63DF307E1F6662389
:100C700009F44AC0181419041A041B0424F0C7010B
:100C8000B601E5DE41C001E0A5019401C701B6014E
:100C900039DF3AC08FB7F89499272091D803209371
:100CA000920323E0209396038FBF809192038823C1
:100CB00019F0813049F502C080E001C081E05BDEBF
:100CC00023C01092B503E090D603F090D703809133
:100CD000E603882319F0813039F403C080E0F2DCA8
:100CE00008C081E0EFDC0BC0882319F0813061F48B
:100CF00006C084E557DDC70193DDE2DD05C086E56A
:100D000051DDC7018DDDD3DD1F910F91FF90EF9075
:100D1000DF90CF90BF90AF909F908F90089547DA6B
:100D20008F3F19F480E090E0089510DF81E090E0BB
:100D30000895DF92EF92FF920F931F93D82E7A01BE
:100D40008B0196DC29E0D29EF0011124E554FC4F82
:100D50006083718382839383E482F58206831783A1
:100D600080858E7F8260808760DA1F910F91FF906F
:100D7000EF90DF9008951F920F920FB60F921124FB
:100D80002F933F934F935F936F937F938F939F9393
:100D9000AF93BF93EF93FF93409178005091790008
:100DA00078948FB7F89499272091A803322F36951D
:100DB000317021708FBF2223E9F480917A00877F00
:100DC00080937A008091B503813021F0823009F060
:100DD0003BC009C0332349F05093D7034093D60357
:100DE00088E0FCD931C0332311F473DD2DC010929B
:100DF000B5032AC08FB7F89499278FBF2FB7F894FF
:100E0000332780917A00582F5770482F4072987D71
:100E1000942B952B8074977B982B90619F77892FCB
:100E2000992780937A00887D842B852B8773806136
:100E3000992780937A00887D842B852B877B806916
:100E4000992780937A002FBFFF91EF91BF91AF91C7
:100E50009F918F917F916F915F914F913F912F91D2
:100E60000F900FBE0F901F9018951F93CF93DF9395
:100E70001FB7F89414BE88E10FB6F8948093600011
:100E8000109260000FBE49E050E06FEF70E08CE917
:100E900093E03FD18FEF8093E1038093E70385B721
:100EA000806885BF85B7806885BF80E880936100D2
:100EB0008FE08093610091E09093810080E28093C5
:100EC000B6009093B100AEEFE0E0F0E06FEF7FEF9F
:100ED000B0E08091B2008823E1F740918400509106
:100EE00085008091B2008034E1F720918400309138
:100EF0008500241B350B6217730708F4B9012E1700
:100F00003F0708F4F901CF01861B970B029730F0D9
:100F1000B0E06FEF7FEFE0E0F0E003C0BF5FB2331F
:100F200010F4A150B1F63093E3032093E203109242
:100F3000B1008091B1008093810080918100809305
:100F4000B6008091B600992783709070892BC9F7FD
:100F50008091DF008E7F8093DF008091DC008E7FA8
:100F60008093DC0080E28093B6008091DC008F7C6F
:100F700080638093DC008FEF809391038091DF008A
:100F800088608093DF0084E48093B9038091C80077
:100F90008F778093C8008091C8008F7B8093C800B2
:100FA0008091C80082608093C8008091C9008F7DC5
:100FB0008093C9008091C9008B7F8093C900809184
:100FC000C90080688093C9008091C90080648093C3
:100FD000C9008091C90080618093C9008091C900D7
:100FE00088608093C9008091CA008F778093CA007F
:100FF0008091CA008F7B8093CA008091CA008F7D48
:101000008093CA008091CA008F7E8093CA0080912D
:10101000CA008E7F8093CA008091CA00846080934A
:10102000CA008091CA0082608093CA001092CD00ED
:1010300082E28093CC0010929A031092B203109235
:10104000E5031092E4031092990310929803109212
:10105000B4031092B3031092E0031092DF031092D6
:10106000DA031092D9031092A6031092A5031092EE
:101070007A006A9A6B9A6C9A729A739A749A81E05F
:1010800085BF8091390182608093390148DE8823D1
:10109000E9F71092BA0343DE8823E9F7812F9927F5
:1010A0008FBF789449E152E060E070E080E041DE7B
:1010B00044EF51E060E070E081E03BDE48EE53E059
:1010C00060E070E082E035DE8FB7F894C82FDD274E
:1010D0001AC08091910387FF0DC080917A008091A2
:1010E000DC001092910383B7E0E2F1E0E491807FAD
:1010F0008E2B83BF83B7816083BF78948895F894E3
:1011000083B78E7F83BF53D88F3F19F3CFBF1EDDC8
:10111000DBCFDC0101C06D9341505040E0F70895F2
:02112000FFCFFF
:10112200303132333435363738394142434445461B
:1011320000232323232323232323232323232323A0
:10114200232323232323232323232323232323236D
:10115200232323232323232323232323232323235D
:10116200232323232323232323232323232323234D
:10117200230D0A230D0A2309416C702053617969FA
:101182006E0D0A2309616C705F736179696E5B6130
:10119200745D696565655B646F745D6F72670D0A86
:1011A200230931342F31312F323031310D0A2309E5
:1011B2004B544820526F79616C20496E7374697484
:1011C200757465206F6620546563686E6F6C6F6717
:1011D200790D0A230D0A23094E6F7465733A0D0ABD
:1011E200230957656C636F6D6520746F2054696EB7
:1011F200794F5320322E312E31206F6E2041746D83
:10120200656761313238524641310D0A230954680B
:1012120069732069732074686520776F726B696ED9
:10122200672064656D6F20666F7220426C696E6B19
:10123200430D0A230949742073686F756C64206139
:101242006C736F206563686F20746865206B6579C5
:101252007320636F6D696E672066726F6D207365B0
:101262007269616C20706F72740D0A230D0A232358
:10127200232323232323232323232323232323233C
:10128200232323232323232323232323232323232C
:10129200232323232323232323232323232323231C
:1012A20023232323232323232323232323230D0A3B
:0412B20000FF020037
:00000001FF
