S01D00006275696C642F726362313238726661312F6D61696E2E73726563B8
S11300000C9493000C94B2000C94B2000C94B200C3
S11300100C94B2000C94B2000C94B2000C94B20094
S11300200C94B2000C94B2000C94B2000C94B20084
S11300300C94B2000C94B2000C94B2000C94B20074
S11300400C94B2000C94B2000C94B2000C94B20064
S11300500C94B2000C94B2000C94B2000C94B20054
S11300600C94B2000C94B2000C94B2000C94B20044
S11300700C94B2000C94B2000C94B2000C94B20034
S11300800C94B2000C94B2000C94B2000C94B20024
S11300900C94E1000C94B2000C943B010C94B2005B
S11300A00C94B2000C94B2000C94B2000C94B20004
S11300B00C94B2000C94B2000C94B2000C94B200F4
S11300C00C94B2000C94B2000C94B2000C94B200E4
S11300D00C94B2000C94B2000C94B2000C94B200D4
S11300E00C94B2000C94F80A0C9459040C94F8097A
S11300F00C94CF0A0C94540A0C9463040C94A60A2E
S11301000C947D0A0C94AD020C94210A0C94CA033D
S11301100C9497010C94B2000C94B2000C94B200AD
S113012000020E060C0411241FBECFEFD1E4DEBF83
S1130130CDBF13E0A0E0B2E0ECE0FCE200E00BBFD6
S113014002C007900D92AC3BB107D9F715E0ACEBB8
S1130150B3E001C01D92AA37B107E1F70E94960FE0
S11301600C9405160C9400008FB7F8949927089501
S11301708FBF0895282F9FB7F894E82FFF27E153E6
S1130180FC4F80818F3F81F4E0913E05E21771F4CA
S11301900BC020939A0404C0FF27E153FC4F208333
S11301A020933E0520E007C025E005C080919A0415
S11301B08F3F91F7EECF892F99278FBF822F9927F1
S11301C008951F920F920FB60F9211242F933F930D
S11301D04F935F936F937F938F939F93AF93BF934B
S11301E0EF93FF938091C80087FF34C04091CE0005
S11301F04093BC03E0919D04F0919E04309701F17B
S113020020912704309128048091880490918904D6
S113021028173907D0F4E20FF31F40838091270495
S113022090912804019690932804809327042091A8
S11302308804309189048217930739F483E003C05A
S113024040935E0484E00E94BA008091C8008F77D6
S11302508093C800FF91EF91BF91AF919F918F91CF
S11302607F916F915F914F913F912F910F900FBEAE
S11302700F901F9018951F920F920FB60F92112492
S11302802F933F934F935F936F937F938F939F939A
S1130290AF93BF93EF93FF93E091C203F091C30335
S11302A0309779F120919804309199048091DD037D
S11302B09091DE032817390780F48091C80085FFE8
S11302C0FCCFE20FF31F80818093CE002F5F3F4F5E
S11302D0309399042093980414C02817390789F49B
S11302E01092DE031092DD03109299041092980488
S11302F01092C3031092C2031092250482E00E945C
S1130300BA008091C8008F7B8093C800FF91EF9161
S1130310BF91AF919F918F917F916F915F914F9119
S11303203F912F910F900FBE0F901F9018951F9221
S11303300F920FB60F9211248F93809161048F5FF7
S1130340809361048F910F900FBE0F901F901895AA
S11303504FB7F89455272091E100622F2091E200D5
S1130360722F2091E300822F2091E400922F4FBF3F
S113037008950F931F930FB7F894109161040E948E
S1130380A8019B01AC018091E00083FF05C01F5FC1
S11303900E94A8019B01AC01802F99278FBF612F78
S11303A0772788279927FAE1660F771F881F991FF7
S11303B0FA95D1F7E6E05695479537952795EA954E
S11303C0D1F7622B732B842B952B1F910F910895DA
S11303D0AF92BF92CF92DF92EF92FF920F931F934F
S11303E00E94B9017B018C012091EF033091F0034D
S11303F04091F1035091F2038091EB039091EC034F
S1130400A091ED03B091EE03820F931FA41FB51FBB
S1130410E216F3060407150730F082179307A407C2
S1130420B50758F005C082179307A407B507E0F590
S1130430E816F9060A071B07B8F59C01AD012E1949
S11304403F09400B510B213060E0360760E046075E
S113045062E0560768F180E090E0A0E0B2E0E80EC8
S1130460F91E0A1F1B1FE092EF03F092F0030093A2
S1130470F1031093F20380E090E0A0E0BEEFE80EF9
S1130480F91E0A1F1B1F2050304040405240209349
S1130490EB033093EC034093ED035093EE0320E021
S11304A030E040E052E014C020E030E040E050E0B2
S11304B08093EF039093F003A093F103B093F203BE
S11304C01092EB031092EC031092ED031092EE03E2
S11304D059016A01B6E0AA0CBB1CCC1CDD1CBA9500
S11304E0D1F7A6E0EE0CFF1C001F111FAA95D1F74F
S11304F00E94A8019B01AC012E5F3F4F4F4F5F4FFD
S1130500DA01C9018E199F09A00BB10B8A159B054D
S1130510AC05BD0530F4A80197012A0D3B1D4C1D07
S11305205D1D5093F8004093F7003093F60020933C
S1130530F50081E08093E0008091DF00816080938A
S1130540DF008FEF8093B7031F910F91FF90EF901F
S1130550DF90CF90BF90AF9008951F920F920FB687
S11305600F9211242F933F934F935F936F937F9335
S11305708F939F93AF93BF93EF93FF938091DF008B
S11305808E7F8093DF008FEF8093B7038091EB031E
S11305909091EC03A091ED03B091EE030097A105B7
S11305A0B10521F486E00E94BA0002C00E94E8016D
S11305B0FF91EF91BF91AF919F918F917F916F9137
S11305C05F914F913F912F910F900FBE0F901F900D
S11305D01895FB0121E030E002C0220F331F8A95F9
S11305E0E2F787A5822B87A70895FC0182819927CA
S11305F0982F882721813327822B932B25E09695EA
S113060087952A95E1F7817090700895FC0140E088
S113061050E082819927982F882721813327822BC4
S1130620932B87749C7C8154984811F441E050E0EA
S1130630CA010895FC0187819927982F882726816C
S11306403327822B932B0895EF92FF920F931F93DE
S1130650CF93DF937B018C018FB7F894C82FDD27EC
S11306600E94A8019B01AC01C801B7016230710569
S11306708105910520F462E070E080E090E0260FAF
S1130680371F481F591FDA01C901B093F400A09322
S1130690F3009093F2002093F10082E08093E00055
S11306A08091DF0082608093DF008FEF8093B70337
S11306B0CFBFDF91CF911F910F91FF90EF900895DD
S11306C020E030E0FC0181818770823011F421E068
S11306D030E0C9010895CF93DF93EC010E94F50245
S11306E08823D1F0CE010E9406038823A9F0CE010D
S11306F00E941A032FB7F89433274091B9035091FD
S1130700BA032FBF20E08417950709F021E081E0A8
S11307102827822F992702C080E090E0DF91CF91B3
S11307200895FB0121E030E002C0220F331F8A95B7
S1130730E2F787A58223992708958091E503823003
S113074031F481E08093E5038BE00E94BA000895C0
S1130750EF92FF920F931F937C018FB7F894992720
S113076000917D0410917E040F5E1E4F10937E0451
S113077000937D04015111408FBF8DE00E94BA00A7
S1130780C801B7010E94D51244961F910F91FF90A2
S1130790EF9008951F920F920FB60F9211240F90AD
S11307A00FBE0F901F901895AC018FB7F894282FA7
S11307B0332780912504882321F02FBF85E090E022
S11307C0089581E0809325042FBF5093C303409381
S11307D0C2037093DE036093DD0320E030E0FA018E
S11307E01DC08091C9008F7B8093C9008091C8008F
S11307F085FFFCCF80818093CE008091C80086FF66
S1130800FCCF8091C80080648093C8008091C900A7
S113081080648093C9002F5F3F4F319626173707B6
S113082001F78FB7F8949927109225048FBF10927F
S11308302A0480E00E94BA0080E090E00895EF92DC
S11308400F931F93AE2D99E0899FF0011124EC5969
S1130850FB4F408351836283738304831583268310
S11308603783A17080858E7F8A2B8260808787E0A2
S11308700E94BA001F910F91EF9008950F931F9358
S11308800FB7F89411276093EF037093F0038093EC
S1130890F1039093F2032093EB033093EC03409322
S11308A0ED035093EE030E94E8010FBF1F910F91D7
S11308B008951F920F920FB60F9211240F900FBE3E
S11308C00F901F9018951F920F920FB60F9211243C
S11308D00F900FBE0F901F9018951092290421E0DD
S11308E0209376040E94240308958093A10488230E
S11308F011F484E001C081E08093E5038BE00E9461
S1130900BA0008952F923F924F925F926F927F9216
S11309108F929F92AF92BF92CF92DF92EF92FF920B
S11309200F931F93CF93DF932C018091DF038823D0
S113093009F0F3C080912B04853009F0EEC080915A
S11309408104882309F0E9C0B20182E00E94910386
S1130950882311F490E002C0F20191A9809163040C
S1130960981731F0909363049F70906C90934501B5
S1130970C2010E9406038823A9F0809146019927A9
S11309808F7190702091A0044091CB03240F312DDE
S1130990311D43E0359527954A95E1F72817390726
S11309A00CF4BBC089E080934201B20184E00E9450
S11309B09103882319F4C0E0D0E006C0F2018081DD
S11309C08550E201C80FD11D809141018F7189309A
S11309D021F087E080932B04A0C052010894A11C4D
S11309E0B11CF20180819927809380018250873065
S11309F010F4982F01C097E0D82ED91AE92EFF24BD
S1130A00A701B50181E891E00E943F130FB7F89464
S1130A10112782E0809342010E94A8013B014C010E
S1130A200FBF81E8282E81E0382E2E0C3F1CED2DBF
S1130A30FF27B5016E0D7F1D209709F456C028814C
S1130A40E9808A81AB809927AA27BB27BA2FA92FCF
S1130A50982F8827332744275527522F4427332795
S1130A602227FF24002711278701FF24EE242E29A3
S1130A703F29402B512BBB24CC24DD242A293B299C
S1130A804C295D29822B932BA42BB52B861997090E
S1130A90A809B9098B83292F3A2F4B2F55272A836D
S1130AA09D014427552729838B2F9927AA27BB27E4
S1130AB08883AF01C1010E943F1396E090932B04F9
S1130AC084E08093DF03909342016B82BB27A92DBE
S1130AD0982D872D8A83C401AA27BB278983892D52
S1130AE09927AA27BB2788830CC0AF01C1010E94A4
S1130AF03F1396E090932B0484E08093DF0390935C
S1130B004201B20181E00E94E902F20163A674A6E7
S1130B1085A696A680E090E002C085E090E0DF9193
S1130B20CF911F910F91FF90EF90DF90CF90BF90E6
S1130B30AF909F908F907F906F905F904F903F9079
S1130B402F9008956F927F928F929F92AF92BF924F
S1130B50CF92DF92EF92FF920F931F93CF93DF9385
S1130B6090918104992309F4E5C01092810497FFC0
S1130B7007C080912B04823019F483E080932B0406
S1130B80E92EFF24E0FE11C08091DF03833011F0D1
S1130B90873059F485E080932B0480914C01806860
S1130BA080934C0188E08093DF03E4FE0CC08091C5
S1130BB0DF03863041F48091410187FF04C0109225
S1130BC0DF0380914101E2FE50C08091DF03863053
S1130BD019F41092DF0303C0882309F046C0C091C2
S1130BE07305D0917405943099F5109146011F71E5
S1130BF08091CB03982F96959695212F291B820FD0
S1130C008093CB038FA58B7F8FA7BE0183E00E94C7
S1130C10E90219AB2FB7F89433278091E900682EC5
S1130C208091EA00782E8091EB00882E8091EC0070
S1130C30982E2FBF0091730510917405B80181E0BF
S1130C400E94E902F80163A674A685A696A60AC0C6
S1130C508FA5877F8FA7E0917305F091740587A511
S1130C608D7F87A785E08093DF03E6FE43C08091F4
S1130C70DF03843009F03EC085E080932B0410929A
S1130C80DF038091CC03833019F41092CC0332C07B
S1130C9000913F0510914005C8010E94F502882388
S1130CA011F1C8010E9406038823E9F0C8010E94DB
S1130CB01A038F5F9F4FB9F090E0809176048823E8
S1130CC009F491E0992379F081E0809329048093D9
S1130CD0760468E371E080E090E00E94240382E0FF
S1130CE08093CC0307C01092CC031092E60380E0FB
S1130CF00E947504E3FE1EC09091DF039530D1F489
S1130D0080912B04873031F486E0809342019093E4
S1130D102B040CC08091A004909146019F71282F50
S1130D2026952695921B890F8093A00489E08093D1
S1130D30DF0308C09091DF03992309F43FC299307F
S1130D4009F0CCC140917B01433008F468C0842F82
S1130D50992789970CF063C0E0917305F0917405AD
S1130D606F010894C11CD11C40830EEFF02EF40EC9
S1130D7026E02F1510F0EF2C02C017E0E12E0E2D07
S1130D801127A80160E871E0C6010E943F13C091D9
S1130D907305D0917405CE010E9460038823C1F0CD
S1130DA08091CC03823089F48B81E0913F05F091EE
S1130DB040059381891749F4898190E087708230D6
S1130DC009F091E081E098270EC080E090E00DC02A
S1130DD08FB7F894282F332790E0809182048330D2
S1130DE008F491E02FBF892F9927892BC1F0FE18B1
S1130DF04F2D5527B80160587E4FC601800F911FB3
S1130E000E943F13E0917B01FF27E058FE4F808151
S1130E10E0917305F091740580AB21E001C020E0FE
S1130E2080914601992787709070892B09F068C2D8
S1130E3080914C018F7780934C0180914C018068A4
S1130E4080934C0185E080932B041092DF032223CE
S1130E5009F4B0C1A0907305B0907405C5010E9457
S1130E606003282F3327122F8091CC038230F9F4AA
S1130E708091DF008D7F8093DF008FEF8093B70335
S1130E8010927604E0913F05F0914005222329F069
S1130E90BF0180E00E94E90203C087A58E7F87A777
S1130EA01092CC031092E60380E00E947504112393
S1130EB009F00FC1C5010E946B038823A9F085E0E6
S1130EC080932C0482E080932D0410922E04F5016B
S1130ED0838180932F048CE294E00E94820488230F
S1130EE019F483E08093CC030E94A8016B017C0178
S1130EF0C5010E946B03882341F086E390E0A0E0E3
S1130F00B0E0C80ED91EEA1EFB1E8601D092600412
S1130F10C0925F040E94A801061B170B101611064D
S1130F20C4F48091E603882389F490E080917604E8
S1130F30882309F491E0992361F0B801882777FDAB
S1130F408095982F0E946D0480E801C0806880938A
S1130F50E60375010894E11CF11CF50181852085E7
S1130F609927582F44273327422B532B8091CD03A5
S1130F70282F3327F901EE0FFF1FE657FB4F80811F
S1130F809181709177048417950769F4F901E75CFE
S1130F90FA4F8081871709F467C0872F8F5F80938A
S1130FA0770480831DC000E010E080E090E0CAE890
S1130FB0D4E0E9E3F5E0DF01682F9C0188819981A1
S1130FC08417950779F42093CD03909177048C913D
S1130FD0891709F449C0892F8F5F809377048C9314
S1130FE000E829C08081972F981B091710F4092F56
S1130FF0122F6F5FC90101961196229631968530A2
S11310009105D1F66530B9F41093CD03A12FBB2718
S1131010FD01EE0FFF1FE657FB4F51834083809184
S113102077048F5F80937704FD01E75CFA4F808338
S1131030AB58BA4F1C9290917704892F8F778F37D2
S113104079F40F3768F0E9E3F5E0292F20788081FF
S11310508F67891320833196A5E0EE33FA07B9F739
S11310608091CD03282F3327F7019281A22FBB272C
S1131070FD01EB58FA4F808180FF07C0FD01ED5759
S1131080FB4F8081981729F102C081608083AD579E
S1131090BB4F9C93FFB6F894809182048330B0F4E4
S11310A0E0919F04E80FE33008F0E350FF27EE0FD0
S11310B0FF1FEC53FC4F00811181B182A0828F5F2E
S11310C0809382048CE00E94BA0058018F2D9927E6
S11310D08FBFB0927405A092730563C0292F21506D
S11310E0233008F049C0892F8250823070F48091F7
S11310F02B04813051F48DEC80934E0180913901A1
S11311008D7F8093390182E01CC0933071F480910B
S11311102B04833051F48091380580668093480114
S113112086E08093420184E00CC0223060F4809118
S11311302B04853041F488E08093420110928104AD
S113114083E080932B049091DF03913071F48091BC
S11311502B04833079F510924E018091390182601D
S11311608093390190932B0418C09230D1F480916C
S11311702B048330F9F411C0973099F480912B0437
S1131180853011F0882349F4809138058066809376
S1131190480184E080932B0404C088E08093DF033B
S11311A004C08091DF03883029F41092DF038AE0C1
S11311B00E94BA008091DF038823D1F480912B042C
S11311C08530B1F480918104882391F48091CC031B
S11311D0882371F48091E603882351F490E0809190
S11311E07604882309F491E0992311F00E949D0369
S11311F080917604823009F076C010927604809152
S11312002904882321F0813009F06DC065C0C091A4
S11312105F04D09160040E94A8012091E603203865
S113122029F41092E6030E949D035DC08E01061B03
S1131230170B27FF03C010161106F4F0C091E30347
S1131240D091E4038091CC038823B1F4CE010E94B1
S113125082049927882359F48FA58E7F8FA781E074
S11312608093CC03D0934005C0933F0531C09927A8
S1131270F82E882369F102C055E0F52E2091E6038B
S1131280822F99278F77019779F420782260209311
S1131290E6038CE890E00E94A803AA27BB27BC01C0
S11312A0CD010E946D041FC027FF0EC01016110649
S11312B05CF480E88093E603B801882777FD809585
S11312C0982F0E946D0402C01092E6038F2D09C06E
S11312D083E08093E60307C01092CC031092E603E8
S11312E080E00E9475048FB7F894282F33278091EB
S11312F0E1038130A9F081E08093E1032FBF30CC7A
S113130080914C018F7780934C0180914C018068CF
S113131080934C0185E080932B041092DF034ACF25
S11313201092E1032FBFDF91CF911F910F91FF9096
S1131330EF90DF90CF90BF90AF909F908F907F9071
S11313406F9008958FB7F894282F33278091E10385
S113135081508093E103803811F02FBF089581E01C
S11313608093E1032FBF0E94A20508958FB7F894DC
S1131370282F33278091E103882329F08068809304
S1131380E1032FBF089581E08093E1032FBF0E9402
S1131390A20508951F938FB7F89499272091E1032C
S11313A02F5F2093E1038FBF8091E503882311F021
S11313B015E018C08091DF03882389F480912B0401
S11313C0853019F489E090E00CC083E08093DF035A
S11313D00E94B60985E08093E50310E003C085E030
S11313E090E0182F0E94A209812F99271F91089538
S11313F01F920F920FB60F9211242F933F934F9386
S11314005F936F937F938F939F93AF93BF93EF9368
S1131410FF93809181048460809381040E94B609C3
S1131420FF91EF91BF91AF919F918F917F916F91B8
S11314305F914F913F912F910F900FBE0F901F908E
S113144018951F920F920FB60F9211242F933F936A
S11314504F935F936F937F938F939F93AF93BF93B8
S1131460EF93FF938091DF008D7F8093DF008FEFF8
S11314708093B70380917604813019F482E08093DD
S113148076040E94B609FF91EF91BF91AF919F91AD
S11314908F917F916F915F914F913F912F910F9019
S11314A00FBE0F901F9018951F920F920FB60F92B8
S11314B011242F933F934F935F936F937F938F9355
S11314C09F93AF93BF93EF93FF93809181048061C7
S11314D0809381040E94B609FF91EF91BF91AF916F
S11314E09F918F917F916F915F914F913F912F9138
S11314F00F900FBE0F901F9018951F920F920FB66A
S11315000F9211242F933F934F935F936F937F9385
S11315108F939F93AF93BF93EF93FF938091810435
S11315208068809381040E94B609FF91EF91BF9176
S1131530AF919F918F917F916F915F914F913F9167
S11315402F910F900FBE0F901F9018951F920F921E
S11315500FB60F9211242F933F934F935F936F9382
S11315607F938F939F93AF93BF93EF93FF93809158
S113157081048064809381040E94B609FF91EF91F5
S1131580BF91AF919F918F917F916F915F914F9197
S11315903F912F910F900FBE0F901F9018951F929F
S11315A00F920FB60F9211242F933F934F935F9393
S11315B06F937F938F939F93AF93BF93EF93FF9317
S11315C0809181048860809381040E94B609FF9110
S11315D0EF91BF91AF919F918F917F916F915F91A7
S11315E04F913F912F910F900FBE0F901F90189520
S11315F01F920F920FB60F9211242F933F934F9384
S11316005F936F937F938F939F93AF93BF93EF9366
S1131610FF93809181048160809381040E94B609C4
S1131620FF91EF91BF91AF919F918F917F916F91B6
S11316305F914F913F912F910F900FBE0F901F908C
S11316401895AF92BF92CF92DF92EF92FF920F93D1
S11316501F935B016C0160916C0461FF20C02091B9
S11316606404309165044091660450916704E090ED
S11316706804F090690400916A0410916B04D60127
S1131680C501821B930BA40BB50B8E159F05A007F8
S1131690B10728F0E4E6F4E0A0E0B0E021C0EDE614
S11316A0F4E06091750461FF2EC020916D043091C7
S11316B06E0440916F0450917004E0907104F090B6
S11316C072040091730410917404A21AB30AC40A38
S11316D0D50AAE14BF04C006D106A8F0A1E0B0E05C
S11316E060FF04C080858D7F808708C02E0D3F1D5C
S11316F0401F511F2083318342835383A13019F447
S113170089E00E94BA0087E00E94BA001F910F91FD
S1131710FF90EF90DF90CF90BF90AF9008952F92FD
S11317203F924F925F926F927F928F929F92AF926D
S1131730BF92CF92DF92EF92FF920F931F93CF93BA
S1131740DF93CDB7DEB7A9970FB6F894DEBF0FBE0F
S1131750CDBF883009F4B8C1893090F4853009F4DC
S113176041C0863030F48330F1F0843009F0A8C3EE
S11317702CC0863009F4F3C0873009F0A1C322C11C
S11317808B3009F46BC28C3038F4893009F4A8C169
S11317908A3009F095C323C28C3009F4B1C28D306C
S11317A009F08EC330C310929E0410929D041092CF
S11317B089041092880410922804109227048FB789
S11317C0F89499271092CA0389C180915E042FB7B7
S11317D0F894332799279093BE038093BD032FBFBA
S11317E085E08BC28FB7F89499272091BD0330917F
S11317F0BE038FBF80912604882309F061C3F22EB3
S11318002093FE03832F99278093FD0303EF13E0B6
S1131810C8010E940603882369F48091F403992780
S113182080739070816498688093F403892F99275A
S11318308093F5038DE08093F3032FB7F894332757
S11318408091B9039091BA032FBF8093FB03892F32
S113185099278093FC038FEF8093F9038093FA0315
S11318602FB7F89433278091BB032FBF9927809318
S1131870F7031092F8038091C1038F5F8093C10333
S11318808093F6038091C003882319F085E090E0EB
S113189027C080911A0490911B04892B89F0209110
S11318A0F5033327322F22278091F403992780628E
S11318B0282B392B2093F403232F33272093F5036C
S11318C01093800400937F0410927C0410927B0494
S11318D081E08093C00389E00E94BA0080E090E038
S11318E0892B09F0EDC28FB7F894282F3327809104
S11318F02504882311F02FBF2EC081E08093250496
S11319002FBF8091C8008F7B8093C8008091C9004D
S11319108F7B8093C900F092CE008091C8008064D0
S11319208093C8008091C80086FFFCCF8091C800D6
S11319308F7B8093C8008091C80080648093C80026
S11319408091C90080648093C9008FB7F894992767
S1131950109225048FBF81E080932604B1C2809148
S1131960E003882361F5209194043091950440911B
S1131970960450919704EFB7F894FF276091EF0312
S11319807091F0038091F1039091F203E090EB03E6
S1131990F090EC030091ED031091EE036E0D7F1DAA
S11319A0801F911FEFBF20939404309395044093BC
S11319B09604509397041092E0030E943E040E9400
S11319C0B9016FC00E94B9015B016C018091DF0015
S11319D08E7F8093DF008FEF8093B70380916C0438
S11319E081FF25C08091640490916504A0916604F0
S11319F0B0916704A6019501281B390B4A0B5B0BB8
S1131A00E0906804F090690400916A0410916B04FA
S1131A10E21AF30A040B150B3FEFE3163FEFF3064C
S1131A203FEF03073FE7130711F061E009C0FFEF41
S1131A30EF2EFFEFFF2EFFEF0F2FFFE71F2F60E0CA
S1131A408091750481FF21C080916D0490916E0492
S1131A50A0916F04B0917004A6019501281B390B65
S1131A604A0B5B0BDA01C9012091710430917204B5
S1131A704091730450917404281B390B4A0B5B0B7F
S1131A802E153F05400751072CF0662309F418C2B0
S1131A90A801970112161306140615062CF0C601A8
S1131AA0B5010E94210B0CC2209394043093950439
S1131AB0409396045093970481E08093E003C60119
S1131AC0B5010E943E04FCC18FB7F8949927209178
S1131AD0E2032093B80322E02093BF038FBFF0C139
S1131AE000917F0410918004F801E7A0F0A4809194
S1131AF0C003823091F5E114F10431F0B80180E0C3
S1131B000E949103882311F084E022C080917B0419
S1131B1090917C04019690937C0480937B048E15B1
S1131B209F05A8F481E08093C003F80101A512A5E4
S1131B3001151105A1F00E94B901AB01BC012227D6
S1131B403327E1E0EE2E81E00E941F04B9C185E055
S1131B508093C0038091C00326C0813021F582E0C8
S1131B608093C00340917F04509180042FB7F89470
S1131B7033278091E1038F5F8093E1032FBF80912E
S1131B80E503882369F450937A044093790481E04F
S1131B908093E503109278048BE00E94BA00A6C0FB
S1131BA00E94A209A9C0843008F48AC1EF2851F028
S1131BB0E0917F04F091800480917B0490917C04F7
S1131BC090A787A31092C00380917F049091800412
S1131BD0835F934009F074C11092260471C180910F
S1131BE0E5031092E503853081F58FB7F8949927C2
S1131BF02091B9033091BA038FBF8E010F5F1F4F3D
S1131C003F932F9380E092E09F938F931F930F93C2
S1131C100E944F139927BC01C8010E94D4030E945B
S1131C20B901AB01BC01EE2408EE13E020E030E082
S1131C3080E00E941F042DB73EB72A5F3F4F0FB6C6
S1131C40F8943EBF0FBE2DBF3BC1863009F438C1A6
S1131C50873009F435C18093E50332C12FB7F89476
S1131C6033278091E1038F5F8093E1032FBF40917D
S1131C70E503413091F5809178048F5F8093780477
S1131C80863058F52091790430917A048091E603E6
S1131C908823E1F490E080917604882309F491E0AC
S1131CA09923A1F03093E4032093E3034093E603E4
S1131CB086E391E00E94A803AA27BB27BC01CD01BB
S1131CC00E946D041092A10483E004C085E0809317
S1131CD0A10482E08093E50309C01092E5030E9409
S1131CE0A2098091A104882321F406C00E94A209BC
S1131CF0E7C08C5F8093C00389E00E94BA00E0C013
S1131D008FB7F894282F332780918204882309F40D
S1131D10D6C0E0919F04FF27EE0FFF1FEC53FC4F4A
S1131D20E080F1802FBFC7010E941A03AC018FB776
S1131D30F89499272091B9033091BA038FBF4217C1
S1131D40530721F04F5F5F4F09F041C0F7018081D5
S1131D508D30E9F582855BE0C52ED12CCE0CDF1CDD
S1131D6023858E010F5F1F4F9927982F88273327CC
S1131D70822B932B9F938F938FE192E09F938F936A
S1131D801F930F930E944F139927BC01C8010E940F
S1131D90D403F70183852DB73EB72A5F3F4F0FB6B3
S1131DA0F8943EBF0FBE2DBF80FF02C0729801C0E1
S1131DB0729AF601808181FF02C0739801C0739A00
S1131DC0F601808182FF02C0749801C0749A9FB7A3
S1131DD0F89480919F04E82FFF27EE0FFF1FEC5328
S1131DE0FC4FF182E0828F5F80939F04833010F078
S1131DF010929F0480918204815080938204892FE1
S1131E0099278FBF7DCFFFB7F9A3F8942090E703FC
S1131E103090E8034090E9035090EA036624772465
S1131E2088242EE4A22E93E8B92ECC24DD24EE24BB
S1131E30FF2400E010E0222D332D442D552D662D76
S1131E40772D882D90E00E9454112AA33BA34CA324
S1131E505DA36EA37FA388A799A7822E932EA42E99
S1131E60B52E2401350100E20E945212A22EB32E97
S1131E70C42ED52EA30192015695479537952795E3
S1131E802A0D3B1D4C1D5D1D57FF05C05F772F5F5D
S1131E903F4F4F4F5F4F2093E7033093E803409346
S1131EA0E9035093EA0369A1862F99278FBF8FB75F
S1131EB0F894992730937E0420937D040FCE2FBF8E
S1131EC0A9960FB6F894DEBF0FBECDBFDF91CF91B8
S1131ED01F910F91FF90EF90DF90CF90BF90AF9044
S1131EE09F908F907F906F905F904F903F902F9036
S1131EF0089580919A048F3FB1F0282F3327F90178
S1131F00E153FC4F808180939A048F3F11F48093B6
S1131F103E058FEF80832F3F31F0822F0E948F0B7D
S1131F2081E090E0089580E090E008951F931FB74A
S1131F30F89414BE88E10FB6F89480936000109270
S1131F4060000FBE4EE050E06FEF70E08FEC93E066
S1131F500E9448138FEF80939A0480933E0581E496
S1131F6095E090937405809373051092A0048AE51C
S1131F708093CB0385B7806885BF85B7806885BFAC
S1131F8080E8809361008FE08093610091E09093FA
S1131F90810080E28093B6009093B100AEEFE0E060
S1131FA0F0E06FEF7FEFB0E08091B2008823E1F7BB
S1131FB040918400509185008091B2008034E1F713
S1131FC02091840030918500241B350B6217730720
S1131FD008F4B9012E173F0708F4F901CF01861B55
S1131FE0970B029730F0B0E06FEF7FEFE0E0F0E0A6
S1131FF003C0BF5FB23310F4A150B1F630939C0418
S113200020939B041092B1008091B10080938100D1
S1132010809181008093B6008091B60099278370E7
S11320209070892BC9F78091DF008D7F8093DF004A
S11320308091DC008D7F8093DC008091DF008E7FB7
S11320408093DF008091DC008E7F8093DC0080E24F
S11320508093B6008091DC008F7C80638093DC00E9
S11320608FEF8093B7038091DF0088608093DF0057
S113207084E4809362048091C8008F778093C800C1
S11320808091C8008F7B8093C8008091C8008260D3
S11320908093C8008091C9008F7D8093C90080918E
S11320A0C9008B7F8093C9008091C90080688093A8
S11320B0C9008091C90080648093C9008091C900DF
S11320C080618093C9008091C90088608093C900B1
S11320D08091CA008F778093CA008091CA008F7B59
S11320E08093CA008091CA008F7D8093CA0080913A
S11320F0CA008F7E8093CA008091CA008E7F80932D
S1132100CA008091CA0084608093CA008091CA008A
S113211082608093CA001092CD0082E28093CC004A
S11321201092CA031092250410929E0410929D04EA
S11321301092C3031092C203109228041092270431
S113214010929904109298041092890410928804B1
S11321501092DE031092DD036A9A6B9A6C9A729A5B
S1132160739A749A81E085BF80913901826080936B
S113217039010E94790F8823E1F7109263048AE100
S11321808093380587EC809349018AE7809348015E
S113219080EC8093450188E38093DC0080913901D1
S11321A082608093390181E080932B042091350271
S11321B0309136022F5F3F4FC901AA27BB27215018
S11321C030408093E7039093E803A093E903B0932E
S11321D0EA0382EA94E09093C5038093C403C29611
S11321E09093C7038093C60386E095E09093C90358
S11321F08093C8038FEF9FEF90938B0480938A049E
S113220090938D0480938C0490938F0480938E0418
S113221090939104809390049093930480939204F8
S11322202295207F2093C1030E94790F8823E1F730
S1132230812F99278FBF78940E94CA098FB7F89489
S1132240482F55277FEFE0E2F1E0649115C08091BB
S1132250B70387FF08C08091DC001092B70383B7EF
S1132260807F862B83BF83B7816083BF78948895F2
S1132270F89483B78E7F83BF80919A048F3F39F39C
S1132280282F3327F901E153FC4F908190939A044E
S11322909F3F11F490933E0570832F3FC1F24FBFCF
S11322A0822F0E948F0BCACFACE2B0E0EAE5F1E1E5
S11322B00C940813222E332E442E552E662E772E80
S11322C0882E992EFE013196A8E01192AA95E9F77D
S11322D029823A824B825C826D827E828F829886CA
S11322E0FE013996B8E01192BA95E9F7A986BA8643
S11322F0CB86DC86ED86FE860F87188B89819A81D2
S1132300AB81BC8189A79AA7ABA7BCA77C018D012F
S11323108FEF9FEFA0E0B0E0E822F9220A231B230D
S113232089A59AA5ABA5BCA51D014424552489857E
S11323309A85AB85BC858DA39EA3AFA3B8A75C018A
S11323406D018FEF9FEFA0E0B0E0A822B922CA226E
S1132350DB228DA19EA1AFA1B8A53D0188249924BB
S1132360C801B701A60195010E94E91269A37AA3E5
S11323708BA39CA3C801B701A40193010E94E91295
S11323807B018C01C201B101A60195010E94E912F1
S11323905B016C01C201B101A40193010E94E91225
S11323A03B014C01EA0CFB1C0C1D1D1D89A19AA1CB
S11323B0ABA1BCA19D01442755272E0D3F1D401FF5
S11323C0511F2A153B054C055D0540F480E090E063
S11323D0A1E0B0E0680E791E8A1E9B1ECA01AA27DE
S11323E0BB27860D971DA81DB91D8D8F9E8FAF8F9E
S11323F0B8A3A9013327222789A19AA1ABA1BCA123
S1132400A070B070280F391F4A1F5B1F298F3A8FA5
S11324104B8F5C8FA98CBA8CCB8CDC8CED8CFE8CB6
S11324200F8D18A1FE01719698E011929A95E9F723
S1132430ED8AFE8A0F8B188F2D813E814F8158853E
S11324406DA17EA18FA198A50E94E9123B014C01C8
S11324502D853E854F85588969A57AA58BA59CA5B0
S11324600E94E9122D893E894F89588D260F371F06
S1132470481F591F260D371D481D591D2D8B3E8B96
S11324804F8B588F6D887E888F88988C2A2D3B2D92
S11324904C2D5D2D662D772D882D992DE2E1AC967E
S11324A00C942413A0E1B0E0E8E5F2E10C940813E5
S11324B0222E332E442E552E662E772E882E992EBC
S11324C0002309F466C088E0FE01319611928A95D2
S11324D0E9F729833A834B835C836D837E838F8200
S11324E09887E0E2E01B1E16CCF52D813E814F81DA
S11324F05885602F772767FD7095DA01C901062E8C
S113250004C0B695A795979587950A94D2F78D87B9
S11325109E87AF87B88B04C0220F331F441F551FFB
S1132520EA95D2F789819A81AB81BC8104C0B695C2
S1132530A795979587956A95D2F7282B392B4A2B1F
S11325405B2B29873A874B875C8729843A844B84A1
S11325505C846D847E848F8498881BC01D861E864F
S11325601F86188A2E2F332727FD30953095219505
S11325703F4F8D819E81AF81B88504C0B695A795E4
S1132580979587952A95D2F789879A87AB87BC87D1
S1132590DCCF222D332D442D552D662D772D882DFE
S11325A0992DE2E160960C942413AA1BBB1B51E104
S11325B007C0AA1FBB1FA617B70710F0A61BB70BAF
S11325C0881F991F5A95A9F780959095BC01CD0154
S11325D00895629FD001739FF001829FE00DF11D69
S11325E0649FE00DF11D929FF00D839FF00D749F89
S11325F0F00D659FF00D9927729FB00DE11DF91F35
S1132600639FB00DE11DF91FBD01CF011124089591
S11326102F923F924F925F926F927F928F929F92EE
S1132620AF92BF92CF92DF92EF92FF920F931F93DC
S1132630CF93DF93CDB7DEB7CA1BDB0B0FB6F8948D
S1132640DEBF0FBECDBF09942A88398848885F84CD
S11326506E847D848C849B84AA84B984C884DF803E
S1132660EE80FD800C811B81AA81B981CE0FD11D22
S11326700FB6F894DEBF0FBECDBFED010895FB0188
S1132680DC0102C001900D9241505040D8F70895EA
S1132690DC0101C06D9341505040E0F70895A0E182
S11326A0B0E0E5E5F3E10C9416130F89188D86E08C
S11326B08E831C830B838FEF9FE798878F83AE01F4
S11326C0455E5F4F5A834983698D7A8DCE010396A7
S11326D00E94741329853A85020F131FF801108292
S11326E0E4E060960C943213ABE0B0E0EAE7F3E187
S11326F00C940A133C014B016A01FC0117821682F7
S1132700838181FD03C08FEF9FEFDAC1F301338131
S1132710F40133FD859133FF81914F01882309F43E
S1132720CCC1853239F433FD859133FF81914F015A
S1132730853229F4B30199270E947A15E7CF00E086
S1132740442455244AE00032B0F48B3269F08C32D0
S113275028F4803251F0833271F40BC08D3239F099
S1132760803349F4016028C00260046025C0086019
S113277023C0006121C007FD29C0282F20532A301F
S113278078F406FF06C0549EC0011124522E580E40
S113279013C0449EC0011124422E480E00620CC096
S11327A08E3221F406FD89C1006406C08C3611F412
S11327B0006802C0883651F4F40133FD859133FF7B
S11327C081914F01882309F46FC0BDCF982F8554A0
S11327D0833018F08052833038F424E030E0C20EA5
S11327E0D31E8FE389830FC0933631F0933799F06A
S11327F0933509F05BC023C0F6018081898322E010
S113280030E0C20ED31E7E010894E11CF11C51E09D
S1132810A52EB12C12C0F601E080F18006FD03C0A4
S11328206FEF7FEF02C0652D772722E030E0C20E04
S1132830D31EC7010E946F155C010F7713C0F60108
S1132840E080F18006FD03C06FEF7FEF02C0652DCD
S1132850772722E030E0C20ED31EC7010E94641520
S11328605C01006803FF07C01BC0B30180E290E075
S11328700E947A154A94842D9927A816B906A8F3BC
S11328800FC0F70107FD859107FF81917F01B30117
S113289099270E947A1541104A940894A108B10816
S11328A0A114B10471F706C190E03EC0943611F052
S11328B0993691F507FF0AC0F60160817181828122
S11328C0938124E030E0C20ED31E0DC0F601808156
S11328D091819C01B901882777FD8095982F42E06A
S11328E050E0C40ED51E4FE6B42EB02297FF09C0A7
S11328F090958095709561957F4F8F4F9F4F50E8CD
S1132900B52A8E010F5F1F4F2AE030E0A8010E9414
S1132910A715A82EA01A4DC0953731F43FEEF32E1B
S1132920F0222AE030E023C029EFF22EF0229F3675
S113293061F0903720F4983509F0BFC012C0903789
S113294039F0983709F0B9C005C028E030E00FC06D
S113295080E1F82AF4FE02C094E0F92A20E130E094
S113296006C0F4FE02C0E6E0FE2A20E132E0F7FEF3
S11329700AC0F601608171818281938144E050E054
S1132980C40ED51E0BC0F60180819181AC01BA0141
S113299088279927E2E0F0E0CE0EDF1E8E010F5F5C
S11329A01F4FA8010E94A715A82EA01A8FE7B82EC2
S11329B0BF20B6FE10C0FEEFBF22A51460F42B2D7D
S11329C0332724FF1AC022FF02C0052D09C02FEEB1
S11329D0B222052D01C00A2D2B2D332724FF0EC052
S11329E0FE01EA0DF11D8081803319F439EEB32222
S11329F009C00F5F22FF06C004C0052D822F867810
S1132A0009F00F5FEB2CFF24E3FC14C0E0FE0FC0C1
S1132A10041510F05A2C0BC0542C501A5A0C042DC7
S1132A2006C0B30180E290E00E947A150F5F04159E
S1132A30C0F304C0041510F4401A01C04424E4FE99
S1132A4010C0B30180E390E00E947A15E2FE1EC03C
S1132A50E1FE03C088E590E002C088E790E0B3019E
S1132A600CC08E2D867891F0E1FE02C08BE201C08D
S1132A7080E2B7FC8DE2B30199270E947A1506C063
S1132A80B30180E390E00E947A155A94A514C0F330
S1132A90AA94FE01EA0DF11D8181B30199270E94D8
S1132AA07A15AA2039F0F4CFB30180E290E00E94B5
S1132AB07A154A944420C1F729CEF301868197817F
S1132AC0E0E12B960C942613FC01059061507040B4
S1132AD00110D8F7809590958E0F9F1F0895FC01E3
S1132AE06150704001900110D8F7809590958E0F39
S1132AF09F1F08950F931F93CF93DF938C01EB01D6
S1132B008B81992781FF1BC082FF0DC02E813F81DD
S1132B108C819D812817390764F4E881F981019338
S1132B20F983E88306C0E885F985802F0995892B08
S1132B3031F48E819F8101969F838E8302C00FEFB3
S1132B401FEFC801DF91CF911F910F910895FA01F2
S1132B50AA27283051F1203181F1E8946F936E7FD8
S1132B606E5F7F4F8F4F9F4FAF4FB1E03ED0B4E0C9
S1132B703CD0670F781F891F9A1FA11D680F791F0A
S1132B808A1F911DA11D6A0F711D811D911DA11D1B
S1132B9020D009F468943F912AE0269F112430192B
S1132BA0305D3193DEF6CF010895462F4770405DC6
S1132BB04193B3E00FD0C9F7F6CF462F4F70405D75
S1132BC04A3318F0495D31FD4052419302D0A9F7D0
S1132BD0EACFB4E0A6959795879577956795BA95CA
S1132BE0C9F700976105710508959B01AC010A2E90
S1132BF006945795479537952795BA95C9F7620F67
S10F2C00731F841F951FA01D0895FFCFB3
S1132C0C746869732067757927732031352E3420E5
S1132C1C616464726573732069732025640A00729D
S1132C2C65636569766564206E756D626572203DB9
S1132C3C2025640A00010023232323232323232395
S1132C4C2323232323232323232323232323232344
S1132C5C2323232323232323232323232323232334
S1132C6C2323232323232323232323232323232324
S1132C7C232323232323230D0A230D0A2309416C25
S1132C8C7020536179696E0D0A2309616C705F734E
S1132C9C6179696E5B61745D696565655B646F74AC
S1132CAC5D6F72670D0A230931342F31312F3230A5
S1132CBC31310D0A23094B544820526F79616C2031
S1132CCC496E73746974757465206F6620546563FA
S1132CDC686E6F6C6F67790D0A230D0A23094E6FAA
S1132CEC7465733A0D0A230957656C636F6D65201F
S1132CFC746F2054696E794F5320322E312E31204B
S1132D0C6F6E2041746D65676131323852464131C2
S1132D1C0D0A23095468697320697320746865204B
S1132D2C776F726B696E672064656D6F20666F7266
S1132D3C20426C696E6B430D0A2309497420736835
S1132D4C6F756C6420616C736F206563686F20749D
S1132D5C6865206B65797320636F6D696E67206697
S1132D6C726F6D2073657269616C20706F72740D73
S1132D7C0A230D0A2323232323232323232323235B
S1132D8C2323232323232323232323232323232303
S1132D9C23232323232323232323232323232323F3
S1132DAC23232323232323232323232323232323E3
S10F2DBC232323230D0A00FFFF01002243
S9030000FC
