:100000008FC00000AAC00000A8C00000A6C0000069
:10001000A4C00000A2C00000A0C000009EC000005C
:100020009CC000009AC0000098C0000096C000006C
:1000300094C0000092C0000090C000008EC000007C
:100040008CC000008AC0000088C0000086C000008C
:1000500084C0000082C0000080C000007EC000009C
:100060007CC000007AC0000078C0000076C00000AC
:1000700074C0000072C0000070C000006EC00000BC
:100080006CC000006AC0000068C0000066C00000CC
:10009000D6C0000062C0000060C000005EC000006A
:1000A0005CC000005AC0000058C0000056C00000EC
:1000B00054C0000052C0000050C000004EC00000FC
:1000C0004CC000004AC0000048C0000046C000000C
:1000D00044C0000042C0000040C000003EC000001C
:1000E0003CC000003AC0000038C0000036C000002C
:1000F00034C0000032C0000030C000002EC000003C
:100100002CC000002AC0000028C0000026C000004B
:1001100024C0000022C0000020C000001EC000005B
:1001200011241FBECFEFD1E4DEBFCDBF12E0A0E0AF
:10013000B2E0E0E9F2E000E00BBF02C007900D92F0
:10014000A230B107D9F712E0A2E0B2E001C01D92DF
:10015000A230B107E1F702D09AC087C080E880934F
:100160006100109261008091610087FDFCCF809159
:10017000C8008F778093C8008091C8008F7B8093E0
:10018000C8008091C80082608093C8008091C90037
:100190008F7D8093C9008091C9008B7F8093C900B7
:1001A0008091C90080688093C9008091C9008F7BCD
:1001B0008093C9008091C90080618093C9008091BB
:1001C000C90088608093C9008091CA008F778093AE
:1001D000CA008091CA008F7B8093CA008091CA00B8
:1001E0008F7D8093CA008091CA008F7E8093CA0061
:1001F0008091CA008E7F8093CA008091CA0084607B
:100200008093CA008091CA0082608093CA001092D5
:10021000CD0080E18093CC005298539A6A9A7894EA
:1002200044E0E8ECF0E08EB184278EB928E833E1B1
:10023000CF010197F1F721503040D1F7F4CF1F9251
:100240000F920FB60F9211248F93EF93FF93EEEC62
:10025000F0E08081809300028083FF91EF918F9185
:100260000F900FBE0F901F9018951F920F920FB610
:100270000F9211248F939F938EB190E189278EB9AD
:100280009F918F910F900FBE0F901F901895FFCFE9
:02029000550017
:00000001FF
