:100000000C9493000C94B2000C94B2000C94B200C7
:100010000C94B2000C94B2000C94B2000C94B20098
:100020000C94B2000C94B2000C94B2000C94B20088
:100030000C94B2000C94B2000C94B2000C94B20078
:100040000C94B2000C94B2000C94B2000C94B20068
:100050000C94B2000C94B2000C94B2000C94B20058
:100060000C94B2000C94B2000C94B2000C94B20048
:100070000C94B2000C9498040C94B2000C94B2004E
:100080000C94B2000C94B2000C94B2000C94B20028
:100090000C94E1000C94B2000C943B010C94B2005F
:1000A0000C94B2000C94B2000C94B2000C94B20008
:1000B0000C94B2000C94B2000C94B2000C94B200F8
:1000C0000C94B2000C94B2000C94B2000C94B200E8
:1000D0000C94B2000C94B2000C94B2000C94B200D8
:1000E0000C94B2000C94B2000C94B2000C94B200C8
:1000F0000C94B2000C94B2000C94B2000C94B200B8
:100100000C94B2000C94C5020C9401030C940B03E4
:100110000C9497010C94B2000C94B2000C94B200B1
:1001200000020E060C0411241FBECFEFD1E4DEBF87
:10013000CDBF13E0A0E0B2E0E2EEF7E100E00BBFDC
:1001400002C007900D92AA3DB107D9F714E0AAEDBD
:10015000B3E001C01D92AD32B107E1F70E948B07F9
:100160000C94F00B0C9400008FB7F8949927089525
:100170008FBF0895282F9FB7F894E82FFF27EF51DE
:10018000FC4F80818F3F81F4E0912C04E21771F4E1
:100190000BC02093260404C0FF27EF51FC4F20839F
:1001A00020932C0420E007C025E005C080912604A0
:1001B0008F3F91F7EECF892F99278FBF822F9927F5
:1001C00008951F920F920FB60F9211242F933F9311
:1001D0004F935F936F937F938F939F93AF93BF934F
:1001E000EF93FF938091C80087FF34C04091CE0009
:1001F0004093DA03E0912904F0912A04309701F149
:100200002091F8033091F90380911E0490911F040E
:1002100028173907D0F4E20FF31F40838091F803C9
:100220009091F90301969093F9038093F80320913C
:100230001E0430911F048217930739F483E003C032
:100240004093FC0384E00E94BA008091C8008F773D
:100250008093C800FF91EF91BF91AF919F918F91D3
:100260007F916F915F914F913F912F910F900FBEB2
:100270000F901F9018951F920F920FB60F92112496
:100280002F933F934F935F936F937F938F939F939E
:10029000AF93BF93EF93FF93E091DD03F091DE0303
:1002A000309779F120912404309125048091EA035C
:1002B0009091EB032817390780F48091C80085FFDF
:1002C000FCCFE20FF31F80818093CE002F5F3F4F62
:1002D000309325042093240414C02817390789F487
:1002E0001092EB031092EA0310922504109224045A
:1002F0001092DE031092DD031092F70382E00E9459
:10030000BA008091C8008F7B8093C800FF91EF9165
:10031000BF91AF919F918F917F916F915F914F911D
:100320003F912F910F900FBE0F901F9018951F9225
:100330000F920FB60F9211248F938091FD038F5F60
:100340008093FD038F910F900FBE0F901F90189513
:10035000EF92FF920F931F937FB7F8946091FD0384
:100360002091E100822F2091E200922F2091E30062
:10037000A22F2091E400B22F9C01AD018091E000FA
:1003800083FF0FC06F5F8091E100E82E8091E20053
:10039000F82E8091E300082F8091E400182FA80127
:1003A0009701872F99278FBF772788279927FAE109
:1003B000660F771F881F991FFA95D1F7E6E05695CB
:1003C000479537952795EA95D1F7622B732B842BA8
:1003D000952B1F910F91FF90EF9008956F927F9250
:1003E0008F929F92AF92BF92CF92DF92EF92FF9245
:1003F0000F931F930E94A8017B018C012091F303AE
:100400003091F4034091F5035091F6038091EF038E
:100410009091F003A091F103B091F203820F931F2A
:10042000A41FB51FE216F3060407150730F0821764
:100430009307A407B50758F005C082179307A407D0
:10044000B507E0F5E816F9060A071B07B8F59C01A1
:10045000AD012E193F09400B510B213060E03607EA
:1004600060E0460762E0560768F180E090E0A0E0B7
:10047000B2E0E80EF91E0A1F1B1FE092F303F09290
:10048000F4030093F5031093F60380E090E0A0E0FE
:10049000BEEFE80EF91E0A1F1B1F205030404040DF
:1004A00052402093EF033093F0034093F1035093B5
:1004B000F20320E030E040E052E014C020E030E001
:1004C00040E050E08093F3039093F403A093F5038E
:1004D000B093F6031092EF031092F0031092F10321
:1004E0001092F20339014A01B6E0660C771C881CB1
:1004F000991CBA95D1F7A6E0EE0CFF1C001F111F46
:10050000AA95D1F78091E100A82E8091E200B82E43
:100510008091E300C82E8091E400D82EA6019501B9
:100520002E5F3F4F4F4F5F4FDA01C9018E199F0970
:10053000A00BB10B86159705A805B90530F4A801E5
:100540009701260D371D481D591D5093F800409303
:10055000F7003093F6002093F50081E08093E000EF
:100560008091DF0081608093DF008FEF8093D8035C
:100570001F910F91FF90EF90DF90CF90BF90AF90C1
:100580009F908F907F906F9008951F920F920FB65B
:100590000F9211242F933F934F935F936F937F9309
:1005A0008F939F93AF93BF93EF93FF938091DF005F
:1005B0008E7F8093DF008FEF8093D8038091EF03CD
:1005C0009091F003A091F103B091F2030097A1057F
:1005D000B10521F485E00E94BA0002C00E94EE013C
:1005E000FF91EF91BF91AF919F918F917F916F910B
:1005F0005F914F913F912F910F900FBE0F901F90E1
:1006000018951F920F920FB60F9211240F900FBEE4
:100610000F901F9018951F920F920FB60F921124F2
:100620000F900FBE0F901F901895982F9695969546
:100630009695EFEFF3E0E90FF11D877021E030E0D0
:1006400002C0220F331F8A95E2F780818223992707
:100650000895FC016115710519F481E090E0089599
:100660008FB7F894282F33278091F703882321F040
:100670002FBF85E090E0089581E08093F7032FBFBE
:10068000F093DE03E093DD037093EB036093EA03E2
:10069000109225041092240480818093CE0081E082
:1006A00090E090932504809324041092FB0380E053
:1006B00090E008958FB7F89499272EB130E1232761
:1006C0002EB98FBF08958FB7F89499272EB138E0CF
:1006D00023272EB98FBF089580912B04882309F416
:1006E00063C0813009F463C0882321F0813021F494
:1006F000A0E05EC0A0E059C0882331F0813041F015
:100700002EE1A0E0E0E007C0A0E0E0E029E203C0C5
:10071000A0E0E0E020E0622FFFB7F8948091ED03C5
:100720008E7F8093ED0380917C00782F7F712E2F38
:1007300033278295869586958370992728173907E0
:1007400019F080E090E013C0862F8850863118F0B1
:1007500081E090E00CC040E050E0262F3327872F47
:1007600099272817390711F441E050E0CA01982F62
:100770009170990F8091ED038178362F3F71232F6F
:10078000220F220F892B822B8093ED03862F99272E
:1007900080729070892B21F080917B0088600AC064
:1007A00080917B00877F06C0A7E0E1E0AFCFA7E0A4
:1007B000E1E0B0CF80937B00E295EE0FEE0FE07C9E
:1007C0003E2B832F992780937C00887D8A2B886D10
:1007D000992780937A008F2F99278FBF08950F93C1
:1007E0001F93CF93DF93182F8FB7F894282F3327B9
:1007F000022F8091DC03882309F032C081E08093CE
:10080000DC0310931D042FBF2FB7F894332780917A
:100810007A00806880937A008FEF8093D8032FBF8F
:100820008FB7F894C82FDD279C2F8091D903823091
:10083000A9F48091DC03813021F487E00E94BA00A2
:1008400009C0823059F480911D048093D90383E05C
:100850008093DC03CFBF80E090E025C09FBFFBCF3B
:1008600080911D04811711F42FBFF5CF812F0E94B5
:100870001503882319F085E090E014C0E12FE69578
:10088000E695E695FF27E150FC4F177081E090E078
:1008900002C0880F991F1A95E2F72081282B208328
:1008A00080E090E00FBFDF91CF911F910F910895ED
:1008B0000F931F930FB7F89411276093F30370936E
:1008C000F4038093F5039093F6032093EF033093A2
:1008D000F0034093F1035093F2030E94EE010FBF27
:1008E0001F910F910895DF92EF92FF920F931F9344
:1008F000D82E7A018B010E94A80129E0D29EF00136
:100900001124E050FC4F6083718382839383E482DF
:10091000F5820683178380858E7F8260808786E0DC
:100920000E94BA001F910F91FF90EF90DF90089501
:100930001F920F920FB60F9211242F933F934F9354
:100940005F936F937F938F939F93AF93BF93EF9337
:10095000FF93409178005091790078948FB7F89484
:1009600099272091ED03322F3695317021708FBF7A
:100970002223F9F480917A00877F80937A00809116
:10098000FA03813021F0823009F03DC00AC03323E0
:1009900051F050931C0440931B0488E00E94BA005D
:1009A00032C0332319F40E946C032DC01092FA0355
:1009B0002AC08FB7F89499278FBF2FB7F8943327A1
:1009C00080917A00582F5770482F4072987D942B51
:1009D000952B8074977B982B90619F77892F99270F
:1009E00080937A00887D842B852B8773806199277B
:1009F00080937A00887D842B852B877B806999275B
:100A000080937A002FBFFF91EF91BF91AF919F919B
:100A10008F917F916F915F914F913F912F910F90A7
:100A20000FBE0F901F901895EF92FF920F931F9398
:100A3000CF93DF93982F8FB7F894E82E8091DC0343
:100A4000833009F045C08091D903891709F040C06F
:100A50008091FF03882309F04DC03EC0EF2DE6953D
:100A6000E695E695FF274F2D5527E150FC4F9A015B
:100A70002770307081E090E002C0880F991F2A959E
:100A8000E2F78095208128232083C093DB0311C0E7
:100A90002196C230D10511F4C0E0D0E0FC2E8C2F9D
:100AA0000E9415038823D1F6C017D10789F74FEFAD
:100AB00050E040931D048FEF8093D90381E0809331
:100AC000DC0387E00E94BA00EFBE80E090E018C02F
:100AD000EFBE81E090E014C082E08093D9031092D1
:100AE000DC0380917A008F7780937A008FEF809378
:100AF000D803EACF8091DB03082F1127E801C8CF84
:100B0000DF91CF911F910F91FF90EF9008958F92F9
:100B10009F92AF92BF92CF92DF92EF92FF920F938C
:100B20001F93CF93DF93CDB7DEB7C054D0400FB63D
:100B3000F894DEBF0FBECDBF5B016C018824992401
:100B4000E0E0F4E0608561FF60C020813181428196
:100B50005381E480F58006811781D601C501821B8F
:100B6000930BA40BB50B8E159F05A007B10708F4D6
:100B70004CC060FF03C06D7F608708C02E0D3F1D15
:100B8000401F511F208331834283538381E08816A5
:100B900081F0881628F092E0891609F03FC032C033
:100BA0008FB7F89499272EB134E023272EB98FBF41
:100BB00035C00E94630381E00E94EF03082F80E0AC
:100BC0000E94EF037E010894E11CF11C99279F937A
:100BD0008F9311271F930F9380E092E09F938F9341
:100BE000FF92EF920E9403099927BC01C7010E945E
:100BF00029038DB79EB708960FB6F8949EBF0FBE17
:100C00008DBF0CC00E945A0309C00894811C911C1E
:100C1000399693E08916910409F094CF86E00E94FA
:100C2000BA00C05CDF4F0FB6F894DEBF0FBECDBF79
:100C3000DF91CF911F910F91FF90EF90DF90CF90B8
:100C4000BF90AF909F908F900895AF92BF92CF9238
:100C5000DF92EF92FF920F931F93CF93DF93CDB765
:100C6000DEB7A0970FB6F894DEBF0FBECDBF8630BB
:100C700009F455C0873030F4833059F0853009F0DD
:100C80001CC11AC0873009F4A4C0883009F015C10E
:100C9000C0C010922A041092290410921F041092CE
:100CA0001E041092F9031092F8038FB7F894992755
:100CB0001092DF038FBF01C18091EC03882361F59F
:100CC000209120043091210440912204509123046A
:100CD000EFB7F894FF276091F3037091F4038091CC
:100CE000F5039091F603E090EF03F090F00300918C
:100CF000F1031091F2036E0D7F1D801F911FEFBF56
:100D00002093200430932104409322045093230421
:100D10001092EC030E9458040E94A80145C00E9452
:100D2000A8017B018C018091DF008E7F8093DF0022
:100D30008FEF8093D8038FEFA82E8FEFB82E8FEF11
:100D4000C82E8FE7D82E60E0E0E0F4E0808581FFD8
:100D50001CC080819181A281B381A8019701281BC9
:100D6000390B4A0B5B0BDA01C901248135814681BD
:100D70005781281B390B4A0B5B0B2A153B054C0589
:100D80005D051CF459016A0161E0399634E0EB31EC
:100D9000F307E1F6662309F490C01A141B041C043F
:100DA0001D042CF0C801B7010E94870586C0A092DF
:100DB0002004B0922104C0922204D092230481E046
:100DC0008093EC03A6019501C801B7010E94580465
:100DD00074C08FB7F894992720911D042093D903EC
:100DE00023E02093DC038FBF8091D903882321F077
:100DF000813009F062C006C081E08093FA0310924E
:100E00002B0404C08093FA0380932B040E946C038C
:100E100054C01092FA03E0901B04F0901C048091DF
:100E20002B04882319F0813049F404C080E00E942B
:100E3000140509C081E00E94140523C0882319F01D
:100E40008130D9F51EC08E010F5F1F4FFF92EF92C8
:100E500080E492E09F938F931F930F930E94030966
:100E60009927BC01C8010E9429030E9463034DB762
:100E70005EB74A5F5F4F0FB6F8945EBF0FBE4DBFBF
:100E80001CC08E010F5F1F4FFF92EF928CE492E027
:100E90009F938F931F930F930E9403099927BC017F
:100EA000C8010E9429030E945A038DB79EB7069677
:100EB0000FB6F8949EBF0FBE8DBFA0960FB6F894E4
:100EC000DEBF0FBECDBFDF91CF911F910F91FF907D
:100ED000EF90DF90CF90BF90AF900895809126045F
:100EE0008F3FB1F0282F3327F901EF51FC4F80815C
:100EF000809326048F3F11F480932C048FEF80831E
:100F00002F3F31F0822F0E94250681E090E0089566
:100F100080E090E008951F931FB7F89414BE88E115
:100F20000FB6F89480936000109260000FBE49E005
:100F300050E06FEF70E081EE93E00E94FC088FEFCD
:100F40008093260480932C0485B7806885BF85B77D
:100F5000806885BF80E8809361008FE080936100A6
:100F600091E09093810080E28093B6009093B1006D
:100F7000AEEFE0E0F0E06FEF7FEFB0E08091B20025
:100F80008823E1F740918400509185008091B20060
:100F90008034E1F72091840030918500241B350BCB
:100FA0006217730708F4B9012E173F0708F4F90117
:100FB000CF01861B970B029730F0B0E06FEF7FEF09
:100FC000E0E0F0E003C0BF5FB23310F4A150B1F62F
:100FD00030932804209327041092B1008091B1002F
:100FE00080938100809181008093B6008091B6004B
:100FF000992783709070892BC9F78091DF008E7FCD
:101000008093DF008091DC008E7F8093DC0080E2A3
:101010008093B6008091DC008F7C80638093DC003D
:101020008FEF8093D8038091DF0088608093DF008A
:1010300084E48093FE038091C8008F778093C8007A
:101040008091C8008F7B8093C8008091C800826027
:101050008093C8008091C9008F7D8093C9008091E2
:10106000C9008B7F8093C9008091C90080688093FC
:10107000C9008091C90080648093C9008091C90033
:1010800080618093C9008091C90088608093C90005
:101090008091CA008F778093CA008091CA008F7BAD
:1010A0008093CA008091CA008F7D8093CA0080918E
:1010B000CA008F7E8093CA008091CA008E7F809381
:1010C000CA008091CA0084608093CA008091CA00DF
:1010D00082608093CA001092CD0082E28093CC009F
:1010E0001092DF031092F70310922A041092290441
:1010F0001092DE031092DD031092F9031092F803B0
:10110000109225041092240410921F0410921E04C1
:101110001092EB031092EA0310927A006A9A6B9A8B
:101120006C9A729A739A749A81E085BF80913901A2
:101130008260809339010E946E078823E1F7109244
:10114000FF030E946E078823E1F7812F99278FBF45
:101150007894809880917E00816080937E0044EF37
:1011600051E060E070E080E00E94730448EE53E0DC
:1011700060E070E081E00E94730440E157E260E0CB
:1011800070E082E00E9473048FB7F894482F5527CF
:101190007FEFE0E2F1E0649117C08091D80387FF10
:1011A0000AC080917A008091DC001092D80383B746
:1011B000807F862B83BF83B7816083BF78948895B7
:1011C000F89483B78E7F83BF809126048F3F29F3E5
:1011D000282F3327F901EF51FC4F9081909326047B
:1011E0009F3F11F490932C0470832F3FB1F24FBFB7
:1011F000822F0E942506C8CFDC0101C06D934150AB
:101200005040E0F70895A0E1B0E0E9E0F9E00C9487
:10121000C70B0F89188D86E08E831C830B838FEF9D
:101220009FE798878F83AE01455E5F4F5A8349835E
:10123000698D7A8DCE0103960E94280929853A8509
:10124000020F131FF8011082E4E060960C94E30B88
:10125000ABE0B0E0EEE2F9E00C94BB0B3C014B01DB
:101260006A01FC0117821682838181FD03C08FEF22
:101270009FEFDAC1F3013381F40133FD859133FF30
:1012800081914F01882309F4CCC1853239F433FDB3
:10129000859133FF81914F01853229F4B30199275C
:1012A0000E942E0BE7CF00E0442455244AE0003290
:1012B000B0F48B3269F08C3228F4803251F08332F2
:1012C00071F40BC08D3239F0803349F4016028C0CD
:1012D0000260046025C0086023C0006121C007FDD2
:1012E00029C0282F20532A3078F406FF06C0549EC8
:1012F000C0011124522E580E13C0449EC001112467
:10130000422E480E00620CC08E3221F406FD89C1C7
:10131000006406C08C3611F4006802C0883651F4AF
:10132000F40133FD859133FF81914F01882309F446
:101330006FC0BDCF982F8554833018F08052833012
:1013400038F424E030E0C20ED31E8FE389830FC04F
:10135000933631F0933799F0933509F05BC023C091
:10136000F6018081898322E030E0C20ED31E7E0127
:101370000894E11CF11C51E0A52EB12C12C0F6011D
:10138000E080F18006FD03C06FEF7FEF02C0652DA6
:10139000772722E030E0C20ED31EC7010E94230B44
:1013A0005C010F7713C0F601E080F18006FD03C0F9
:1013B0006FEF7FEF02C0652D772722E030E0C20E8D
:1013C000D31EC7010E94180B5C01006803FF07C011
:1013D0001BC0B30180E290E00E942E0B4A94842D42
:1013E0009927A816B906A8F30FC0F70107FD859144
:1013F00007FF81917F01B30199270E942E0B4110B5
:101400004A940894A108B108A114B10471F706C167
:1014100090E03EC0943611F0993691F507FF0AC06E
:10142000F601608171818281938124E030E0C20EF7
:10143000D31E0DC0F601808191819C01B9018827DE
:1014400077FD8095982F42E050E0C40ED51E4FE600
:10145000B42EB02297FF09C0909580957095619544
:101460007F4F8F4F9F4F50E8B52A8E010F5F1F4F60
:101470002AE030E0A8010E945B0BA82EA01A4DC004
:10148000953731F43FEEF32EF0222AE030E023C00E
:1014900029EFF22EF0229F3661F0903720F4983534
:1014A00009F0BFC012C0903739F0983709F0B9C0C1
:1014B00005C028E030E00FC080E1F82AF4FE02C049
:1014C00094E0F92A20E130E006C0F4FE02C0E6E034
:1014D000FE2A20E132E0F7FE0AC0F6016081718148
:1014E0008281938144E050E0C40ED51E0BC0F6010A
:1014F00080819181AC01BA0188279927E2E0F0E070
:10150000CE0EDF1E8E010F5F1F4FA8010E945B0BE6
:10151000A82EA01A8FE7B82EBF20B6FE10C0FEEF8F
:10152000BF22A51460F42B2D332724FF1AC022FFFD
:1015300002C0052D09C02FEEB222052D01C00A2DD3
:101540002B2D332724FF0EC0FE01EA0DF11D8081F3
:10155000803319F439EEB32209C00F5F22FF06C0B1
:1015600004C0052D822F867809F00F5FEB2CFF2435
:10157000E3FC14C0E0FE0FC0041510F05A2C0BC0A1
:10158000542C501A5A0C042D06C0B30180E290E08E
:101590000E942E0B0F5F0415C0F304C0041510F455
:1015A000401A01C04424E4FE10C0B30180E390E07F
:1015B0000E942E0BE2FE1EC0E1FE03C088E590E013
:1015C00002C088E790E0B3010CC08E2D867891F0C0
:1015D000E1FE02C08BE201C080E2B7FC8DE2B30104
:1015E00099270E942E0B06C0B30180E390E00E9471
:1015F0002E0B5A94A514C0F3AA94FE01EA0DF11D16
:101600008181B30199270E942E0BAA2039F0F4CFD3
:10161000B30180E290E00E942E0B4A944420C1F76F
:1016200029CEF30186819781E0E12B960C94D70BAC
:10163000FC010590615070400110D8F7809590959D
:101640008E0F9F1F0895FC016150704001900110A2
:10165000D8F7809590958E0F9F1F08950F931F9335
:10166000CF93DF938C01EB018B81992781FF1BC006
:1016700082FF0DC02E813F818C819D812817390703
:1016800064F4E881F9810193F983E88306C0E88571
:10169000F985802F0995892B31F48E819F810196E0
:1016A0009F838E8302C00FEF1FEFC801DF91CF91A0
:1016B0001F910F910895FA01AA27283051F1203186
:1016C00081F1E8946F936E7F6E5F7F4F8F4F9F4FD6
:1016D000AF4FB1E03ED0B4E03CD0670F781F891F18
:1016E0009A1FA11D680F791F8A1F911DA11D6A0FE6
:1016F000711D811D911DA11D20D009F468943F9199
:101700002AE0269F11243019305D3193DEF6CF0197
:101710000895462F4770405D4193B3E00FD0C9F75D
:10172000F6CF462F4F70405D4A3318F0495D31FDCA
:101730004052419302D0A9F7EACFB4E0A69597951D
:10174000879577956795BA95C9F7009761057105F3
:1017500008959B01AC010A2E06945795479537953D
:101760002795BA95C9F7620F731F841F951FA01D97
:1017700008952F923F924F925F926F927F928F9235
:101780009F92AF92BF92CF92DF92EF92FF920F9310
:101790001F93CF93DF93CDB7DEB7CA1BDB0B0FB61A
:1017A000F894DEBF0FBECDBF09942A8839884888D7
:1017B0005F846E847D848C849B84AA84B984C8846D
:1017C000DF80EE80FD800C811B81AA81B981CE0F64
:1017D000D11D0FB6F894DEBF0FBECDBFED01089549
:0217E000FFCF39
:1017E2006572726F7220636F646520666F72207615
:1017F2006F6C302E72656164203D2025640D0A6590
:1018020072726F7220636F646520666F72207465F6
:101812006D70302E72656164203D2025640D0A00D2
:1018220054656D70203D2025640D0A00566F6C30A2
:10183200203D2025640D0A00232323232323232371
:101842002323232323232323232323232323232366
:101852002323232323232323232323232323232356
:101862002323232323232323232323232323232346
:1018720023232323232323230D0A230D0A23094190
:101882006C7020536179696E0D0A2309616C705F77
:10189200736179696E5B61745D696565655B646FCF
:1018A200745D6F72670D0A230931342F31312F3283
:1018B2003031310D0A23094B544820526F79616C43
:1018C20020496E73746974757465206F662054655F
:1018D20063686E6F6C6F67790D0A230D0A23094ED8
:1018E2006F7465733A0D0A230957656C636F6D65F2
:1018F20020746F2054696E794F5320322E312E316D
:10190200206F6E2041746D656761313238524641F5
:10191200310D0A230954686973206973207468655C
:1019220020776F726B696E672064656D6F20666FDA
:101932007220426C696E6B430D0A2309497420734D
:10194200686F756C6420616C736F206563686F20CB
:10195200746865206B65797320636F6D696E6720AB
:1019620066726F6D2073657269616C20706F72743C
:101972000D0A230D0A232323232323232323232393
:101982002323232323232323232323232323232325
:101992002323232323232323232323232323232315
:1019A2002323232323232323232323232323232305
:0A19B20023232323230D0A00FF0264
:00000001FF
