S01D00006275696C642F726362313238726661312F6D61696E2E73726563B8
S11300000C9493000C94B2000C94B2000C94B200C3
S11300100C94B2000C94B2000C94B2000C94B20094
S11300200C94B2000C94B2000C94B2000C94B20084
S11300300C94B2000C94B2000C94B2000C94B20074
S11300400C94B2000C94B2000C94B2000C94B20064
S11300500C94B2000C94B2000C94B2000C94B20054
S11300600C94B2000C94B2000C94B2000C94B20044
S11300700C94B2000C948F050C94B2000C94B20052
S11300800C94B2000C94B2000C94B2000C94B20024
S11300900C94E1000C94B2000C943B010C94B2005B
S11300A00C94B2000C94B2000C94B2000C94B20004
S11300B00C94B2000C94B2000C94B2000C94B200F4
S11300C00C94B2000C94B2000C94B2000C94B200E4
S11300D00C94B2000C94B2000C94B2000C94B200D4
S11300E00C94B2000C94F80C0C940B060C944A0D6E
S11300F00C944A0C0C94A60C0C9415060C94210D2B
S11301000C94CF0C0C94AD020C94730C0C94CC0393
S11301100C9497010C94B2000C94B2000C94B200AD
S113012000020E060C0411241FBECFEFD1E4DEBF83
S1130130CDBF14E0A0E0B2E0EAE6F3E300E00BBFD9
S113014002C007900D92A631B107D9F716E0A6E1D7
S1130150B4E001C01D92A03CB107E1F70E949D11DB
S11301600C94B4190C9400008FB7F894992708954F
S11301708FBF0895282F9FB7F894E82FFF27E65DD7
S1130180FB4F80818F3F81F4E0918406E21771F484
S11301900BC02093DF0504C0FF27E65DFB4F2083DF
S11301A02093840620E007C025E005C08091DF0588
S11301B08F3F91F7EECF892F99278FBF822F9927F1
S11301C008951F920F920FB60F9211242F933F930D
S11301D04F935F936F937F938F939F93AF93BF934B
S11301E0EF93FF938091C80087FF34C04091CE0005
S11301F040931604E091E205F091E305309701F194
S113020020915505309156058091CD059091CE05EC
S113021028173907D0F4E20FF31F40838091550566
S1130220909156050196909356058093550520911B
S1130230CD053091CE058217930739F483E003C0CE
S113024040938D0584E00E94BA008091C8008F77A6
S11302508093C800FF91EF91BF91AF919F918F91CF
S11302607F916F915F914F913F912F910F900FBEAE
S11302700F901F9018951F920F920FB60F92112492
S11302802F933F934F935F936F937F938F939F939A
S1130290AF93BF93EF93FF93E0911C04F0911D047F
S11302A0309779F12091DD053091DE0580913D0490
S11302B090913E042817390780F48091C80085FF87
S11302C0FCCFE20FF31F80818093CE002F5F3F4F5E
S11302D03093DE052093DD0514C02817390789F40F
S11302E010923E0410923D041092DE051092DD053A
S11302F010921D0410921C041092540582E00E9476
S1130300BA008091C8008F7B8093C800FF91EF9161
S1130310BF91AF919F918F917F916F915F914F9119
S11303203F912F910F900FBE0F901F9018951F9221
S11303300F920FB60F9211248F93809190058F5FC7
S1130340809390058F910F900FBE0F901F9018957A
S11303504FB7F89455272091E100622F2091E200D5
S1130360722F2091E300822F2091E400922F4FBF3F
S113037008950F931F930FB7F894109190050E945E
S1130380A8019B01AC018091E00083FF05C01F5FC1
S11303900E94A8019B01AC01802F99278FBF612F78
S11303A0772788279927FAE1660F771F881F991FF7
S11303B0FA95D1F7E6E05695479537952795EA954E
S11303C0D1F7622B732B842B952B1F910F910895DA
S11303D0AF92BF92CF92DF92EF92FF920F931F934F
S11303E00E94B9017B018C01209150053091510587
S11303F0409152055091530580914C0590914D05C3
S1130400A0914E05B0914F05820F931FA41FB51FF5
S1130410E216F3060407150730F082179307A407C2
S1130420B50758F005C082179307A407B507E0F590
S1130430E816F9060A071B07B8F59C01AD012E1949
S11304403F09400B510B213060E0360760E046075E
S113045062E0560768F180E090E0A0E0B2E0E80EC8
S1130460F91E0A1F1B1FE0925005F09251050093DC
S113047052051093530580E090E0A0E0BEEFE80E33
S1130480F91E0A1F1B1F2050304040405240209349
S11304904C0530934D0540934E0550934F0520E095
S11304A030E040E052E014C020E030E040E050E0B2
S11304B08093500590935105A0935205B093530532
S11304C010924C0510924D0510924E0510924F0556
S11304D059016A01B6E0AA0CBB1CCC1CDD1CBA9500
S11304E0D1F7A6E0EE0CFF1C001F111FAA95D1F74F
S11304F00E94A8019B01AC012E5F3F4F4F4F5F4FFD
S1130500DA01C9018E199F09A00BB10B8A159B054D
S1130510AC05BD0530F4A80197012A0D3B1D4C1D07
S11305205D1D5093F8004093F7003093F60020933C
S1130530F50081E08093E0008091DF00816080938A
S1130540DF008FEF809310041F910F91FF90EF90C5
S1130550DF90CF90BF90AF9008951F920F920FB687
S11305600F9211242F933F934F935F936F937F9335
S11305708F939F93AF93BF93EF93FF938091DF008B
S11305808E7F8093DF008FEF8093100480914C0561
S113059090914D05A0914E05B0914F050097A1058E
S11305A0B10521F489E00E94BA0002C00E94E8016A
S11305B0FF91EF91BF91AF919F918F917F916F9137
S11305C05F914F913F912F910F900FBE0F901F900D
S11305D01895FB0121E030E002C0220F331F8A95F9
S11305E0E2F787A5822B87A70895FC0182819927CA
S11305F0982F882721813327822B932B25E09695EA
S113060087952A95E1F7817090700895FC0140E088
S113061050E082819927982F882721813327822BC4
S1130620932B87749C7C8154984811F441E050E0EA
S1130630CA010895FC0187819927982F882726816C
S11306403327822B932B0895EF92FF920F931F93DE
S1130650CF93DF937B018C018FB7F894C82FDD27EC
S11306600E94A8019B01AC01C801B7016230710569
S11306708105910520F462E070E080E090E0260FAF
S1130680371F481F591FDA01C901B093F400A09322
S1130690F3009093F2002093F10082E08093E00055
S11306A08091DF0082608093DF008FEF80931004DD
S11306B0CFBFDF91CF911F910F91FF90EF900895DD
S11306C08093E705882311F484E001C081E08093DE
S11306D0460580E10E94BA00089520E030E0FC0164
S11306E081818770823011F421E030E0C9010895DE
S11306F0CF93DF93EC010E94F5028823D1F0CE0161
S11307000E9406038823A9F0CE010E941A032FB782
S1130710F894332740911304509114042FBF20E020
S11307208417950709F021E081E02827822F992773
S113073002C080E090E0DF91CF910895FB0121E0B9
S113074030E002C0220F331F8A95E2F787A5822387
S113075099270895EF92FF920F931F937C018FB70F
S1130760F89499270091C1051091C2050F5E1E4FA0
S11307701093C2050093C105015111408FBF82E15E
S11307800E94BA00C801B7010E947B1644961F91CB
S11307900F91FF90EF9008951F920F920FB60F9252
S11307A011240F900FBE0F901F901895EF920F9386
S11307B01F93AE2D99E0899FF0011124EC56FA4F56
S11307C04083518362837383048315832683378331
S11307D0A17080858E7F8A2B826080878AE00E9448
S11307E0BA001F910F91EF900895982F96959695C2
S11307F09695E3E9F5E0E90FF11D877021E030E01B
S113080002C0220F331F8A95E2F780818223992741
S11308100895AC018FB7F894282F3327809154059D
S1130820882321F02FBF85E090E0089581E0809334
S113083054052FBF50931D0440931C0470933E0431
S113084060933D0420E030E0FA011DC08091C900AE
S11308508F7B8093C9008091C80085FFFCCF808185
S11308608093CE008091C80086FFFCCF8091C800A1
S113087080648093C8008091C90080648093C9001B
S11308802F5F3F4F31962617370701F78FB7F8943C
S11308909927109254058FBF1092590580E00E9449
S11308A0BA0080E090E008958FB7F89499272EB1AC
S11308B030E123272EB98FBF08958FB7F894992775
S11308C02EB138E023272EB98FBF08958091E50516
S11308D0813009F46BC0813008F46BC0823009F4B4
S11308E068C0813029F0813028F0823029F402C0B8
S11308F0A0E05DC0A0E05EC0813041F0813050F0E6
S1130900823041F02EE1A0E0F0E007C0A0E0F0E08A
S113091020E003C0A0E0F0E029E2622FEFB7F894F2
S1130920809141048E7F8093410480917C00782FD4
S11309307F712F2F3327829586958695837099270B
S11309402817390719F080E090E013C0862F8850EB
S1130950863118F081E090E00CC040E050E0262F92
S11309603327872F99272817390711F441E050E0DE
S1130970CA01982F9170990F809141048178362F84
S11309803F71232F220F220F892B822B8093410446
S1130990862F992780729070892B21F080917B009B
S11309A088600AC080917B00877F06C0A7E0F3E0DF
S11309B0AFCFA7E0F3E0B0CF80937B00F295FF0FB9
S11309C0FF0FF07C3F2B832F992780937C00887D39
S11309D08A2B886D992780937A008E2F99278FBF51
S11309E008950F931F930FB7F89411276093500540
S11309F070935105809352059093530520934C05B1
S1130A0030934D0540934E0550934F050E94E801E5
S1130A100FBF1F910F9108950F931F93CF93DF93EF
S1130A20182F8FB7F894282F3327022F809118049A
S1130A30882379F581E0809318041093C5052FBFAE
S1130A402FB7F894332780917A00806880937A00D6
S1130A508FEF809310042FBF8FB7F894C82FDD2732
S1130A602C2F909111049330C1F48091180481309B
S1130A7021F48BE00E94BA0008C0823071F48091A6
S1130A80C5058093110490931804CFBF80E090E0D3
S1130A9023C08091C505811711F42FBFF7CF812F93
S1130AA00E94F503882319F085E090E014C0E12F3B
S1130AB0E695E695E695FF27ED56FA4F177081E027
S1130AC090E002C0880F991F1A95E2F72081282B25
S1130AD0208380E090E00FBFDF91CF911F910F91B1
S1130AE00895AF92BF92CF92DF92EF92FF920F934D
S1130AF01F93F82E5A016B010E94B901AB01BC018E
S1130B00EE24960185018F2D0E94D6031F910F912B
S1130B10FF90EF90DF90CF90BF90AF9008951F9219
S1130B200F920FB60F9211242F933F934F935F931D
S1130B306F937F938F939F93AF93BF93EF93FF93A1
S1130B40409178005091790078948FB7F894992760
S1130B5020914104322F3695317021708FBF2223AA
S1130B60F9F480917A00877F80937A008091580508
S1130B70813021F0823009F03DC00AC0332351F0A6
S1130B805093BC054093BB058CE00E94BA0032C070
S1130B90332319F40E9466042DC0109258052AC00C
S1130BA08FB7F89499278FBF2FB7F8943327809184
S1130BB07A00582F5770482F4072987D942B952BAC
S1130BC08074977B982B90619F77892F99278093C6
S1130BD07A00887D842B852B877380619927809385
S1130BE07A00887D842B852B877B80699927809365
S1130BF07A002FBFFF91EF91BF91AF919F918F9199
S1130C007F916F915F914F913F912F910F900FBE04
S1130C100F901F9018951F920F920FB60F921124E8
S1130C200F900FBE0F901F9018951F920F920FB642
S1130C300F9211240F900FBE0F901F9018951092D1
S1130C40570521E02093B8050E9424030895EF92EC
S1130C50FF920F931F93CF93DF93982F8FB7F8943E
S1130C60E82E80911804833009F045C08091110466
S1130C70891709F040C080919305882309F04DC07D
S1130C803EC0EF2DE695E695E695FF274F2D5527B7
S1130C90ED56FA4F9A012770307081E090E002C05F
S1130CA0880F991F2A95E2F78095208128232083B5
S1130CB0C093170411C02196C330D10511F4C0E0CC
S1130CC0D0E0FC2E8C2F0E94F5038823D1F6C017A8
S1130CD0D10789F74FEF50E04093C5058FEF80931C
S1130CE0110481E0809318048BE00E94BA00EFBEE7
S1130CF080E090E018C0EFBE81E090E014C083E093
S1130D00809311041092180480917A008F77809355
S1130D107A008FEF80931004EACF80911704082F94
S1130D201127E801C8CFDF91CF911F910F91FF9058
S1130D30EF900895AF92BF92CF92DF92EF92FF921D
S1130D400F931F93CF93DF935B016C01C0E0D0E05E
S1130D50E4E9F5E0608561FF3CC020813181428196
S1130D605381E480F58006811781D601C501821B79
S1130D70930BA40BB50B8E159F05A007B10748F183
S1130D8060FF03C06D7F608708C02E0D3F1D401FAC
S1130D90511F2083318342835383C13081F0C1309A
S1130DA028F0C23079F0C330D1F40FC08FB7F89473
S1130DB099272EB134E023272EB98FBF10C00E948B
S1130DC05D040DC00E9454040AC08EE00E94BA0063
S1130DD006C021963996C430D10509F0BBCF8AE00C
S1130DE00E94BA00DF91CF911F910F91FF90EF9075
S1130DF0DF90CF90BF90AF900895809146058230E8
S1130E0031F481E08093460580E10E94BA000895A0
S1130E102F923F924F925F926F927F928F929F9206
S1130E20AF92BF92CF92DF92EF92FF920F931F93F4
S1130E30CF93DF932C0180913F04882309F0F3C002
S1130E4080915A05853009F0EEC08091C60588234B
S1130E5009F0E9C0B20182E00E949E03882311F4E4
S1130E6090E002C0F20191A980919205981731F0A7
S1130E70909392059F70906C90934501C2010E94DB
S1130E8006038823A9F08091460199278F719070F9
S1130E902091E60540912604240F312D311D43E0B5
S1130EA0359527954A95E1F7281739070CF4BBC007
S1130EB089E080934201B20184E00E949E0388236A
S1130EC019F4C0E0D0E006C0F20180818550E2014F
S1130ED0C80FD11D809141018F71893021F087E0C5
S1130EE080935A05A0C052010894A11CB11CF201C0
S1130EF080819927809380018250873010F4982F45
S1130F0001C097E0D82ED91AE92EFF24A701B50114
S1130F1081E891E00E94E5160FB7F894112782E06A
S1130F20809342010E94A8013B014C010FBF81E85C
S1130F30282E81E0382E2E0C3F1CED2DFF27B50105
S1130F406E0D7F1D209709F456C02881E9808A819F
S1130F50AB809927AA27BB27BA2FA92F982F8827B8
S1130F60332744275527522F442733272227FF248A
S1130F70002711278701FF24EE242E293F29402B27
S1130F80512BBB24CC24DD242A293B294C295D295F
S1130F90822B932BA42BB52B86199709A809B90981
S1130FA08B83292F3A2F4B2F55272A839D014427C2
S1130FB0552729838B2F9927AA27BB278883AF011D
S1130FC0C1010E94E51696E090935A0584E080934F
S1130FD03F04909342016B82BB27A92D982D872D46
S1130FE08A83C401AA27BB278983892D9927AA2725
S1130FF0BB2788830CC0AF01C1010E94E51696E0AF
S113100090935A0584E080933F0490934201B20187
S113101081E00E94E902F20163A674A685A696A661
S113102080E090E002C085E090E0DF91CF911F91D5
S11310300F91FF90EF90DF90CF90BF90AF909F9073
S11310408F907F906F905F904F903F902F90089576
S11310506F927F928F929F92AF92BF92CF92DF92C4
S1131060EF92FF920F931F93CF93DF939091C60556
S1131070992309F4E5C01092C60597FF07C0809133
S11310805A05823019F483E080935A05E92EFF242F
S1131090E0FE11C080913F04833011F0873059F491
S11310A085E080935A0580914C01806880934C01BF
S11310B088E080933F04E4FE0CC080913F048630B6
S11310C041F48091410187FF04C010923F04809154
S11310D04101E2FE50C080913F04863019F4109221
S11310E03F0403C0882309F046C0C091B906D091DB
S11310F0BA06943099F5109146011F718091260427
S1131100982F96959695212F291B820F809326045C
S11311108FA58B7F8FA7BE0183E00E94E90219ABE4
S11311202FB7F89433278091E900682E8091EA0064
S1131130782E8091EB00882E8091EC00982E2FBFA2
S11311400091B9061091BA06B80181E00E94E90243
S1131150F80163A674A685A696A60AC08FA5877F04
S11311608FA7E091B906F091BA0687A58D7F87A76E
S113117085E080933F04E6FE43C080913F048430C1
S113118009F03EC085E080935A0510923F04809197
S11311902704833019F41092270432C00091850685
S11311A010918606C8010E94F502882311F1C80136
S11311B00E9406038823E9F0C8010E941A038F5F86
S11311C09F4FB9F090E08091B805882309F491E02D
S11311D0992379F081E0809357058093B80568E3FB
S11311E071E080E090E00E94240382E08093270471
S11311F007C0109227041092470580E00E94600304
S1131200E3FE1EC090913F049530D1F480915A05BD
S1131210873031F486E08093420190935A050CC0E4
S11312208091E605909146019F71282F2695269579
S1131230921B890F8093E60589E080933F0408C0E0
S113124090913F04992309F43FC2993009F0CCC12D
S113125040917B01433008F468C0842F9927899713
S11312600CF063C0E091B906F091BA066F010894DE
S1131270C11CD11C40830EEFF02EF40E26E02F1576
S113128010F0EF2C02C017E0E12E0E2D1127A8015B
S113129060E871E0C6010E94E516C091B906D091DC
S11312A0BA06CE010E946D038823C1F08091270401
S11312B0823089F48B81E0918506F09186069381D2
S11312C0891749F4898190E08770823009F091E0B0
S11312D081E098270EC080E090E00DC08FB7F894AD
S11312E0282F332790E08091C705833008F491E0DC
S11312F02FBF892F9927892BC1F0FE184F2D552711
S1131300B80160587E4FC601800F911F0E94E516F8
S1131310E0917B01FF27E058FE4F8081E091B90600
S1131320F091BA0680AB21E001C020E08091460133
S1131330992787709070892B09F068C280914C01BD
S11313408F7780934C0180914C01806880934C018D
S113135085E080935A0510923F04222309F4B0C11A
S1131360A090B906B090BA06C5010E946D03282F5B
S11313703327122F809127048230F9F48091DF0003
S11313808D7F8093DF008FEF809310041092B80557
S1131390E0918506F0918606222329F0BF0180E0C2
S11313A00E94E90203C087A58E7F87A710922704B5
S11313B01092470580E00E946003112309F00FC1D9
S11313C0C5010E9478038823A9F085E080935B051A
S11313D082E080935C0510925D05F5018381809322
S11313E05E058BE595E00E940807882319F483E0E5
S11313F0809327040E94A8016B017C01C5010E940F
S11314007803882341F086E390E0A0E0B0E0C80EC2
S1131410D91EEA1EFB1E8601D0928F05C0928E054E
S11314200E94A801061B170B10161106C4F4809124
S11314304705882389F490E08091B805882309F44E
S113144091E0992361F0B801882777FD8095982F62
S11314500E941F0680E801C08068809347057501DB
S11314600894E11CF11CF501818520859927582FEA
S113147044273327422B532B80912804282F3327CA
S1131480F901EE0FFF1FE153FA4F808191817091B2
S1131490B9058417950769F4F901E158F94F80817A
S11314A0871709F467C0872F8F5F8093B9058083FE
S11314B01DC000E010E080E090E0CFECD5E0EFE765
S11314C0F6E0DF01682F9C018881998184179507D4
S11314D079F4209328049091B9058C91891709F423
S11314E049C0892F8F5F8093B9058C9300E829C088
S11314F08081972F981B091710F4092F122F6F5F03
S1131500C901019611962296319685309105D1F63E
S11315106530B9F410932804A12FBB27FD01EE0F09
S1131520FF1FE153FA4F518340838091B9058F5FC8
S11315308093B905FD01E158F94F8083A554B94F53
S11315401C929091B905892F8F778F3779F40F37D3
S113155068F0EFE7F6E0292F207880818F67891300
S113156020833196A6E0E438FA07B9F7809128047D
S1131570282F3327F7019281A22FBB27FD01E554C1
S1131580F94F808180FF07C0FD01E853FA4F808145
S1131590981729F102C081608083A853BA4F9C93A5
S11315A0FFB6F8948091C7058330B0F4E091E40568
S11315B0E80FE33008F0E350FF27EE0FFF1FE15E72
S11315C0FB4F00811181B182A0828F5F8093C70598
S11315D081E10E94BA0058018F2D99278FBFB092E4
S11315E0BA06A092B90663C0292F2150233008F00F
S11315F049C0892F8250823070F480915A0581301D
S113160051F48DEC80934E01809139018D7F80934C
S1131610390182E01CC0933071F480915A05833003
S113162051F480917E0680668093480186E0809321
S1131630420184E00CC0223060F480915A05853068
S113164041F488E0809342011092C60583E08093C0
S11316505A0590913F04913071F480915A0583307A
S113166079F510924E01809139018260809339019D
S113167090935A0518C09230D1F480915A05833062
S1131680F9F411C0973099F480915A05853011F01E
S1131690882349F480917E0680668093480184E023
S11316A080935A0504C088E080933F0404C080916D
S11316B03F04883029F410923F048FE00E94BA005E
S11316C080913F048823D1F480915A058530B1F488
S11316D08091C605882391F480912704882371F4AE
S11316E080914705882351F490E08091B8058823C0
S11316F009F491E0992311F00E94FD068091B80548
S1131700823009F076C01092B8058091570588237D
S113171021F0813009F06DC065C0C0918E05D09173
S11317208F050E94A80120914705203829F41092C2
S113173047050E94FD065DC08E01061B170B27FF9F
S113174003C010161106F4F0C0914305D09144056E
S1131750809127048823B1F4CE010E9408079927B9
S1131760882359F48FA58E7F8FA781E08093270467
S1131770D0938606C093850631C09927F82E882316
S113178069F102C055E0F52E20914705822F992773
S11317908F77019779F420782260209347058CE8AD
S11317A090E00E94AA03AA27BB27BC01CD010E9496
S11317B01F061FC027FF0EC0101611065CF480E838
S11317C080934705B801882777FD8095982F0E945C
S11317D01F0602C0109247058F2D09C083E0809335
S11317E0470507C0109227041092470580E00E9425
S11317F060038FB7F894282F3327809142048130F7
S1131800A9F081E0809342042FBF30CC80914C0139
S11318108F7780934C0180914C01806880934C01B8
S113182085E080935A0510923F044ACF10924204F7
S11318302FBFDF91CF911F910F91FF90EF90DF9019
S1131840CF90BF90AF909F908F907F906F900895AE
S11318508FB7F894282F33278091420481508093C6
S11318604204803811F02FBF089581E08093420430
S11318702FBF0E942808089580914204882321F0F4
S1131880806880934204089581E0809342040E941A
S1131890280808951F920F920FB60F9211242F93C8
S11318A03F934F935F936F937F938F939F93AF93E4
S11318B0BF93EF93FF938091C60588608093C6051C
S11318C00E943C0CFF91EF91BF91AF919F918F913A
S11318D07F916F915F914F913F912F910F900FBE28
S11318E00F901F9018951F920F920FB60F9211240C
S11318F02F933F934F935F936F937F938F939F9314
S1131900AF93BF93EF93FF938091DF008D7F80931C
S1131910DF008FEF809310048091B805813019F4B3
S113192082E08093B8050E943C0CFF91EF91BF9137
S1131930AF919F918F917F916F915F914F913F9163
S11319402F910F900FBE0F901F9018951F920F921A
S11319500FB60F9211242F933F934F935F936F937E
S11319607F938F939F93AF93BF93EF93FF93809154
S1131970C60580618093C6050E943C0CFF91EF91DF
S1131980BF91AF919F918F917F916F915F914F9193
S11319903F912F910F900FBE0F901F9018951F929B
S11319A00F920FB60F9211242F933F934F935F938F
S11319B06F937F938F939F93AF93BF93EF93FF9313
S11319C08091C60580688093C6050E943C0CFF91F7
S11319D0EF91BF91AF919F918F917F916F915F91A3
S11319E04F913F912F910F900FBE0F901F9018951C
S11319F01F920F920FB60F9211242F933F934F9380
S1131A005F936F937F938F939F93AF93BF93EF9362
S1131A10FF938091C60581608093C6050E943C0CAB
S1131A20FF91EF91BF91AF919F918F917F916F91B2
S1131A305F914F913F912F910F900FBE0F901F9088
S1131A4018951F920F920FB60F9211242F933F9364
S1131A504F935F936F937F938F939F93AF93BF93B2
S1131A60EF93FF938091C60580648093C6050E941E
S1131A703C0CFF91EF91BF91AF919F918F917F911A
S1131A806F915F914F913F912F910F900FBE0F90E7
S1131A901F9018951F920F920FB60F9211242F9337
S1131AA03F934F935F936F937F938F939F93AF93E2
S1131AB0BF93EF93FF938091C60584608093C6051E
S1131AC00E943C0CFF91EF91BF91AF919F918F9138
S1131AD07F916F915F914F913F912F910F900FBE26
S1131AE00F901F9018952F923F924F925F926F9292
S1131AF07F928F929F92AF92BF92CF92DF92EF929A
S1131B00FF920F931F93CF93DF93CDB7DEB7A997BF
S1131B100FB6F894DEBF0FBECDBF8A3009F442C1C0
S1131B208B30A8F4863009F4B4C0873048F484308C
S1131B30C9F1853008F096C0833009F0C8C320C0CD
S1131B40883009F4D7C0893008F0F9C0BCC08E30A1
S1131B5009F455C28F3038F48C3009F49DC18D30AE
S1131B6008F042C273C1803109F4CCC2803108F458
S1131B70B9C2813109F418C3823109F0A8C34AC338
S1131B801092E3051092E2051092CE051092CD0555
S1131B9010925605109255058FB7F8949927109214
S1131BA0250493C340918D058FB7F894282F3327CC
S1131BB080915405882311F02FBF2EC081E08093BB
S1131BC054052FBF8091C8008F7B8093C8008091FB
S1131BD0C9008F7B8093C9004093CE008091C800D8
S1131BE080648093C8008091C80086FFFCCF8091F8
S1131BF0C8008F7B8093C8008091C8008064809364
S1131C00C8008091C90080648093C9008FB7F8949C
S1131C109927109254058FBF1FB7F89490911E0412
S1131C204A30A1F4E92FFF27DF01AD5BBB4F8C9154
S1131C308D3011F41C9206C0EC5BFB4F10829F5F49
S1131C4090931E0488E00E94BA0008C0E92FFF2781
S1131C50EC5BFB4F40839F5F90931E04812F992779
S1131C608FBF35C380E00E940C058E010F5F1F4FAC
S1131C7099279F938F9380E092E09F938F931F9374
S1131C800F930E94FE169927BC01C8010E94090403
S1131C90A1C181E00E940C058E010F5F1F4F99279F
S1131CA09F938F9381E292E09F938F931F930F935F
S1131CB00E94FE169927BC01C8010E9409048DB731
S1131CC09EB7069650C182E00E940C058E010F5FFC
S1131CD01F4F99279F938F9380E492E09F938F9354
S1131CE01F930F930E94FE169927BC01C8010E94FE
S1131CF0090453C11FB7F89464E474E08FE592E0DB
S1131D000E94F516892B19F485E00E94BA0064E458
S1131D1074E081E692E00E94F516892B11F486E0C6
S1131D2009C064E474E084E692E00E94F516892B0D
S1131D3019F487E00E94BA0010921E048FCF80919C
S1131D404004882361F52091D9053091DA0540914A
S1131D50DB055091DC05EFB7F894FF27609150053F
S1131D60709151058091520590915305E0904C0576
S1131D70F0904D0500914E0510914F056E0D7F1D9D
S1131D80801F911FEFBF2093D9053093DA0540934C
S1131D90DB055093DC05109240040E94F1040E947C
S1131DA0B90141C00E94B9015B016C018091DF005F
S1131DB08E7F8093DF008FEF809310042FEF3FEF2F
S1131DC04FEF5FE760E0E4E9F5E0808581FF1CC048
S1131DD080819181A281B38186017501E81AF90A93
S1131DE00A0B1B0BD801C701E480F580068117811B
S1131DF0E81AF90A0A0B1B0BE216F3060407150787
S1131E001CF4A801970161E0399605E0E83BF0076E
S1131E10E1F6662309F45BC21216130614061506CE
S1131E202CF0C601B5010E949A0651C22093D9052F
S1131E303093DA054093DB055093DC0581E0809311
S1131E404004C601B5010E94F10441C28FB7F89461
S1131E5099272091C5052093110423E020931804A9
S1131E608FBF90911104913061F0913020F0923045
S1131E7009F02DC20DC081E0809358051092E5054C
S1131E8004C0909358059093E5050E9466041FC210
S1131E9081E080935805F7CF10925805E090BB0578
S1131EA0F090BC058091E505813049F0813018F04F
S1131EB0823069F408C080E00E94270611C081E0E6
S1131EC00E94270656C082E00E9427066FC0813018
S1131ED009F44FC0813020F0823009F0F8C166C0A7
S1131EE0B701882777FD8095982F0E948C15F7FEFF
S1131EF006C020E030E040E857E40E94FA1420E0F5
S1131F0030E042EE52E40E94181620E038EA44ED34
S1131F1056E40E94F9140E945E158B019C017E0117
S1131F200894E11CF11CCB0164E670E00E947B166E
S1131F309F938F93C80164E670E00E947B167F93A1
S1131F406F9387E692E09F938F93FF92EF920E94A4
S1131F50FE169927BC01C7010E9409040E945D0472
S1131F608DB79EB708960FB6F8949EBF0FBE8DBF6F
S1131F70AEC18E010F5F1F4FFF92EF9286E792E092
S1131F809F938F931F930F930E94FE169927BC0172
S1131F90C8010E9409040E945404EDB7FEB73696A6
S1131FA00FB6F894FEBF0FBEEDBF91C18E010F5F57
S1131FB01F4FFF92EF9282E892E09F938F931F93BB
S1131FC00F930E94FE169927BC01C8010E940904C0
S1131FD00E9454040DB71EB70A5F1F4F0FB6F89442
S1131FE01EBF0FBE0DBF73C18FB7F8949927209100
S1131FF043042093120422E02093190466C1E09064
S1132000C305F090C405F7E2CF2ED12CCE0CDF1C13
S1132010F70107A110A580911A04823091F50115EA
S1132020110531F0B70180E00E949E03882311F06E
S113203084E022C08091BF059091C00501969093E1
S1132040C0058093BF0580179107A8F481E08093B1
S11320501A04F6010281138101151105A1F00E94F1
S1132060B901AB01BC0122273327E1E0EE2E83E066
S11320700E94D6032CC185E080931A0480911A042F
S113208022C0813001F582E080931A042FB7F894BE
S11320903327809142048F5F809342042FBF809145
S11320A04605882369F4F092BE05E092BD0581E0FF
S11320B0809346051092BA0580E10E94BA006AC076
S11320C00E94280C6DC0843008F401C1012B39F042
S11320D08091BF059091C005F60191838083109291
S11320E01A04F5C08091460510924605853009F41E
S11320F0EEC0863009F4EBC0873009F4E8C0809361
S11321004605E5C02FB7F8943327809142048F5FCA
S1132110809342042FBF40914605413091F5809150
S1132120BA058F5F8093BA05863058F52091BD05B6
S11321303091BE05809147058823E1F490E08091B9
S1132140B805882309F491E09923A1F0309344055C
S1132150209343054093470586E391E00E94AA0338
S1132160AA27BB27BC01CD010E941F061092E705D8
S113217083E004C085E08093E70582E08093460510
S113218009C0109246050E94280C8091E705882317
S113219021F406C00E94280C9AC08C5F80931A0414
S11321A08EE00E94BA0093C08FB7F894282F33278B
S11321B08091C705882309F489C0E091E405FF27CD
S11321C0EE0FFF1FE15EFB4F008111812FBFC8019D
S11321D00E941A038FB7F89499278FBF9FB7F8947A
S11321E08091E405E82FFF27EE0FFF1FE15EFB4F10
S11321F0118300838F5F8093E405833010F0109285
S1132200E4058091C70581508093C705892F9927DC
S11322108FBFCACFFFB7F9A3F89420904805309038
S1132220490540904A0550904B056624772488243C
S11322302EE4A22E93E8B92ECC24DD24EE24FF2430
S113224000E010E0222D332D442D552D662D772DE1
S1132250882D90E00E9478132AA33BA34CA35DA38E
S11322606EA37FA388A799A7822E932EA42EB52EA2
S11322702401350100E20E947614A22EB32EC42E4E
S1132280D52EA301920156954795379527952A0D8A
S11322903B1D4C1D5D1D57FF05C05F772F5F3F4FF2
S11322A04F4F5F4F209348053093490540934A05AB
S11322B050934B05E9A08E2D99278FBF8FB7F894C3
S11322C099273093C2052093C105CACC2FBFA99684
S11322D00FB6F894DEBF0FBECDBFDF91CF911F9133
S11322E00F91FF90EF90DF90CF90BF90AF909F90B1
S11322F08F907F906F905F904F903F902F900895B4
S11323008091DF058F3FB1F0282F3327F901E65D77
S1132310FB4F80818093DF058F3F11F48093840607
S11323208FEF80832F3F31F0822F0E94730D81E065
S113233090E0089580E090E008951F931FB7F8940B
S113234014BE88E10FB6F894809360001092600088
S11323500FBE43E150E06FEF70E08AE294E00E9428
S1132360EE168FEF8093DF058093840687E896E06E
S11323709093BA068093B9061092E6058AE5809395
S1132380260485B7806885BF85B7806885BF80E8E7
S1132390809361008FE08093610091E090938100CD
S11323A080E28093B6009093B100AEEFE0E0F0E0FD
S11323B06FEF7FEFB0E08091B2008823E1F74091A6
S11323C08400509185008091B2008034E1F720911F
S11323D0840030918500241B350B6217730708F4C1
S11323E0B9012E173F0708F4F901CF01861B970B9B
S11323F0029730F0B0E06FEF7FEFE0E0F0E003C071
S1132400BF5FB23310F4A150B1F63093E1052093CD
S1132410E0051092B1008091B10080938100809119
S113242081008093B6008091B600992783709070E4
S1132430892BC9F78091DF008D7F8093DF00809125
S1132440DC008D7F8093DC008091DF008E7F8093A1
S1132450DF008091DC008E7F8093DC0080E280933B
S1132460B6008091DC008F7C80638093DC008FEF6A
S1132470809310048091DF0088608093DF0084E4FF
S1132480809391058091C8008F778093C8008091D4
S1132490C8008F7B8093C8008091C80082608093BD
S11324A0C8008091C9008F7D8093C9008091C900C4
S11324B08B7F8093C9008091C90080688093C90094
S11324C08091C90080648093C9008091C9008061B3
S11324D08093C9008091C90088608093C90080916D
S11324E0CA008F778093CA008091CA008F7B809343
S11324F0CA008091CA008F7D8093CA008091CA006F
S11325008F7E8093CA008091CA008E7F8093CA0018
S11325108091CA0084608093CA008091CA0082605E
S11325208093CA001092CD0082E28093CC00109276
S11325302504109254051092E3051092E2051092BE
S11325401D0410921C041092560510925505109209
S1132550DE051092DD051092CE051092CD05109285
S11325603E0410923D046A9A6B9A6C9A729A739A1A
S1132570749A81E085BF809139018260809339012A
S11325800E9480118823E1F7109292058AE18093DA
S11325907E0687EC809349018AE78093480180ECAA
S11325A08093450188E38093DC0080913901826047
S11325B08093390181E080935A0520918E023091F5
S11325C08F022F5F3F4FC901AA27BB2721503040FC
S11325D08093480590934905A0934A05B0934B0511
S11325E088EE95E09093200480931F04C296909304
S11325F02204809321048CE496E090932404809335
S113260023048FEF9FEF9093D0058093CF05909391
S1132610D2058093D1059093D4058093D3059093EC
S1132620D6058093D5059093D8058093D705229538
S1132630207F20931B04109293050E94801188230D
S1132640E1F7812F99278FBF7894809880917E003D
S1132650816080937E0044EF51E060E070E080E0B0
S11326600E94710540E157E260E070E081E00E9461
S1132670710548E853E160E070E082E00E94710572
S11326808FB7F894482F55277FEFE0E2F1E064918B
S113269017C08091100487FF0AC080917A0080914E
S11326A0DC001092100483B7807F862B83BF83B72E
S11326B0816083BF78948895F89483B78E7F83BFB5
S11326C08091DF058F3F29F3282F3327F901E65D39
S11326D0FB4F90819093DF059F3F11F49093840604
S11326E070832F3FB1F24FBF822F0E94730DC8CF6A
S11326F0ACE2B0E0EEE7F3E10C94AE16222E332EFA
S1132700442E552E662E772E882E992EFE01319654
S1132710A8E01192AA95E9F729823A824B825C8259
S11327206D827E828F829886FE013996B8E011927E
S1132730BA95E9F7A986BA86CB86DC86ED86FE864D
S11327400F87188B89819A81AB81BC8189A79AA74D
S1132750ABA7BCA77C018D018FEF9FEFA0E0B0E099
S1132760E822F9220A231B2389A59AA5ABA5BCA5B7
S11327701D014424552489859A85AB85BC858DA388
S11327809EA3AFA3B8A75C016D018FEF9FEFA0E0FC
S1132790B0E0A822B922CA22DB228DA19EA1AFA15A
S11327A0B8A53D0188249924C801B701A601950163
S11327B00E948F1669A37AA38BA39CA3C801B701B7
S11327C0A40193010E948F167B018C01C201B10107
S11327D0A60195010E948F165B016C01C201B10133
S11327E0A40193010E948F163B014C01EA0CFB1CCF
S11327F00C1D1D1D89A19AA1ABA1BCA19D0144275B
S113280055272E0D3F1D401F511F2A153B054C0512
S11328105D0540F480E090E0A1E0B0E0680E791E30
S11328208A1E9B1ECA01AA27BB27860D971DA81DB9
S1132830B91D8D8F9E8FAF8FB8A3A901332722278F
S113284089A19AA1ABA1BCA1A070B070280F391FB7
S11328504A1F5B1F298F3A8F4B8F5C8FA98CBA8CD0
S1132860CB8CDC8CED8CFE8C0F8D18A1FE01719647
S113287098E011929A95E9F7ED8AFE8A0F8B188FEA
S11328802D813E814F8158856DA17EA18FA198A590
S11328900E948F163B014C012D853E854F8558893A
S11328A069A57AA58BA59CA50E948F162D893E89C2
S11328B04F89588D260F371F481F591F260D371D66
S11328C0481D591D2D8B3E8B4F8B588F6D887E88EC
S11328D08F88988C2A2D3B2D4C2D5D2D662D772DC0
S11328E0882D992DE2E1AC960C94CA16A0E1B0E0D3
S11328F0ECE7F4E10C94AE16222E332E442E552E22
S1132900662E772E882E992E002309F466C088E05F
S1132910FE01319611928A95E9F729833A834B8314
S11329205C836D837E838F829887E0E2E01B1E16B2
S1132930CCF52D813E814F815885602F772767FD27
S11329407095DA01C901062E04C0B695A79597952E
S113295087950A94D2F78D879E87AF87B88B04C07A
S1132960220F331F441F551FEA95D2F789819A819C
S1132970AB81BC8104C0B695A795979587956A9558
S1132980D2F7282B392B4A2B5B2B29873A874B8785
S11329905C8729843A844B845C846D847E848F8430
S11329A098881BC01D861E861F86188A2E2F3327E3
S11329B027FD3095309521953F4F8D819E81AF81C4
S11329C0B88504C0B695A795979587952A95D2F7AB
S11329D089879A87AB87BC87DCCF222D332D442D82
S11329E0552D662D772D882D992DE2E160960C9456
S11329F0CA165058BB27AA270ED0E0C0D1D030F059
S1132A00D6D020F031F49F3F11F41EF4C6C00EF46A
S1132A10E095E7FBBCC0E92FE2D080F3BA17620768
S1132A2073078407950718F071F49EF5FAC00EF445
S1132A30E0950B2EBA2FA02D0B01B90190010C01CA
S1132A40CA01A0011124FF27591B99F0593F50F4E2
S1132A50503E68F11A16F040A22F232F342F44273A
S1132A60585FF3CF469537952795A795F040539532
S1132A70C9F77EF41F16BA0B620B730B840BBAF002
S1132A809150A1F0FF0FBB1F661F771F881FC2F76D
S1132A900EC0BA0F621F731F841F48F48795779581
S1132AA06795B795F7959E3F08F0B3CF9395880F38
S1132AB008F09927EE0F97958795089598D088F098
S1132AC09F5790F0B92F9927B751A0F0D1F0660F16
S1132AD0771F881F991F1AF0BA95C9F712C0B13031
S1132AE081F09FD0B1E008959CC0672F782F88278C
S1132AF0B85F39F0B93FCCF3869577956795B39570
S1132B00D9F73EF490958095709561957F4F8F4FDE
S1132B109F4F0895E89409C097FB3EF490958095E3
S1132B20709561957F4F8F4F9F4F9923A9F0F92F8F
S1132B3096E9BB279395F695879577956795B7950D
S1132B40F111F8CFFAF4BB0F11F460FF1BC06F5FF3
S1132B507F4F8F4F9F4F16C0882311F096E911C005
S1132B60772321F09EE8872F762F05C0662371F026
S1132B7096E8862F70E060E02AF09A95660F771F3A
S1132B80881FDAF7880F9695879597F9089597F92E
S1132B909F6780E870E060E008959FEF80EC0895FF
S1132BA000240A9416161706180609060895002428
S1132BB00A9412161306140605060895092E0394A2
S1132BC0000C11F4882352F0BB0F40F4BF2B11F416
S1132BD060FF04C06F5F7F4F8F4F9F4F089557FD75
S1132BE09058440F551F59F05F3F71F04795880F77
S1132BF097FB991F61F09F3F79F08795089512160E
S1132C0013061406551FF2CF4695F1DF08C01616B9
S1132C1017061806991FF1CF86957105610508946A
S1132C200895E894BB2766277727CB0197F9089581
S1132C300BD0C4CFB5DF28F0BADF18F0952309F024
S1132C40A6CFABCF1124EECFCADFA0F3959FD1F36B
S1132C50950F50E0551F629FF001729FBB27F00D46
S1132C60B11D639FAA27F00DB11DAA1F649F66279B
S1132C70B00DA11D661F829F2227B00DA11D621FEA
S1132C80739FB00DA11D621F839FA00D611D221FA4
S1132C90749F3327A00D611D231F849F600D211D88
S1132CA0822F762F6A2F11249F5750408AF0E1F02B
S1132CB088234AF0EE0FFF1FBB1F661F771F881F74
S1132CC091505040A9F79E3F510570F060CFAACFB4
S1132CD05F3FECF3983EDCF3869577956795B7955F
S1132CE0F795E7959F5FC1F7FE2B880F911D969589
S1132CF0879597F90895AA1BBB1B51E107C0AA1F2A
S1132D00BB1FA617B70710F0A61BB70B881F991F88
S1132D105A95A9F780959095BC01CD010895629FBD
S1132D20D001739FF001829FE00DF11D649FE00DBF
S1132D30F11D929FF00D839FF00D749FF00D659F20
S1132D40F00D9927729FB00DE11DF91F639FB00D1F
S1132D50E11DF91FBD01CF01112408952F923F9267
S1132D604F925F926F927F928F929F92AF92BF9297
S1132D70CF92DF92EF92FF920F931F93CF93DF9343
S1132D80CDB7DEB7CA1BDB0B0FB6F894DEBF0FBEA0
S1132D90CDBF09942A88398848885F846E847D84ED
S1132DA08C849B84AA84B984C884DF80EE80FD80EF
S1132DB00C811B81AA81B981CE0FD11D0FB6F89465
S1132DC0DEBF0FBECDBFED010895FB01DC0102C0E3
S1132DD001900D9241505040D8F70895DC0101C094
S1132DE06D9341505040E0F70895FB01DC018D9153
S1132DF0019080190110D9F3990B0895A0E1B0E076
S1132E00E4E0F7E10C94BC160F89188D86E08E83FC
S1132E101C830B838FEF9FE798878F83AE01455EFA
S1132E205F4F5A834983698D7A8DCE0103960E9440
S1132E30231729853A85020F131FF8011082E4E055
S1132E4060960C94D816ABE0B0E0E9E2F7E10C949C
S1132E50B0163C014B016A01FC0117821682838182
S1132E6081FD03C08FEF9FEFDAC1F3013381F401D9
S1132E7033FD859133FF81914F01882309F4CCC13F
S1132E80853239F433FD859133FF81914F018532C9
S1132E9029F4B30199270E942919E7CF00E04424BB
S1132EA055244AE00032B0F48B3269F08C3228F4B5
S1132EB0803251F0833271F40BC08D3239F080339B
S1132EC049F4016028C00260046025C0086023C082
S1132ED0006121C007FD29C0282F20532A3078F42F
S1132EE006FF06C0549EC0011124522E580E13C072
S1132EF0449EC0011124422E480E00620CC08E3242
S1132F0021F406FD89C1006406C08C3611F4006802
S1132F1002C0883651F4F40133FD859133FF819169
S1132F204F01882309F46FC0BDCF982F8554833097
S1132F3018F08052833038F424E030E0C20ED31EFF
S1132F408FE389830FC0933631F0933799F093352B
S1132F5009F05BC023C0F6018081898322E030E060
S1132F60C20ED31E7E010894E11CF11C51E0A52E73
S1132F70B12C12C0F601E080F18006FD03C06FEFB2
S1132F807FEF02C0652D772722E030E0C20ED31E0A
S1132F90C7010E941E195C010F7713C0F601E0807F
S1132FA0F18006FD03C06FEF7FEF02C0652D772728
S1132FB022E030E0C20ED31EC7010E9413195C0147
S1132FC0006803FF07C01BC0B30180E290E00E94C9
S1132FD029194A94842D9927A816B906A8F30FC075
S1132FE0F70107FD859107FF81917F01B3019927BF
S1132FF00E94291941104A940894A108B108A11407
S1133000B10471F706C190E03EC0943611F09936D0
S113301091F507FF0AC0F601608171818281938175
S113302024E030E0C20ED31E0DC0F60180819181F0
S11330309C01B901882777FD8095982F42E050E0E4
S1133040C40ED51E4FE6B42EB02297FF09C090954A
S11330508095709561957F4F8F4F9F4F50E8B52AAB
S11330608E010F5F1F4F2AE030E0A8010E9456191D
S1133070A82EA01A4DC0953731F43FEEF32EF0225E
S11330802AE030E023C029EFF22EF0229F3661F0CF
S1133090903720F4983509F0BFC012C0903739F04A
S11330A0983709F0B9C005C028E030E00FC080E1CE
S11330B0F82AF4FE02C094E0F92A20E130E006C0C8
S11330C0F4FE02C0E6E0FE2A20E132E0F7FE0AC088
S11330D0F601608171818281938144E050E0C40EE5
S11330E0D51E0BC0F60180819181AC01BA018827FD
S11330F09927E2E0F0E0CE0EDF1E8E010F5F1F4F36
S1133100A8010E945619A82EA01A8FE7B82EBF2036
S1133110B6FE10C0FEEFBF22A51460F42B2D33279A
S113312024FF1AC022FF02C0052D09C02FEEB222CF
S1133130052D01C00A2D2B2D332724FF0EC0FE01BF
S1133140EA0DF11D8081803319F439EEB32209C0F0
S11331500F5F22FF06C004C0052D822F867809F078
S11331600F5FEB2CFF24E3FC14C0E0FE0FC004153A
S113317010F05A2C0BC0542C501A5A0C042D06C0B3
S1133180B30180E290E00E9429190F5F0415C0F397
S113319004C0041510F4401A01C04424E4FE10C015
S11331A0B30180E390E00E942919E2FE1EC0E1FE13
S11331B003C088E590E002C088E790E0B3010CC04A
S11331C08E2D867891F0E1FE02C08BE201C080E290
S11331D0B7FC8DE2B30199270E94291906C0B301F7
S11331E080E390E00E9429195A94A514C0F3AA948C
S11331F0FE01EA0DF11D8181B30199270E9429196D
S1133200AA2039F0F4CFB30180E290E00E9429199A
S11332104A944420C1F729CEF30186819781E0E1E5
S11332202B960C94CC16FC01059061507040011053
S1133230D8F7809590958E0F9F1F0895FC016150DB
S1133240704001900110D8F7809590958E0F9F1FC4
S113325008950F931F93CF93DF938C01EB018B8120
S1133260992781FF1BC082FF0DC02E813F818C8175
S11332709D812817390764F4E881F9810193F98362
S1133280E88306C0E885F985802F0995892B31F4F8
S11332908E819F8101969F838E8302C00FEF1FEF63
S11332A0C801DF91CF911F910F910895FA01AA27C8
S11332B0283051F1203181F1E8946F936E7F6E5F75
S11332C07F4F8F4F9F4FAF4FB1E03ED0B4E03CD023
S11332D0670F781F891F9A1FA11D680F791F8A1F06
S11332E0911DA11D6A0F711D811D911DA11D20D06D
S11332F009F468943F912AE0269F11243019305D27
S11333003193DEF6CF010895462F4770405D419317
S1133310B3E00FD0C9F7F6CF462F4F70405D4A3364
S113332018F0495D31FD4052419302D0A9F7EACF2C
S1133330B4E0A6959795879577956795BA95C9F75B
S113334000976105710508959B01AC010A2E06944E
S11333505795479537952795BA95C9F7620F731F07
S10D3360841F951FA01D0895FFCFE0
S113336A6572726F7220636F646520666F7220746F
S113337A656D70302E72656164203D2025640D0AE6
S113338A006572726F7220636F646520666F7220C3
S113339A766F6C302E72656164203D2025640A00C4
S11333AA6572726F7220636F646520666F7220762D
S11333BA6F6C312E72656164203D2025640A0074A5
S11333CA0076300076310054656D70203D20256406
S11333DA2E25640D0A00566F6C30203D2025640D9D
S11333EA0A00566F6C31203D2025640D0A00010045
S11333FA232323232323232323232323232323238F
S113340A232323232323232323232323232323237E
S113341A232323232323232323232323232323236E
S113342A232323232323232323232323232323235E
S113343A0D0A230D0A2309416C7020536179696EC0
S113344A0D0A2309616C705F736179696E5B61743B
S113345A5D696565655B646F745D6F72670D0A23E8
S113346A0931342F31312F323031310D0A23094BCE
S113347A544820526F79616C20496E73746974756B
S113348A7465206F6620546563686E6F6C6F677924
S113349A0D0A230D0A23094E6F7465733A0D0A2324
S11334AA0957656C636F6D6520746F2054696E7972
S11334BA4F5320322E312E31206F6E2041746D65A8
S11334CA6761313238524641310D0A230954686919
S11334DA732069732074686520776F726B696E67ED
S11334EA2064656D6F20666F7220426C696E6B434F
S11334FA0D0A230949742073686F756C6420616C22
S113350A736F206563686F20746865206B657973CF
S113351A20636F6D696E672066726F6D20736572C2
S113352A69616C20706F72740D0A230D0A232323B8
S113353A232323232323232323232323232323234D
S113354A232323232323232323232323232323233D
S113355A232323232323232323232323232323232D
S113356A232323232323232323232323230D0A006F
S109357AFF03FF01000045
S9030000FC
