:100000000C9493000C94B2000C94B2000C94B200C7
:100010000C94B2000C94B2000C94B2000C94B20098
:100020000C94B2000C94B2000C94B2000C94B20088
:100030000C94B2000C94B2000C94B2000C94B20078
:100040000C94B2000C94B2000C94B2000C94B20068
:100050000C94B2000C94B2000C94B2000C94B20058
:100060000C94B2000C94B2000C94B2000C94B20048
:100070000C94B2000C94B2000C94B2000C94B20038
:100080000C94B2000C94B2000C94B2000C94B20028
:100090000C94E1000C94B2000C943B010C94B2005F
:1000A0000C94B2000C94B2000C94B2000C94B20008
:1000B0000C94B2000C94B2000C94B2000C94B200F8
:1000C0000C94B2000C94B2000C94B2000C94B200E8
:1000D0000C94B2000C94B2000C94B2000C94B200D8
:1000E0000C94B2000C946C0C0C94E8030C941A0C55
:1000F0000C94F10B0C946C0B0C94F2030C94C80B45
:100100000C94430C0C94950B0C9483030C94BF0338
:100110000C9497010C94B2000C94B2000C94B200B1
:1001200000020E060C0411241FBECFEFD1E4DEBF87
:10013000CDBF13E0A0E0B2E0ECE3FDE200E00BBFD6
:1001400002C007900D92A23AB107D9F715E0A2EAD2
:10015000B3E001C01D92A634B107E1F70E942B1055
:100160000C949D160C9400008FB7F894992708956D
:100170008FBF0895282F9FB7F894E82FFF27EC54DE
:10018000FC4F80818F3F81F4E0910D05E21771F4FF
:100190000BC02093710404C0FF27EC54FC4F208354
:1001A00020930D0520E007C025E005C08091710473
:1001B0008F3F91F7EECF892F99278FBF822F9927F5
:1001C00008951F920F920FB60F9211242F933F9311
:1001D0004F935F936F937F938F939F93AF93BF934F
:1001E000EF93FF938091C80087FF34C04091CE0009
:1001F0004093A203E0917404F0917504309701F1EB
:1002000020910C0430910D0480915F049091600462
:1002100028173907D0F4E20FF31F408380910C04B4
:1002200090910D04019690930D0480930C042091FD
:100230005F04309160048217930739F483E003C0B0
:100240004093400484E00E94BA008091C8008F77F8
:100250008093C800FF91EF91BF91AF919F918F91D3
:100260007F916F915F914F913F912F910F900FBEB2
:100270000F901F9018951F920F920FB60F92112496
:100280002F933F934F935F936F937F938F939F939E
:10029000AF93BF93EF93FF93E091A703F091A8036F
:1002A000309779F120916F04309170048091C203EE
:1002B0009091C3032817390780F48091C80085FF07
:1002C000FCCFE20FF31F80818093CE002F5F3F4F62
:1002D0003093700420936F0414C02817390789F4F1
:1002E0001092C3031092C2031092700410926F0414
:1002F0001092A8031092A70310920A0482E00E94B1
:10030000BA008091C8008F7B8093C800FF91EF9165
:10031000BF91AF919F918F917F916F915F914F911D
:100320003F912F910F900FBE0F901F9018951F9225
:100330000F920FB60F9211248F93809145048F5F17
:10034000809345048F910F900FBE0F901F901895CA
:10035000FB0121E030E002C0220F331F8A95E2F753
:1003600084A5822B84A70895FC0182819927982F68
:10037000882721813327822B932B25E0969587951B
:100380002A95E1F7817090700895FC0140E050E0FB
:1003900082819927982F882721813327822B932BBD
:1003A00087749C7C8154984811F441E050E0CA0164
:1003B0000895FC0187819927982F88272681332764
:1003C000822B932B08954FB7F89455272091E10085
:1003D000622F2091E200722F2091E300822F209162
:1003E000E400922F4FBF0895EF92FF920F931F9357
:1003F000CF93DF937B018C018FB7F894C82FDD2753
:100400000E94E3019B01AC01C801B7016230710594
:100410008105910520F462E070E080E090E0260F15
:10042000371F481F591FDA01C901B093F800A09384
:10043000F7009093F6002093F50081E08093E000B0
:100440008091DF0081608093DF008FEF80939903BC
:10045000CFBFDF91CF911F910F91FF90EF90089543
:1004600020E030E0FC0181818770823011F421E0CE
:1004700030E0C9010895CF93DF93EC010E94B401ED
:100480008823D1F0CE010E94C5018823A9F0CE01B6
:100490000E94D9012FB7F894332740919B035091C4
:1004A0009C032FBF20E08417950709F021E081E02D
:1004B0002827822F992702C080E090E0DF91CF911A
:1004C0000895FB0121E030E002C0220F331F8A951E
:1004D000E2F784A5822399270895EF92FF920F9364
:1004E0001F937C018FB7F8949927009156041091BF
:1004F00057040F5E1E4F109357040093560401518A
:1005000011408FBF8BE00E94BA00C801B7010E9462
:100510006D1344961F910F91FF90EF9008950F93E4
:100520001F930FB7F894109145040E94E3019B01BB
:10053000AC018091E00083FF05C01F5F0E94E301D2
:100540009B01AC01802F99278FBF612F77278827C8
:100550009927FAE1660F771F881F991FFA95D1F73F
:10056000E6E05695479537952795EA95D1F7622BA2
:10057000732B842B952B1F910F910895AF92BF92EF
:10058000CF92DF92EF92FF920F931F930E948F0200
:100590007B018C012091D7033091D8034091D9037E
:1005A0005091DA038091D3039091D403A091D503A5
:1005B000B091D603820F931FA41FB51FE216F30656
:1005C0000407150730F082179307A407B50758F002
:1005D00005C082179307A407B507E0F5E816F906EA
:1005E0000A071B07B8F59C01AD012E193F09400B06
:1005F000510B213060E0360760E0460762E05607A5
:1006000068F180E090E0A0E0B2E0E80EF91E0A1F79
:100610001B1FE092D703F092D8030093D9031093E5
:10062000DA0380E090E0A0E0BEEFE80EF91E0A1FBA
:100630001B1F20503040404052402093D303309342
:10064000D4034093D5035093D60320E030E040E03C
:1006500052E014C020E030E040E050E08093D70347
:100660009093D803A093D903B093DA031092D303E5
:100670001092D4031092D5031092D60359016A0147
:10068000B6E0AA0CBB1CCC1CDD1CBA95D1F7A6E0C9
:10069000EE0CFF1C001F111FAA95D1F70E94E30169
:1006A0009B01AC012E5F3F4F4F4F5F4FDA01C901F5
:1006B0008E199F09A00BB10B8A159B05AC05BD05D2
:1006C00030F4A80197012A0D3B1D4C1D5D1D509370
:1006D000F4004093F3003093F2002093F10082E0A5
:1006E0008093E0008091DF0082608093DF008FEFD5
:1006F000809399031F910F91FF90EF90DF90CF901F
:10070000BF90AF9008951F920F920FB60F921124D1
:100710002F933F934F935F936F937F938F939F9309
:10072000AF93BF93EF93FF938091DF008D7F809312
:10073000DF008FEF809399038091D3039091D403CE
:10074000A091D503B091D6030097A105B10521F47E
:100750008CE00E94BA0002C00E94BE02FF91EF919D
:10076000BF91AF919F918F917F916F915F914F91C9
:100770003F912F910F900FBE0F901F9018951F92D1
:100780000F920FB60F9211240F900FBE0F901F9073
:100790001895FC01655F608308950F931F930FB751
:1007A000F89411276093D7037093D8038093D903EB
:1007B0009093DA032093D3033093D4034093D5036B
:1007C0005093D6030E94BE020FBF1F910F91089550
:1007D0001F920F920FB60F9211240F900FBE0F9021
:1007E0001F9018951F920F920FB60F9211240F9021
:1007F0000FBE0F901F90189510920E0421E02093C9
:1008000051040E94F40108951F93982F1FB7F89484
:100810008091A503823099F58091A003891779F51D
:1008200080919E0320E030E08F3F11F421E030E022
:10083000232BF1F49FEF9093A0038F3F19F42FEF38
:1008400030E00DC0282F3327F901E653FC4F80819B
:1008500080939E038F3F11F490939F039083209386
:10086000C70381E08093A50387E00E94BA0005C01A
:100870008FEF8093A0031092A50321E001C020E038
:10088000812F99278FBF90E0213009F491E081E01A
:100890009827892F99271F9108958091CD03823041
:1008A00031F481E08093CD0389E00E94BA0008957D
:1008B00080937904882311F484E001C081E080935F
:1008C000CD0389E00E94BA0008952F923F924F9283
:1008D0005F926F927F928F929F92AF92BF92CF92D0
:1008E000DF92EF92FF920F931F93CF93DF932C0130
:1008F0008091C403882309F0F3C0809110048530EF
:1009000009F0EEC080915804882309F0E9C0B201D3
:1009100082E00E946102882311F490E002C0F2019B
:1009200096A580914704981731F0909347049F70E3
:10093000906C90934501C2010E94C5018823A9F0E3
:100940008091460199278F71907020917704409192
:10095000B003240F312D311D43E0359527954A957D
:10096000E1F7281739070CF4BBC089E080934201F6
:10097000B20184E00E946102882319F4C0E0D0E053
:1009800006C0F20180818550E201C80FD11D80911F
:1009900041018F71893021F087E080931004A0C05D
:1009A00052010894A11CB11CF20180819927809307
:1009B00080018250873010F4982F01C097E0D82E24
:1009C000D91AE92EFF24A701B50181E891E00E9420
:1009D000D7130FB7F894112782E0809342010E9449
:1009E000E3013B014C010FBF81E8282E81E0382E46
:1009F0002E0C3F1CED2DFF27B5016E0D7F1D20979E
:100A000009F456C02881E9808A81AB809927AA27FA
:100A1000BB27BA2FA92F982F88273327442755277C
:100A2000522F442733272227FF240027112787012D
:100A3000FF24EE242E293F29402B512BBB24CC240C
:100A4000DD242A293B294C295D29822B932BA42BB9
:100A5000B52B86199709A809B9098B83292F3A2F35
:100A60004B2F55272A839D014427552729838B2FF8
:100A70009927AA27BB278883AF01C1010E94D713FA
:100A800096E09093100484E08093C4039093420115
:100A90006B82BB27A92D982D872D8A83C401AA2795
:100AA000BB278983892D9927AA27BB2788830CC058
:100AB000AF01C1010E94D71396E09093100484E027
:100AC0008093C40390934201B20181E00E94A80187
:100AD000F20160A671A682A693A680E090E002C013
:100AE00085E090E0DF91CF911F910F91FF90EF9003
:100AF000DF90CF90BF90AF909F908F907F906F903E
:100B00005F904F903F902F9008956F927F928F92B9
:100B10009F92AF92BF92CF92DF92EF92FF920F938C
:100B20001F93CF93DF9390915804992309F4E5C064
:100B30001092580497FF07C080911004823019F476
:100B400083E080931004E92EFF24E0FE11C0809121
:100B5000C403833011F0873059F485E0809310048A
:100B600080914C01806880934C0188E08093C4039D
:100B7000E4FE0CC08091C403863041F480914101B1
:100B800087FF04C01092C40380914101E2FE50C06F
:100B90008091C403863019F41092C40303C08823E3
:100BA00009F046C0C0913F05D0914005943099F5B9
:100BB000109146011F718091B003982F96959695DC
:100BC000212F291B820F8093B0038CA58B7F8CA7CC
:100BD000BE0183E00E94A8011EA72FB7F894332717
:100BE0008091E900682E8091EA00782E8091EB00D8
:100BF000882E8091EC00982E2FBF00913F05109118
:100C00004005B80181E00E94A801F80160A671A624
:100C100082A693A60AC08CA5877F8CA7E0913F058A
:100C2000F091400584A58D7F84A785E08093C4035F
:100C3000E6FE43C08091C403843009F03EC085E0E5
:100C4000809310041092C4038091B103833019F48F
:100C50001092B10332C000910E0510910F05C8012A
:100C60000E94B401882311F1C8010E94C5018823A4
:100C7000E9F0C8010E94D9018F5F9F4FB9F090E061
:100C800080915104882309F491E0992379F081E05F
:100C900080930E048093510468E371E080E090E05B
:100CA0000E94F40182E08093B10307C01092B10367
:100CB0001092CE0380E00E945804E3FE1EC0909183
:100CC000C4039530D1F480911004873031F486E06C
:100CD00080934201909310040CC08091770490910E
:100CE00046019F71282F26952695921B890F809388
:100CF000770489E08093C40308C09091C4039923CA
:100D000009F43FC2993009F0CCC140917B014330D6
:100D100008F468C0842F99278A970CF063C0E0918B
:100D20003F05F09140056F010894C11CD11C408320
:100D30000EEFF02EF40E26E02F1510F0EF2C02C06F
:100D400017E0E12E0E2D1127A80160E871E0C60121
:100D50000E94D713C0913F05D0914005CE010E945B
:100D600030028823C1F08091B103823089F48B81F5
:100D7000E0910E05F0910F059381891749F489815F
:100D800090E08770823009F091E081E098270EC0F2
:100D900080E090E00DC08FB7F894282F332790E0C3
:100DA00080915904833008F491E02FBF892F99274F
:100DB000892BC1F0FE184F2D5527B80160587E4F82
:100DC000C601800F911F0E94D713E0917B01FF277E
:100DD000E058FE4F8081E0913F05F091400585A7E6
:100DE00021E001C020E08091460199278770907032
:100DF000892B09F068C280914C018F7780934C0158
:100E000080914C01806880934C0185E080931004B0
:100E10001092C403222309F4B0C1A0903F05B09002
:100E20004005C5010E943002282F3327122F8091E0
:100E3000B1038230F9F48091DF008E7F8093DF0070
:100E40008FEF8093990310925104E0910E05F09179
:100E50000F05222329F0BF0180E00E94A80103C0F2
:100E600084A58E7F84A71092B1031092CE0380E0F8
:100E70000E945804112309F00FC1C5010E943B02D2
:100E80008823A9F085E08093110482E08093120406
:100E900010921304F50183818093140481E194E09E
:100EA0000E946504882319F483E08093B1030E94B3
:100EB000E3016B017C01C5010E943B02882341F0E4
:100EC00086E390E0A0E0B0E0C80ED91EEA1EFB1E4B
:100ED0008601D0924204C09241040E94E301061BA5
:100EE000170B10161106C4F48091CE03882389F4E1
:100EF00090E080915104882309F491E0992361F0F6
:100F0000B801882777FD8095982F0E94FC0380E820
:100F100001C080688093CE0375010894E11CF11C28
:100F2000F501818520859927582F44273327422BA7
:100F3000532B8091B203282F3327F901EE0FFF1FA7
:100F4000EF59FB4F8081918170915204841795076E
:100F500069F4F901E85FFA4F8081871709F467C0E7
:100F6000872F8F5F8093520480831DC000E010E0C4
:100F700080E090E0C1E6D4E0E8E0F5E0DF01682F32
:100F80009C01888199818417950779F42093B20395
:100F9000909152048C91891709F449C0892F8F5F71
:100FA000809352048C9300E829C08081972F981B6E
:100FB000091710F4092F122F6F5FC90101961196BE
:100FC0002296319685309105D1F66530B9F41093AB
:100FD000B203A12FBB27FD01EE0FFF1FEF59FB4FFF
:100FE00051834083809152048F5F80935204FD01AE
:100FF000E85FFA4F8083AF5BBA4F1C929091520426
:10100000892F8F778F3779F40F3768F0E8E0F5E0B4
:10101000292F207880818F67891320833196A5E05E
:10102000ED30FA07B9F78091B203282F3327F70183
:101030009281A22FBB27FD01EF5BFA4F808180FFD9
:1010400007C0FD01E65AFB4F8081981729F102C0C5
:1010500081608083A65ABB4F9C93FFB6F894809121
:1010600059048330B0F4E0917604E80FE33008F0DF
:10107000E350FF27EE0FFF1FE755FC4F0081118162
:10108000B182A0828F5F809359048AE00E94BA00E7
:1010900058018F2D99278FBFB0924005A0923F0530
:1010A00063C0292F2150233008F049C0892F825076
:1010B000823070F480911004813051F48DEC809373
:1010C0004E01809139018D7F8093390182E01CC0EF
:1010D000933071F480911004833051F480910705AE
:1010E00080668093480186E08093420184E00CC0D2
:1010F000223060F480911004853041F488E08093C0
:1011000042011092580483E0809310049091C4032C
:10111000913071F480911004833079F510924E0172
:10112000809139018260809339019093100418C036
:101130009230D1F4809110048330F9F411C09730CB
:1011400099F480911004853011F0882349F480913E
:10115000070580668093480184E08093100404C0F2
:1011600088E08093C40304C08091C403883029F4CC
:101170001092C40388E00E94BA008091C4038823BF
:10118000D1F4809110048530B1F480915804882303
:1011900091F48091B103882371F48091CE03882368
:1011A00051F490E080915104882309F491E099234F
:1011B00011F00E944D0480915104823009F076C0F4
:1011C0001092510480910E04882321F0813009F09F
:1011D0006DC065C0C0914104D09142040E94E301FA
:1011E0002091CE03203829F41092CE030E944D04A2
:1011F0005DC08E01061B170B27FF03C010161106DA
:10120000F4F0C091CB03D091CC038091B10388233B
:10121000B1F4CE010E9465049927882359F48CA566
:101220008E7F8CA781E08093B103D0930F05C0938C
:101230000E0531C09927F82E882369F102C055E0C8
:10124000F52E2091CE03822F99278F77019779F47D
:10125000207822602093CE038CE890E00E946D02FB
:10126000AA27BB27BC01CD010E94FC031FC027FF9A
:101270000EC0101611065CF480E88093CE03B8010E
:10128000882777FD8095982F0E94FC0302C010925A
:10129000CE038F2D09C083E08093CE0307C0109248
:1012A000B1031092CE0380E00E9458048FB7F894E7
:1012B000282F33278091C6038130A9F081E08093E5
:1012C000C6032FBF30CC80914C018F7780934C01A7
:1012D00080914C01806880934C0185E080931004DC
:1012E0001092C4034ACF1092C6032FBFDF91CF9153
:1012F0001F910F91FF90EF90DF90CF90BF90AF9034
:101300009F908F907F906F9008958FB7F894282FBB
:1013100033278091C60381508093C603803811F033
:101320002FBF089581E08093C6032FBF0E948505DB
:1013300008951F93FC018FE382878091A6038F5F3E
:101340008093A60383832FB7F89433278091C60335
:101350008F5F8093C6032FBF8091CD03882311F048
:1013600015E00DC0F0935504E093540481E08093A0
:10137000CD031092530489E00E94BA0010E00E944D
:101380008509812F99271F910895EF92FF920F935E
:101390001F93CF93DF93082F7B01EA01122F2D318A
:1013A00018F086E090E083C0CA010E94C50188233E
:1013B00051F489819927807390708164986889833A
:1013C000892F99278A831E5F612FCE010E94C9034E
:1013D0002FB7F894332780919B0390919C032FBFE4
:1013E0008887892F992789872FB7F8943327809189
:1013F0009D032FBF99278C831D820B87EE828F2D33
:1014000099278F838FB7F894282F33278091A503CE
:10141000882371F482E08093A5031092A0032FBF6C
:10142000CE010E9499099927182F882399F00FC09F
:101430002FBFD093C903C093C8038FB7F894C82FA8
:10144000DD272C2F8091A503882399F406C080E026
:101450000E940404812F99272AC081E08093A5036C
:101460001092C70387E00E94BA00CFBF80E090E0EF
:101470001EC08091CA038F3F89F4E0919F03EE2341
:1014800069F010C010929E0304C0FF27E653FC4F82
:10149000108210929F0380E090E002C085E090E00F
:1014A0002FBF05C080919E038F3F79F7EBCFDF916F
:1014B000CF911F910F91FF90EF9008950F931F937D
:1014C000CF93DF9310929A03C0914304D0914404C8
:1014D000209721F08091780480FF08C081E08093FC
:1014E0009A0312C086E00E94BA000EC008810D5017
:1014F0001127CE010E94D901202FAE01BC018B859E
:101500000E94C509882371F7DF91CF911F910F9138
:101510000895EF92FF920F931F93CF93DF93E09183
:101520005004E1FF8DC0209148043091490440915E
:101530004A0450914B04E0904C04F0904D0400910B
:101540004E0410914F04621B730B840B950B6E15A8
:101550007F058007910708F473C0E0FF04C0ED7FAA
:10156000E09350040CC02E0D3F1D401F511F2093CF
:1015700048043093490440934A0450934B048091AB
:10158000A3039091A40301969093A4038093A303D3
:1015900080910B04882309F053C08FEF8093E103FF
:1015A0008093E20386E08093E60380914304909168
:1015B0004404892B09F044C0CBEDD3E0D09344041C
:1015C000C093430464E0CE010E94C90380919A0352
:1015D0008823D9F00091E6031127CE010E94D9019A
:1015E00010929A0322E0AE01BC01802F0E94C5092F
:1015F0009927282F882349F081E080939A0310923D
:101600004404109243042223D9F481E080930B0414
:101610008091A3039FB7F894282F332720FF02C09F
:10162000729801C0729A21FF02C0739801C0739A28
:1016300022FF02C0749801C0749A892F99278FBF26
:101640008DE00E94BA00DF91CF911F910F91FF9022
:10165000EF9008958FB7F894282F33278091C60311
:10166000882329F080688093C6032FBF089581E006
:101670008093C6032FBF0E94850508951F938FB7DF
:10168000F89499272091C6032F5F2093C6038FBF3C
:101690008091CD03882311F015E018C08091C40318
:1016A000882389F480911004853019F489E090E052
:1016B0000CC083E08093C4030E942A0B85E08093D2
:1016C000CD0310E003C085E090E0182F0E9485094B
:1016D000812F99271F9108951F920F920FB60F9295
:1016E00011242F933F934F935F936F937F938F9327
:1016F0009F93AF93BF93EF93FF93809158048061C2
:10170000809358040E942A0BFF91EF91BF91AF91F3
:101710009F918F917F916F915F914F913F912F9109
:101720000F900FBE0F901F9018951F920F920FB63B
:101730000F9211242F933F934F935F936F937F9357
:101740008F939F93AF93BF93EF93FF938091DF00AD
:101750008E7F8093DF008FEF8093990380915104F7
:10176000813019F482E0809351040E942A0BFF918A
:10177000EF91BF91AF919F918F917F916F915F9109
:101780004F913F912F910F900FBE0F901F90189582
:101790001F920F920FB60F9211242F933F934F93E6
:1017A0005F936F937F938F939F93AF93BF93EF93C9
:1017B000FF93809158048064809358040E942A0B00
:1017C000FF91EF91BF91AF919F918F917F916F9119
:1017D0005F914F913F912F910F900FBE0F901F90EF
:1017E00018951F920F920FB60F9211242F933F93CB
:1017F0004F935F936F937F938F939F93AF93BF9319
:10180000EF93FF93809158048860809358040E945E
:101810002A0BFF91EF91BF91AF919F918F917F9193
:101820006F915F914F913F912F910F900FBE0F904D
:101830001F9018951F920F920FB60F9211242F939D
:101840003F934F935F936F937F938F939F93AF9348
:10185000BF93EF93FF938091580484608093580462
:101860000E942A0BFF91EF91BF91AF919F918F91B1
:101870007F916F915F914F913F912F910F900FBE8C
:101880000F901F9018951F920F920FB60F92112470
:101890002F933F934F935F936F937F938F939F9378
:1018A000AF93BF93EF93FF93809158048068809328
:1018B00058040E942A0BFF91EF91BF91AF919F9125
:1018C0008F917F916F915F914F913F912F910F90E9
:1018D0000FBE0F901F9018951F920F920FB60F9288
:1018E00011242F933F934F935F936F937F938F9325
:1018F0009F93AF93BF93EF93FF93809158048160C0
:10190000809358040E942A0BFF91EF91BF91AF91F1
:101910009F918F917F916F915F914F913F912F9107
:101920000F900FBE0F901F9018952F923F924F92DD
:101930005F926F927F928F929F92AF92BF92CF925F
:10194000DF92EF92FF920F931F93CF93DF93CDB768
:10195000DEB7A9970FB6F894DEBF0FBECDBF8830B3
:1019600009F412C1893088F4853011F1863030F4E1
:10197000833031F1843009F038C334C0863009F443
:10198000B3C0873009F031C3C7C08B3009F44FC2F0
:101990008C3038F4893009F407C18A3009F025C346
:1019A0006EC18C3009F49FC28D3009F01EC3D0C2C5
:1019B00080917804882309F418C340E051E071C095
:1019C00010927504109274041092600410925F04D7
:1019D00010920D0410920C048FB7F894992710926E
:1019E000AF0338C0909140048FB7F894282F332765
:1019F00080910A04882309F04FC081E080930A0493
:101A00002FBF8091C8008F7B8093C8008091C90050
:101A10008F7B8093C9009093CE008091C800806432
:101A20008093C8008091C80086FFFCCF8091C800D9
:101A30008F7B8093C8008091C80080648093C80029
:101A40008091C90080648093C9008FB7F89499276A
:101A500010920A048FBFC9C20E948F02609348048B
:101A60007093490480934A0490934B0488EE93E06A
:101A7000A0E0B0E080934C0490934D04A0934E04FA
:101A8000B0934F04809150048E7F82608093500405
:101A90008DE00E94BA00A9C22FBFA7C2C801B7013A
:101AA00054C290917804852F8923C1F0E42FFF2739
:101AB000EE0FFF1FED5BFB4F208131811182108201
:101AC000852F8095982390937804442339F42B5DD7
:101AD000334009F087C210920B0484C24F5F483034
:101AE00008F083C2550FDDCF10919A03E12FFF2735
:101AF000EE0FFF1FED5BFB4FE080F1801182108243
:101B00000E945E0A112309F070C25BEDE51653E0F6
:101B1000F50609F06AC2B0C02FB7F8943327809158
:101B2000C7038093A00382E08093A5032FBF809119
:101B3000A003882309F059C28091C8039091C9037A
:101B40000E949909882309F450C280E00E9404048D
:101B50002091C8033091C90380919A03882309F02A
:101B600044C200914304109144040217130709F082
:101B70003CC210924404109243040E945E0A0B5D22
:101B8000134009F032C278C08091CD031092CD038A
:101B9000853009F461CF863009F427C2873009F413
:101BA00024C28093CD0321C22FB7F89433278091AC
:101BB000C6038F5F8093C6032FBF4091CD03413092
:101BC000A1F5809153048F5F80935304863068F5AC
:101BD00020915404309155048091CE038823E1F480
:101BE00090E080915104882309F491E09923A1F0B9
:101BF0003093CC032093CB034093CE0386E391E054
:101C00000E946D02AA27BB27BC01CD010E94FC03E4
:101C10001092790483E004C085E08093790482E027
:101C20008093CD030E948509E0C11092CD030E94EC
:101C30008509E0905404F0905504F70182858F33B4
:101C400009F0D3C180E00E94040480919A038823A4
:101C500009F0CBC100914304109144040E151F05F7
:101C600009F0C3C110924404109243040E945E0A1A
:101C70000B5D134009F0B9C110920B04B6C18FB7C8
:101C8000F894282F332780915904882309F404CF2E
:101C9000E0917604FF27EE0FFF1FE755FC4F008110
:101CA00011812FBFF80182858F3309F09DC0F38425
:101CB000E080C8010E94D901AC018FB7F894992740
:101CC00020919B0330919C038FBF4217530721F053
:101CD0004F5F5F4F09F08FC026E0F21609F08BC00E
:101CE0003FE0E31609F087C0F80184859DE0C92E26
:101CF000D12CC00ED11E25857E010894E11CF11C5B
:101D00009927982F88273327822B932B9F938F9384
:101D100080E092E09F938F93FF92EF920E94E713EF
:101D20009C018FB7F894482F552780910A046DB70E
:101D30007EB76A5F7F4F0FB6F8947EBF0FBE6DBF50
:101D4000882311F04FBF3AC0332781E080930A0403
:101D50004FBFF092A803E092A7033093C3032093F0
:101D6000C203F7012E0D3F1D1BC08091C9008F7B60
:101D70008093C9008091C80085FFFCCF808180934B
:101D8000CE008091C80086FFFCCF8091C80080649F
:101D90008093C8008091C90080648093C900319607
:101DA000E217F30711F78FB7F894992710920A04F6
:101DB0008FBF10920F0480E00E94BA00F60180816C
:101DC00080FF02C0729801C0729AF601808181FF83
:101DD00002C0739801C0739AF601808182FF02C02D
:101DE000749809C0749A07C0C8010E94D9018FB7BE
:101DF000F89499278FBF9FB7F89480917604E82FC5
:101E0000FF27EE0FFF1FE755FC4F118300838F5F05
:101E100080937604833010F01092760480915904F8
:101E2000815080935904892F99278FBF28CFFFB7FE
:101E3000F9A3F8942090CF033090D0034090D103C1
:101E40005090D203662477248824EEE4AE2E73E803
:101E5000B72ECC24DD24EE24FF2400E010E0222D58
:101E6000332D442D552D662D772D882D90E00E9421
:101E7000EC112AA33BA34CA35DA36EA37FA388A769
:101E800099A7822E932EA42EB52E2401350100E2AF
:101E90000E94EA12A22EB32EC42ED52EA3019201C7
:101EA00056954795379527952A0D3B1D4C1D5D1D71
:101EB00057FF05C05F772F5F3F4F4F4F5F4F209316
:101EC000CF033093D0034093D1035093D20369A141
:101ED000862F99278FBF8FB7F8949927309357048F
:101EE00020935604B7CD8091C503882361F52091D6
:101EF0006B0430916C0440916D0450916E04EFB707
:101F0000F894FF276091D7037091D8038091D9038B
:101F10009091DA03E090D303F090D4030091D503BD
:101F20001091D6036E0D7F1D801F911FEFBF209370
:101F30006B0430936C0440936D0450936E041092C4
:101F4000C5030E94CD030E948F020E94890A4DC0E2
:101F50000E948F027B018C018091DF008D7F809336
:101F6000DF008FEF809399038091500481FF3DC083
:101F70008091480490914904A0914A04B0914B0487
:101F8000A8019701281B390B4A0B5B0BDA01C90129
:101F900020914C0430914D0440914E0450914F04D7
:101FA000281B390B4A0B5B0B2F3F6FEF36076FEF88
:101FB00046076FE75607C9F01216130614061506F2
:101FC0000CF06CCD20936B0430936C0440936D0443
:101FD00050936E0481E08093C503C801B7010E944D
:101FE000CD0303C0550F41E05CCDA9960FB6F89420
:101FF000DEBF0FBECDBFDF91CF911F910F91FF903C
:10200000EF90DF90CF90BF90AF909F908F907F9098
:102010006F905F904F903F902F9008958091710442
:102020008F3FB1F0282F3327F901EC54FC4F80810A
:10203000809371048F3F11F480930D058FEF80839F
:102040002F3F31F0822F0E94950C81E090E008959F
:1020500080E090E008951F931FB7F89414BE88E1C4
:102060000FB6F89480936000109260000FBE4EE0AF
:1020700050E06FEF70E084EB93E00E94E0138FEF8D
:102080008093710480930D0580E195E09093400565
:1020900080933F05109277048AE58093B00385B75B
:1020A000806885BF85B7806885BF80E880936100C0
:1020B0008FE08093610091E09093810080E28093B3
:1020C000B6009093B100AEEFE0E0F0E06FEF7FEF8D
:1020D000B0E08091B2008823E1F7409184005091F4
:1020E00085008091B2008034E1F720918400309126
:1020F0008500241B350B6217730708F4B9012E17EE
:102100003F0708F4F901CF01861B970B029730F0C7
:10211000B0E06FEF7FEFE0E0F0E003C0BF5FB2330D
:1021200010F4A150B1F6309373042093720410920E
:10213000B1008091B10080938100809181008093F3
:10214000B6008091B600992783709070892BC9F7EB
:102150008091DF008D7F8093DF008091DC008D7F98
:102160008093DC008091DF008E7F8093DF00809180
:10217000DC008E7F8093DC0080E28093B60080914B
:10218000DC008F7C80638093DC008FEF8093990369
:102190008091DF0088608093DF0084E480934604B0
:1021A0008091C8008F778093C8008091C8008F7B92
:1021B0008093C8008091C80082608093C80080919D
:1021C000C9008F7D8093C9008091C9008B7F809367
:1021D000C9008091C90080688093C9008091C900BE
:1021E00080648093C9008091C90080618093C90098
:1021F0008091C90088608093C9008091CA008F7760
:102200008093CA008091CA008F7B8093CA0080911E
:10221000CA008F7D8093CA008091CA008F7E809310
:10222000CA008091CA008E7F8093CA008091CA0044
:1022300084608093CA008091CA0082608093CA0043
:102240001092CD0082E28093CC001092AF031092E6
:102250000A0410927504109274041092A80310924C
:10226000A70310920D0410920C04109270041092A7
:102270006F041092600410925F041092C3031092D6
:10228000C2036A9A6B9A6C9A729A739A749A81E0F2
:1022900085BF809139018260809339010E940E10C0
:1022A0008823E1F7109247048AE18093070587ECC1
:1022B000809349018AE78093480180EC809345012F
:1022C00088E38093DC00809139018260809339013A
:1022D00081E08093100420911702309118022F5F43
:1022E0003F4FC901AA27BB27215030408093CF031D
:1022F0009093D003A093D103B093D2038AE794E0E4
:102300009093AA038093A9038F969093AC03809334
:10231000AB0388ED94E09093AE038093AD038FEF11
:102320009FEF909362048093610490936404809380
:10233000630490936604809365049093680480938B
:10234000670490936A04809369042295207F209308
:10235000A6038FEF8093CA030E940E108823E1F733
:10236000812F99278FBF78940E943E0B8FB7F894E6
:10237000482F55277FEFE0E2F1E0649115C080918E
:10238000990387FF08C08091DC001092990383B7FE
:10239000807F862B83BF83B7816083BF78948895C5
:1023A000F89483B78E7F83BF809171048F3F39F398
:1023B000282F3327F901EC54FC4F9081909371043E
:1023C0009F3F11F490930D0570832F3FC1F24FBFD3
:1023D000822F0E94950CCACFACE2B0E0E2EFF1E1AF
:1023E0000C94A013222E332E442E552E662E772EBB
:1023F000882E992EFE013196A8E01192AA95E9F750
:1024000029823A824B825C826D827E828F8298869C
:10241000FE013996B8E01192BA95E9F7A986BA8615
:10242000CB86DC86ED86FE860F87188B89819A81A4
:10243000AB81BC8189A79AA7ABA7BCA77C018D0102
:102440008FEF9FEFA0E0B0E0E822F9220A231B23E0
:1024500089A59AA5ABA5BCA51D0144245524898551
:102460009A85AB85BC858DA39EA3AFA3B8A75C015D
:102470006D018FEF9FEFA0E0B0E0A822B922CA2241
:10248000DB228DA19EA1AFA1B8A53D01882499248E
:10249000C801B701A60195010E94811369A37AA31F
:1024A0008BA39CA3C801B701A40193010E948113CF
:1024B0007B018C01C201B101A60195010E9481132B
:1024C0005B016C01C201B101A40193010E9481135F
:1024D0003B014C01EA0CFB1C0C1D1D1D89A19AA19E
:1024E000ABA1BCA19D01442755272E0D3F1D401FC8
:1024F000511F2A153B054C055D0540F480E090E036
:10250000A1E0B0E0680E791E8A1E9B1ECA01AA27B0
:10251000BB27860D971DA81DB91D8D8F9E8FAF8F70
:10252000B8A3A9013327222789A19AA1ABA1BCA1F5
:10253000A070B070280F391F4A1F5B1F298F3A8F78
:102540004B8F5C8FA98CBA8CCB8CDC8CED8CFE8C89
:102550000F8D18A1FE01719698E011929A95E9F7F6
:10256000ED8AFE8A0F8B188F2D813E814F81588511
:102570006DA17EA18FA198A50E9481133B014C0102
:102580002D853E854F85588969A57AA58BA59CA583
:102590000E9481132D893E894F89588D260F371F40
:1025A000481F591F260D371D481D591D2D8B3E8B69
:1025B0004F8B588F6D887E888F88988C2A2D3B2D65
:1025C0004C2D5D2D662D772D882D992DE2E1AC9651
:1025D0000C94BC13A0E1B0E0E0EFF2E10C94A01386
:1025E000222E332E442E552E662E772E882E992E8F
:1025F000002309F466C088E0FE01319611928A95A5
:10260000E9F729833A834B835C836D837E838F82D2
:102610009887E0E2E01B1E16CCF52D813E814F81AC
:102620005885602F772767FD7095DA01C901062E5E
:1026300004C0B695A795979587950A94D2F78D878C
:102640009E87AF87B88B04C0220F331F441F551FCE
:10265000EA95D2F789819A81AB81BC8104C0B69595
:10266000A795979587956A95D2F7282B392B4A2BF2
:102670005B2B29873A874B875C8729843A844B8474
:102680005C846D847E848F8498881BC01D861E8622
:102690001F86188A2E2F332727FD309530952195D8
:1026A0003F4F8D819E81AF81B88504C0B695A795B7
:1026B000979587952A95D2F789879A87AB87BC87A4
:1026C000DCCF222D332D442D552D662D772D882DD1
:1026D000992DE2E160960C94BC13AA1BBB1B51E13F
:1026E00007C0AA1FBB1FA617B70710F0A61BB70B82
:1026F000881F991F5A95A9F780959095BC01CD0127
:102700000895629FD001739FF001829FE00DF11D3B
:10271000649FE00DF11D929FF00D839FF00D749F5B
:10272000F00D659FF00D9927729FB00DE11DF91F07
:10273000639FB00DE11DF91FBD01CF011124089564
:102740002F923F924F925F926F927F928F929F92C1
:10275000AF92BF92CF92DF92EF92FF920F931F93AF
:10276000CF93DF93CDB7DEB7CA1BDB0B0FB6F89460
:10277000DEBF0FBECDBF09942A88398848885F84A0
:102780006E847D848C849B84AA84B984C884DF8011
:10279000EE80FD800C811B81AA81B981CE0FD11DF5
:1027A0000FB6F894DEBF0FBECDBFED010895FB015B
:1027B000DC0102C001900D9241505040D8F70895BD
:1027C000DC0101C06D9341505040E0F70895A0E155
:1027D000B0E0EDEEF3E10C94AE130F89188D86E0B6
:1027E0008E831C830B838FEF9FE798878F83AE01C7
:1027F000455E5F4F5A834983698D7A8DCE0103967A
:102800000E940C1429853A85020F131FF8011082CB
:10281000E4E060960C94CA13ABE0B0E0E2E1F4E1CE
:102820000C94A2133C014B016A01FC011782168231
:10283000838181FD03C08FEF9FEFDAC1F301338104
:10284000F40133FD859133FF81914F01882309F411
:10285000CCC1853239F433FD859133FF81914F012D
:10286000853229F4B30199270E941216E7CF00E0C0
:10287000442455244AE00032B0F48B3269F08C32A3
:1028800028F4803251F0833271F40BC08D3239F06C
:10289000803349F4016028C00260046025C00860EC
:1028A00023C0006121C007FD29C0282F20532A30F2
:1028B00078F406FF06C0549EC0011124522E580E13
:1028C00013C0449EC0011124422E480E00620CC069
:1028D0008E3221F406FD89C1006406C08C3611F4E5
:1028E000006802C0883651F4F40133FD859133FF4E
:1028F00081914F01882309F46FC0BDCF982F855473
:10290000833018F08052833038F424E030E0C20E77
:10291000D31E8FE389830FC0933631F0933799F03C
:10292000933509F05BC023C0F6018081898322E0E2
:1029300030E0C20ED31E7E010894E11CF11C51E070
:10294000A52EB12C12C0F601E080F18006FD03C077
:102950006FEF7FEF02C0652D772722E030E0C20ED7
:10296000D31EC7010E9407165C010F7713C0F60142
:10297000E080F18006FD03C06FEF7FEF02C0652DA0
:10298000772722E030E0C20ED31EC7010E94FC155B
:102990005C01006803FF07C01BC0B30180E290E048
:1029A0000E9412164A94842D9927A816B906A8F3F6
:1029B0000FC0F70107FD859107FF81917F01B301EA
:1029C00099270E94121641104A940894A108B10850
:1029D000A114B10471F706C190E03EC0943611F025
:1029E000993691F507FF0AC0F601608171818281F5
:1029F000938124E030E0C20ED31E0DC0F601808129
:102A000091819C01B901882777FD8095982F42E03C
:102A100050E0C40ED51E4FE6B42EB02297FF09C079
:102A200090958095709561957F4F8F4F9F4F50E89F
:102A3000B52A8E010F5F1F4F2AE030E0A8010E94E7
:102A40003F16A82EA01A4DC0953731F43FEEF32E55
:102A5000F0222AE030E023C029EFF22EF0229F3648
:102A600061F0903720F4983509F0BFC012C090375C
:102A700039F0983709F0B9C005C028E030E00FC040
:102A800080E1F82AF4FE02C094E0F92A20E130E067
:102A900006C0F4FE02C0E6E0FE2A20E132E0F7FEC6
:102AA0000AC0F601608171818281938144E050E027
:102AB000C40ED51E0BC0F60180819181AC01BA0114
:102AC00088279927E2E0F0E0CE0EDF1E8E010F5F2F
:102AD0001F4FA8010E943F16A82EA01A8FE7B82EFC
:102AE000BF20B6FE10C0FEEFBF22A51460F42B2D50
:102AF000332724FF1AC022FF02C0052D09C02FEE84
:102B0000B222052D01C00A2D2B2D332724FF0EC024
:102B1000FE01EA0DF11D8081803319F439EEB322F4
:102B200009C00F5F22FF06C004C0052D822F8678E2
:102B300009F00F5FEB2CFF24E3FC14C0E0FE0FC094
:102B4000041510F05A2C0BC0542C501A5A0C042D9A
:102B500006C0B30180E290E00E9412160F5F0415D8
:102B6000C0F304C0041510F4401A01C04424E4FE6C
:102B700010C0B30180E390E00E941216E2FE1EC076
:102B8000E1FE03C088E590E002C088E790E0B30171
:102B90000CC08E2D867891F0E1FE02C08BE201C060
:102BA00080E2B7FC8DE2B30199270E94121606C09D
:102BB000B30180E390E00E9412165A94A514C0F36A
:102BC000AA94FE01EA0DF11D8181B30199270E94AB
:102BD0001216AA2039F0F4CFB30180E290E00E94EF
:102BE00012164A944420C1F729CEF30186819781B9
:102BF000E0E12B960C94BE13FC01059061507040EF
:102C00000110D8F7809590958E0F9F1F0895FC01B5
:102C10006150704001900110D8F7809590958E0F0B
:102C20009F1F08950F931F93CF93DF938C01EB01A8
:102C30008B81992781FF1BC082FF0DC02E813F81B0
:102C40008C819D812817390764F4E881F98101930B
:102C5000F983E88306C0E885F985802F0995892BDB
:102C600031F48E819F8101969F838E8302C00FEF86
:102C70001FEFC801DF91CF911F910F910895FA01C5
:102C8000AA27283051F1203181F1E8946F936E7FAB
:102C90006E5F7F4F8F4F9F4FAF4FB1E03ED0B4E09C
:102CA0003CD0670F781F891F9A1FA11D680F791FDD
:102CB0008A1F911DA11D6A0F711D811D911DA11DEE
:102CC00020D009F468943F912AE0269F11243019FE
:102CD000305D3193DEF6CF010895462F4770405D99
:102CE0004193B3E00FD0C9F7F6CF462F4F70405D48
:102CF0004A3318F0495D31FD4052419302D0A9F7A3
:102D0000EACFB4E0A6959795879577956795BA959C
:102D1000C9F700976105710508959B01AC010A2E62
:102D200006945795479537952795BA95C9F7620F39
:0C2D3000731F841F951FA01D0895FFCF86
:102D3C00726563656976656420636F756E74657220
:102D4C00203D2025640A0001002323232323232371
:102D5C002323232323232323232323232323232337
:102D6C002323232323232323232323232323232327
:102D7C002323232323232323232323232323232317
:102D8C002323232323232323230D0A230D0A23097F
:102D9C00416C7020536179696E0D0A2309616C7066
:102DAC005F736179696E5B61745D696565655B64B0
:102DBC006F745D6F72670D0A230931342F31312F17
:102DCC00323031310D0A23094B544820526F79614E
:102DDC006C20496E73746974757465206F66205429
:102DEC006563686E6F6C6F67790D0A230D0A230992
:102DFC004E6F7465733A0D0A230957656C636F6DDA
:102E0C006520746F2054696E794F5320322E312E09
:102E1C0031206F6E2041746D6567613132385246D6
:102E2C0041310D0A23095468697320697320746851
:102E3C006520776F726B696E672064656D6F2066B5
:102E4C006F7220426C696E6B430D0A230949742022
:102E5C0073686F756C6420616C736F206563686F49
:102E6C0020746865206B65797320636F6D696E677C
:102E7C002066726F6D2073657269616C20706F7261
:102E8C00740D0A230D0A2323232323232323232313
:102E9C0023232323232323232323232323232323F6
:102EAC0023232323232323232323232323232323E6
:102EBC0023232323232323232323232323232323D6
:102ECC002323232323230D0A00FF01010022FFFFEC
:022EDC00FF00F5
:00000001FF
