S01D00006275696C642F726362313238726661312F6D61696E2E73726563B8
S11300000C9493000C94B2000C94B2000C94B200C3
S11300100C94B2000C94B2000C94B2000C94B20094
S11300200C94B2000C94B2000C94B2000C94B20084
S11300300C94B2000C94B2000C94B2000C94B20074
S11300400C94B2000C94B2000C94B2000C94B20064
S11300500C94B2000C94B2000C94B2000C94B20054
S11300600C94B2000C94B2000C94B2000C94B20044
S11300700C94B2000C94B2000C94B2000C94B20034
S11300800C94B2000C94B2000C94B2000C94B20024
S11300900C94E1000C94B2000C943B010C94B2005B
S11300A00C94B2000C94B2000C94B2000C94B20004
S11300B00C94B2000C94B2000C94B2000C94B200F4
S11300C00C94B2000C94B2000C94B2000C94B200E4
S11300D00C94B2000C94B2000C94B2000C94B200D4
S11300E00C94B2000C94B2000C94B2000C94B200C4
S11300F00C94B2000C94B2000C94B2000C94B200B4
S11301000C94B2000C94C5020C9401030C940B03E0
S11301100C9497010C94B2000C94B2000C94B200AD
S113012000020E060C0411241FBECFEFD1E4DEBF83
S1130130CDBF12E0A0E0B2E0EAEAF8E100E00BBFD4
S113014002C007900D92A232B107D9F711E1A2E2E1
S1130150B2E001C01D92A63FB107E1F70E94FF0A79
S11301600C94540C0C9400008FB7F89499270895BC
S11301708FBF0895282F9FB7F894E82FFF27E159E0
S1130180FD4F80818F3F81F4E091F511E21771F406
S11301900BC02093F01104C0FF27E159FD4F2083C9
S11301A02093F51120E007C025E005C08091F011EF
S11301B08F3F91F7EECF892F99278FBF822F9927F1
S11301C008951F920F920FB60F9211242F933F930D
S11301D04F935F936F937F938F939F93AF93BF934B
S11301E0EF93FF938091C80087FF34C04091CE0005
S11301F040932202E091F311F091F411309701F150
S113020020919402309195028091E7119091E81128
S113021028173907D0F4E20FF31F4083809194022A
S11302209091950201969093950280939402209167
S1130230E7113091E8118217930739F483E003C082
S11302404093170384E00E94BA008091C8008F771E
S11302508093C800FF91EF91BF91AF919F918F91CF
S11302607F916F915F914F913F912F910F900FBEAE
S11302700F901F9018951F920F920FB60F92112492
S11302802F933F934F935F936F937F938F939F939A
S1130290AF93BF93EF93FF93E0912B02F0912C0265
S11302A0309779F12091ED113091EE118091860211
S11302B0909187022817390780F48091C80085FF40
S11302C0FCCFE20FF31F80818093CE002F5F3F4F5E
S11302D03093EE112093ED1114C02817390789F4D7
S11302E010928702109286021092EE111092ED1174
S11302F010922C0210922B021092930282E00E9420
S1130300BA008091C8008F7B8093C800FF91EF9161
S1130310BF91AF919F918F917F916F915F914F9119
S11303203F912F910F900FBE0F901F9018951F9221
S11303300F920FB60F9211248F93809158038F5F01
S1130340809358038F910F900FBE0F901F901895B4
S1130350EF92FF920F931F937FB7F8946091580325
S11303602091E100822F2091E200922F2091E3005E
S1130370A22F2091E400B22F9C01AD018091E000F6
S113038083FF0FC06F5F8091E100E82E8091E2004F
S1130390F82E8091E300082F8091E400182FA80123
S11303A09701872F99278FBF772788279927FAE105
S11303B0660F771F881F991FFA95D1F7E6E05695C7
S11303C0479537952795EA95D1F7622B732B842BA4
S11303D0952B1F910F91FF90EF9008956F927F924C
S11303E08F929F92AF92BF92CF92DF92EF92FF9241
S11303F00F931F930E94A8017B018C0120918F020F
S113040030919002409191025091920280918B021E
S113041090918C02A0918D02B0918E02820F931F55
S1130420A41FB51FE216F3060407150730F0821760
S11304309307A407B50758F005C082179307A407CC
S1130440B507E0F5E816F9060A071B07B8F59C019D
S1130450AD012E193F09400B510B213060E03607E6
S113046060E0460762E0560768F180E090E0A0E0B3
S1130470B2E0E80EF91E0A1F1B1FE0928F02F092F1
S11304809002009391021093920280E090E0A0E029
S1130490BEEFE80EF91E0A1F1B1F205030404040DB
S11304A0524020938B0230938C0240938D025093E0
S11304B08E0220E030E040E052E014C020E030E062
S11304C040E050E080938F0290939002A0939102B9
S11304D0B093920210928B0210928C0210928D02B1
S11304E010928E0239014A01B6E0660C771C881C12
S11304F0991CBA95D1F7A6E0EE0CFF1C001F111F42
S1130500AA95D1F78091E100A82E8091E200B82E3F
S11305108091E300C82E8091E400D82EA6019501B5
S11305202E5F3F4F4F4F5F4FDA01C9018E199F096C
S1130530A00BB10B86159705A805B90530F4A801E1
S11305409701260D371D481D591D5093F8004093FF
S1130550F7003093F6002093F50081E08093E000EB
S11305608091DF0081608093DF008FEF8093000231
S11305701F910F91FF90EF90DF90CF90BF90AF90BD
S11305809F908F907F906F9008951F920F920FB657
S11305900F9211242F933F934F935F936F937F9305
S11305A08F939F93AF93BF93EF93FF938091DF005B
S11305B08E7F8093DF008FEF8093000280918B0207
S11305C090918C02A0918D02B0918E020097A105AA
S11305D0B10521F487E00E94BA0002C00E94EE0136
S11305E0FF91EF91BF91AF919F918F917F916F9107
S11305F05F914F913F912F910F900FBE0F901F90DD
S113060018951F920F920FB60F9211240F900FBEE0
S11306100F901F9018951F920F920FB60F921124EE
S11306200F900FBE0F901F90189584E48093590388
S1130630E8ECF0E080818F77808380818F7B8083FA
S1130640808182608083E9ECF0E080818F7D80830B
S113065080818B7F808380818068808380818064B7
S11306608083808180618083808188608083EAECDC
S1130670F0E080818F77808380818F7B808380818D
S11306808F7D808380818F7E808380818E7F808335
S11306908081846080838081826080831092CD0019
S11306A082E28093CC008FB7F894992710922D02A0
S11306B0109293021092F4111092F31110922C02E2
S11306C010922B0210929502109294021092EE1145
S11306D01092ED111092E8111092E7111092870216
S11306E0109286028FBF80E090E008950F931F93CD
S11306F00FB7F894112760938F0270939002809340
S113070091029093920220938B0230938C02409337
S11307108D0250938E020E94EE010FBF1F910F9124
S11307200895982F81568A3110F4975505C0892F62
S113073081548A3120F49753892F99270895892F5A
S113074080538A3018F080E090E008959927089546
S1130750982F8FB7F894282F332780918A02882303
S113076021F42FBF81E090E008952FBF8FB7F89454
S1130770282F332780919302882321F02FBF85E00F
S113078090E0089581E0809393022FBF8091C80088
S11307908F7B8093C8008091C9008F7B8093C900B0
S11307A09093CE008091C80080648093C8008091AB
S11307B0C80086FFFCCF8091C8008F7B8093C8005F
S11307C08091C80080648093C8008091C9008064CF
S11307D08093C9008FB7F8949927109293028FBF22
S11307E080E090E00895FF920F931F93CF93DF93DF
S11307F0CDB7DEB7C054D0400FB6F894DEBF0FBEFD
S1130800CDBF8C01562F569556955695262F269575
S113081026952170A62FA695A17061704BE549839A
S1130820409112024A834AE34B83E62FFF27EF5E8F
S1130830FD4F80818C83BB27AF5EBD4F8C918D8330
S113084033272F5E3D4FF90180818E83A52FBB276F
S1130850FD0134E0F695E7953A95E1F7EF5EFD4F3B
S113086080818F83AF70B070AF5EBD4F8C918887ED
S1130870E72FE295EF70FF27EF5EFD4F80818987B8
S1130880E72FFF27EF70F070EF5EFD4F80818A87BE
S1130890F801EF2FFF27E295EF70EF5EFD4F8081A7
S11308A08B87E12FFF27EF70F070EF5EFD4F8081A3
S11308B08C87F80184E0F695E7958A95E1F7EF7067
S11308C0F070EF5EFD4F80818D870F7010700F5EAA
S11308D01D4FF80180818E878DE58F87188A8CE7FC
S11308E00E94A8038E010F5F1F4FF80181918F01B1
S11308F00E94A803CE01409608171907B1F78CE7A8
S11309000E94A8038AE00E94A803C05CDF4F0FB6D0
S1130910F894DEBF0FBECDBFDF91CF911F910F9131
S1130920FF900895DF92EF92FF920F931F93D82EBA
S11309307A018B010E94A80129E0D29EF0011124C2
S1130940E65AFC4F6083718382839383E482F58249
S11309500683178380858E7F8260808788E00E946B
S1130960BA001F910F91FF90EF90DF900895EF92DE
S1130970FF920F931F93CF93DF93FC01EB018FB78B
S1130980F894282F332780918A02882311F42FBFEB
S113099006C02FBFCB0101978034910518F081E088
S11309A090E033C08FB7F894282F332780919302B7
S11309B0882321F02FBF85E090E027C081E0809359
S11309C093022FBF0FB7F89411274EE2E42E42E0B2
S11309D0F42EAB01BF01C7010E94450C0FBFF0927A
S11309E02C02E0922B02D0938702C093860280915E
S11309F02E028093CE0081E090E09093EE118093DC
S1130A00ED111092160380E090E0DF91CF911F91D9
S1130A100F91FF90EF9008959F92AF92BF92CF9263
S1130A20DF92EF92FF920F931F93CF93DF93CDB793
S1130A30DEB7E8970FB6F894DEBF0FBECDBF5B01FB
S1130A406C019090620391FE20C020915A03309172
S1130A505B0340915C0350915D03E0905E03F09072
S1130A605F030091600310916103DC01CB01821BE1
S1130A70930BA40BB50B8E159F05A007B10728F0A7
S1130A80EAE5F3E060E070E022C0E3E6F3E0909092
S1130A906B0391FEEFC02091630330916403409196
S1130AA0650350916603E0906703F090680300913A
S1130AB0690310916A03A21AB30AC40AD50AAE14D0
S1130AC0BF04C006D10608F4D5C061E070E090FE12
S1130AD004C080858D7F808708C02E0D3F1D401F78
S1130AE0511F2083318342835383662321F0613075
S1130AF009F0C0C088C080917A0290917B0201966F
S1130B0090937B0280937A0280917C0290917D0283
S1130B10019690937D0280937C0280917E02909155
S1130B207F02019690937F0280937E0280918002DF
S1130B30909181020196909381028093800280912A
S1130B4082029091830201969093830280938202A1
S1130B5080918402909185020196909385028093FE
S1130B60840282E090E09093790280937802DE011F
S1130B701196E8E7F2E08EE001900D928150E1F7E2
S1130B80DE011F96FE0131968EE001900D92815098
S1130B90E1F7DE015D96FE013F968EE001900D9235
S1130BA08150E1F7DE019B96FE017D968EE0019077
S1130BB00D928150E1F7209125022F3F09F45AC08C
S1130BC030912402832F9927880F991FFC01A3E0F9
S1130BD0EE0FFF1FAA95E1F7E81BF90BEB50FC4F52
S1130BE0DE019B968EE00D9001928150E1F7832FF8
S1130BF08F5F809324028F3F11F4109224022F5FA1
S1130C002093250234C08091710390E19093720384
S1130C10836C8093710382E090E0909374038093DB
S1130C2073032091710330917203409173035091C7
S1130C30740360912A02862F99278032F0F78091FD
S1130C402902E82FFF27EE0FFF1FEE0FFF1FEA56C2
S1130C50FD4F20833183428353838F5F8093290226
S1130C60803211F4109229026F5F60932A0286E0A9
S1130C700E94BA0088E00E94BA00E8960FB6F89481
S1130C80DEBF0FBECDBFDF91CF911F910F91FF90BB
S1130C90EF90DF90CF90BF90AF909F9008958F9288
S1130CA09F92AF92BF92CF92DF92EF92FF920F93F7
S1130CB01F93CF93DF93CDB7DEB7CC55D0400FB69B
S1130CC0F894DEBF0FBECDBF853009F46FC0863007
S1130CD030F4833071F0843009F060C41DC0873073
S1130CE009F4ADC3873008F406C1883009F056C44E
S1130CF0D9C31092F4111092F3111092E8111092CA
S1130D00E71110929502109294028FB7F8949927E4
S1130D1010922D028FBF42C400911703802F0E94AE
S1130D20A8030B35A1F41092EF112FB7F8943327D1
S1130D308091EF11E82FFF27E85EFC4F00838F5F5F
S1130D408093EF112FBF81E08093890227C48091A3
S1130D5089020D35C9F4882309F420C48FB7F894A7
S1130D609927A091EF11EA2FFF27E85EFC4F00833B
S1130D70AF5FA093EF11BB27A85EBC4F1C928FBF3F
S1130D801092890285E058C3882309F407C42FB759
S1130D90F89433278091EF11E82FFF27E85EFC4F8A
S1130DA000838F5F8093EF112FBFF8C30FB7F894C0
S1130DB011274091EF11552768E173E0CE014D965C
S1130DC00E94450C0FBF8D8D8B3509F0E7C38F8DC5
S1130DD08A3309F0E3C38E8D0E949103282F823059
S1130DE039F0833041F0813049F080E090E010C068
S1130DF0E0E2F0E005C0EDE0F0E002C0EFE0F0E09A
S1130E00EC0FFD1F848D8D3509F0C8C3822F9927FF
S1130E10813009F0C3C3213009F0C0C38BA58D35DF
S1130E2009F0BCC3B8A0E1E0EE2EBE20D9A0DE20BC
S1130E30EAA071E0F72EEF208BA10E949103F82E17
S1130E40FF0CFF0CFF0CFF0C0FE1F0228CA10E94A1
S1130E509103F82AF0228DA10E949103C82ECC0C94
S1130E60CC0CCC0CCC0C8EA10E949103C82A8FA16F
S1130E700E949103082F1127102F00271295107F2D
S1130E8088A50E9491039927982F8827082B192B4E
S1130E908AA50E9491039927082B192B89A50E94E2
S1130EA09103992744E0880F991F4A95E1F7802B15
S1130EB0912B90936F0380936E03C0926D03FF0C8C
S1130EC0FF0CFF0CEE0CEE0CDD0CEF28DE28BD2829
S1130ED0B0926C03E0906C03F0906D0300916E038C
S1130EE010916F03C801B7010E94F303C801B70151
S1130EF00E94F30353C390E080912502882309F4F0
S1130F0091E0992309F052C1809123029927880F17
S1130F10991FFC0123E0EE0FFF1F2A95E1F7E81B60
S1130F20F90BDE011F96EB50FC4F8EE001900D9201
S1130F308150E1F7DE011196FE013F968EE00190AB
S1130F400D928150E1F7CD84DE84E980FA800B852F
S1130F501C8569857A854F8158852D813E81AB81B9
S1130F60BC818BE58D8F809103028E8F8AE38F8FF6
S1130F70FD01EF2FFF27E295EF70EF5FFD4F8081BA
S1130F8088A3EB2FFF27EF70F070EF5FFD4F808198
S1130F9089A3FD0184E0F695E7958A95E1F7EF7062
S1130FA0F070EF5FFD4F80818AA3AF70B070AF5FC8
S1130FB0BD4F8C918BA3F901EF2FFF27E295EF70C2
S1130FC0EF5FFD4F80818CA3E32FFF27EF70F0705C
S1130FD0EF5FFD4F80818DA3F901B4E0F695E795AD
S1130FE0BA95E1F7EF70F070EF5FFD4F80818EA34B
S1130FF02F7030702F5F3D4FF90180818FA3FA016C
S1131000EF2FFF27E295EF70EF5FFD4F808188A7F8
S1131010E52FFF27EF70F070EF5FFD4F808189A708
S1131020FA0124E0F695E7952A95E1F7EF70F07060
S1131030EF5FFD4F80818AA74F7050704F5F5D4F07
S1131040FA0180818BA7FB01EF2FFF27E295EF7058
S1131050EF5FFD4F80818CA7E72FFF27EF70F070C3
S1131060EF5FFD4F80818DA7FB01B4E0F695E79516
S1131070BA95E1F7EF70F070EF5FFD4F80818EA7B6
S11310806F7070706F5F7D4FFB0180818FA7F801D7
S1131090EF2FFF27E295EF70EF5FFD4F808188AB64
S11310A0E12FFF27EF70F070EF5FFD4F808189AB78
S11310B0F80164E0F695E7956A95E1F7EF70F07052
S11310C0EF5FFD4F80818AAB0F7010700F5F1D4F73
S11310D0F80180818BABF701EF2FFF27E295EF70CA
S11310E0EF5FFD4F80818CABEF2DFF27EF70F07029
S11310F0EF5FFD4F80818DABF70134E0F695E79506
S11311003A95E1F7EF70F070EF5FFD4F80818EABA1
S1131110FFE0EF22FF2401E012E0E00EF11EF701F0
S113112080818FABF601EF2FFF27E295EF70E00F80
S1131130F11F808188AFED2DFF27EF70F070E00F75
S1131140F11F808189AFF60184E0F695E7958A95D1
S1131150E1F7EF70F070E00FF11F80818AAFFFE0DC
S1131160CF22DD24C00ED11EF60180818BAF8DE528
S11311708CAF1DAE60E270E0CE014D960E94B704C4
S1131180882389F48091230290912502992371F098
S11311908F5F809323028F3F11F4109223029150AA
S11311A09093250203C086E00E94BA0090E08091EB
S11311B02A02882309F491E0992309F082C0E0917E
S11311C02802FF27EE0FFF1FEE0FFF1FEA56FD4F09
S11311D080819181A281B381282F26952170482F87
S11311E04170582F52955695569553708BE58D8FB7
S11311F0809104028E8F8AE38F8FFD01EF2FFF27EA
S1131200E295EF70EF5FFD4F808188A3EB2FFF27FE
S1131210EF70F070EF5FFD4F808189A3FD0164E002
S1131220F695E7956A95E1F7EF70F070EF5FFD4F83
S113123080818AA3AF70B070AF5FBD4F8C918BA3D8
S1131240E92FE295EF70FF27EF5FFD4F80818CA3BC
S1131250E92FFF27EF70F070EF5FFD4F80818DA3C2
S1131260E52FFF27EF5FFD4F80818EA355274F5F4A
S11312705D4FFA0180818FA333272F5F3D4FF90122
S1131280808188A78DE589A71AA66DE070E0CE015C
S11312904D960E94B704882389F480912802909186
S11312A02A02992371F08F5F80932802803211F40F
S11312B010922802915090932A0203C086E00E9463
S11312C0BA0090E080912702882309F491E09923E1
S11312D009F098C0E0912602FF27EE0FFF1FEE0FE2
S11312E0FF1FEB58FC4F80819181A281B3818D0156
S11312F0782F769576957695482F46954695417044
S1131300282F2695217081706BE56D8F6091020204
S11313106E8F6AE36F8FE82FFF27EF5FFD4F8081A9
S113132088A333272F5F3D4FF901808189A3552777
S11313304F5F5D4FFA0180818AA3A72FBB27FD0170
S113134034E0F695E7953A95E1F7EF5FFD4F80813C
S11313508BA3AF70B070AF5FBD4F8C918CA3E92F9E
S1131360E295EF70FF27EF5FFD4F80818DA3E92F9A
S1131370FF27EF70F070EF5FFD4F80818EA3F801BF
S1131380EF2FFF27E295EF70EF5FFD4F80818FA372
S1131390E12FFF27EF70F070EF5FFD4F808188A78A
S11313A0F80184E0F695E7958A95E1F7EF70F0701F
S11313B0EF5FFD4F808189A70F7010700F5F1D4F85
S11313C0F80180818AA78DE58BA71CA66FE070E0E9
S11313D0CE014D960E94B704882389F48091260299
S11313E090912702992371F08F5F809326028032B7
S11313F011F41092260291509093270203C086E0C4
S11314000E94BA0090E080912502882309F491E0BB
S1131410992389F090E080912A02882309F491E0CD
S1131420992349F090E080912702882309F491E000
S1131430992309F0B3C086E00E94BA00AFC080913E
S11314408802882361F52091E9113091EA114091D5
S1131450EB115091EC11EFB7F894FF2760918F02D4
S1131460709190028091910290919202E0908B028F
S1131470F0908C0200918D0210918E026E0D7F1DF2
S1131480801F911FEFBF2093E9113093EA1140931D
S1131490EB115093EC11109288020E9476030E9483
S11314A0A8016AC00E94A8014B015C018091DF0081
S11314B08E7F8093DF008FEF809300028091620320
S11314C081FF24C080915A0390915B03A0915C0337
S11314D0B0915D0385017401E81AF90A0A0B1B0B2C
S11314E020915E0330915F0340916003509161034A
S11314F02E193F09400B510B2F3F0FEF30070FEF11
S113150040070FE7500711F061E005C02FEF3FEFF0
S11315104FEF5FE760E080916B0381FF24C080910F
S1131520630390916403A0916503B0916603850100
S11315307401E81AF90A0A0B1B0BD801C701C09001
S11315406703D0906803E0906903F0906A03C81AB7
S1131550D90AEA0AFB0AC216D306E406F5061CF405
S1131560A701960102C06623C9F0121613061406D9
S113157015062CF0C501B4010E940C050FC0209380
S1131580E9113093EA114093EB115093EC1181E08F
S113159080938802C501B4010E947603C45ADF4FC8
S11315A00FB6F894DEBF0FBECDBFDF91CF911F9170
S11315B00F91FF90EF90DF90CF90BF90AF909F90EE
S11315C08F9008958091F0118F3FB1F0282F332729
S11315D0F901E159FD4F80818093F0118F3F11F49F
S11315E08093F5118FEF80832F3F31F0822F0E947B
S11315F04F0681E090E0089580E090E008951F9305
S11316001FB7F89414BE88E10FB6F8948093600075
S1131610109260000FBE49E050E06FEF70E08FE67B
S113162092E00E943E0C8FEF8093F0118093F511AD
S113163085B7806885BF85B7806885BF80E880935B
S113164061008FE08093610091E09093810080E2DB
S11316508093B6009093B100AEEFE0E0F0E06FEF5E
S11316607FEFB0E08091B2008823E1F740918400DD
S1131670509185008091B2008034E1F7209184007C
S113168030918500241B350B6217730708F4B901E8
S11316902E173F0708F4F901CF01861B970B029719
S11316A030F0B0E06FEF7FEFE0E0F0E003C0BF5F49
S11316B0B23310F4A150B1F63093F2112093F1112A
S11316C01092B1008091B1008093810080918100DB
S11316D08093B6008091B600992783709070892B0F
S11316E0C9F78091DF008E7F8093DF008091DC005A
S11316F08E7F8093DC0080E28093B6008091DC00D2
S11317008F7C80638093DC008FEF80930002809154
S1131710DF0088608093DF000E9415036A9A6B9A49
S11317206C9A729A739A749A81E085BF8091390198
S11317308260809339010E94E20A8823E1F70E94C3
S1131740E20A8823E1F7812F99278FBF789411E06B
S113175010937003109289028FB7F894992710930D
S11317608A028FBF0E94150322E030E03093740395
S1131770209373038091710390E190937203836CBF
S113178080937103309379022093780210927B0244
S113179010927A0210927D0210927C0210927F02C3
S11317A010927E02109281021092800210928302A3
S11317B01092820210928502109284021093700398
S11317C01092890248EE53E060E070E080E00E94ED
S11317D0920440E157E260E070E081E00E949204EC
S11317E08FB7F894482F55276FEF2FC080910002D0
S11317F087FF22C08091DC0085FF03C023E030E036
S113180002C025E030E080918A02813019F4E0E0E2
S1131810F0E002C0E5E0F0E02E1708F4E22FFF2725
S1131820E093000283B7FF27E7FDF095E05EFE4FEB
S1131830E491807F8E2B83BF83B7816083BF7894CC
S11318408895F89483B78E7F83BF8091F0118F3F82
S113185069F2282F3327F901E159FD4F90819093C4
S1131860F0119F3F11F49093F51160832F3F09F419
S1131870BDCF4FBF822F0E944F06B2CFDC0101C003
S11318806D9341505040E0F70895FB01DC01415055
S1131890504048F001900D920020C9F701C01D92FC
S10D18A041505040E0F70895FFCFD7
S11318AAFF3031323334353637383961626364652F
S11318BA66303132333435363738396162636465B8
S10518CA6600B2
S9030000FC
