:100000008FC00000AAC00000A8C00000A6C0000069
:10001000A4C00000A2C00000A0C000009EC000005C
:100020009CC000009AC0000098C0000096C000006C
:1000300094C0000092C0000090C000008EC000007C
:100040008CC000008AC0000088C0000086C000008C
:1000500084C0000082C0000080C000007EC000009C
:100060007CC000007AC0000078C0000076C00000AC
:1000700074C0000072C0000070C000006EC00000BC
:100080006CC000006AC0000068C0000066C00000CC
:1000900064C0000062C0000060C000005EC00000DC
:1000A0005CC000005AC0000058C0000056C00000EC
:1000B00054C0000052C0000050C000004EC00000FC
:1000C0004CC000004AC0000048C0000046C000000C
:1000D00044C0000042C0000040C000003EC000001C
:1000E0003CC000003AC0000038C0000036C000002C
:1000F00034C0000032C0000030C000002EC000003C
:100100002CC000002AC0000028C0000026C000004B
:1001100024C0000022C0000020C000001EC000005B
:1001200011241FBECFEFD1E4DEBFCDBF12E0A0E0AF
:10013000B2E0EAECF1E000E00BBF02C007900D92E4
:10014000A030B107D9F712E0A0E0B2E001C01D92E3
:10015000A630B107E1F702D037C052CF609102025A
:100160007091030281E290E002D0729AF7CF0F9370
:100170001F93CF93DF938C01EB018B81992781FF34
:100180001BC082FF0DC02E813F818C819D8128176D
:10019000390764F4E881F9810193F983E88306C0A3
:1001A000E885F985802F0995892B31F48E819F810F
:1001B00001969F838E8302C00FEF1FEFC801DF916E
:0A01C000CF911F910F910895FFCF1A
:00000001FF
